:100000000C945D000C9485000C9485000C94850084
:100010000C9485000C9485000C9485000C9485004C
:100020000C9485000C9485000C9485000C9485003C
:100030000C9485000C9485000C9485000C9485002C
:100040000C9480050C9485000C944E050C942805A6
:100050000C9485000C9485000C9485000C9485000C
:100060000C94CA050C9485000000000800020100F1
:100070000003040700000000000000000000000072
:10008000250028002B0000000000240027002A0083
:10009000040404040404040402020202020203032E
:1000A0000303030301020408102040800102040836
:1000B0001020010204081020E90611241FBECFEF12
:1000C000D8E0DEBFCDBF11E0A0E0B1E0E4E5F8E1AB
:1000D00002C005900D92A432B107D9F722E0A4E244
:1000E000B1E001C01D92AC3DB207E1F710E0CDE5F3
:1000F000D0E004C02197FE010E94220CCC35D1072C
:10010000C9F70E9424070C94280C0C940000982F27
:100110002091310281E0213208F043C080910D022C
:100120008111FCCF8091300232E030930D02909328
:100130000C029FEF90930B0210920A022093090287
:10014000A0E1B2E0E9EEF1E090E0291331C01092B5
:10015000E8019091E801880F892B8093E801809154
:10016000E701813049F51092E7018091E801809321
:10017000BB008091BC0083FDF8CF85EC8093BC0070
:1001800080910D028230E1F380910B028F3FB1F03C
:1001900080910B028032A1F080910B02803391F0AC
:1001A00084E010920F021092310210920E02089514
:1001B0003D9131939F5FC9CF85EEE0CF80E0F1CFD5
:1001C00082E0EFCF83E0EDCF90910D029111FCCF53
:1001D00091E090930D0240930C022FEF20930B02BD
:1001E00010920A02260F209309029093E801909141
:1001F000E801880F892B8093E8018091E701813025
:10020000F9F41092E7018091E8018093BB0080919E
:10021000BC0083FDF8CF85EC8093BC0080910D027B
:100220008130E1F380910A02861710F460910A028E
:10023000A9EEB1E0E7ECF1E080E0861303C0089599
:1002400085EEEACF9D9191938F5FF7CF8091C501A5
:100250009091C601891B990B08950895089590E027
:10026000FC01EC55FF4F249180579F4FFC01849176
:10027000882399F090E0880F991FFC01EA57FF4FFF
:10028000A591B491FC01E458FF4F859194918FB7EB
:10029000F894EC91E22BEC938FBF0895AF92BF924C
:1002A000CF92DF92EF92FF920F931F93CF93DF9342
:1002B0006C017B018B01040F151FEB015E01AE1871
:1002C000BF08C017D10759F06991D601ED91FC9193
:1002D0000190F081E02DC6010995892B79F7C501C0
:1002E000DF91CF911F910F91FF90EF90DF90CF9012
:1002F000BF90AF900895FC01538D448D252F30E0C1
:10030000842F90E0821B930B541710F0CF96089522
:1003100001970895FC01918D828D981761F0A28D4F
:10032000AE0FBF2FB11D5D968C91928D9F5F9F7315
:10033000928F90E008958FEF9FEF0895FC01918DCB
:10034000828D981731F0828DE80FF11D858D90E038
:1003500008958FEF9FEF0895FC01918D228D892FD5
:1003600090E0805C9F4F821B91098F7399270895BD
:1003700082E392E00E94AC0121E0892B09F420E0A5
:10038000822F0895FC01A48DA80FB92FB11DA35A87
:10039000BF4F2C91848D90E001968F739927848FA5
:1003A000A689B7892C93A089B1898C9183708064C8
:1003B0008C93938D848D981306C00288F389E02D69
:1003C00080818F7D80830895EF92FF920F931F931A
:1003D000CF93DF93EC0181E0888F9B8D8C8D9813F8
:1003E0001AC0E889F989808185FF15C09FB7F89404
:1003F000EE89FF896083E889F98980818370806450
:1004000080839FBF81E090E0DF91CF911F910F919A
:10041000FF90EF900895F62E0B8D10E00F5F1F4FA9
:100420000F731127E02E8C8D8E110CC00FB607FCB8
:10043000FACFE889F989808185FFF5CFCE010E9446
:10044000C201F1CFEB8DEC0FFD2FF11DE35AFF4FF1
:10045000F0829FB7F8940B8FEA89FB8980818062D4
:10046000CFCFCF93DF93EC01888D8823B9F0AA8991
:10047000BB89E889F9898C9185FD03C0808186FD5F
:100480000DC00FB607FCF7CF8C9185FFF2CF8081AE
:1004900085FFEDCFCE010E94C201E9CFDF91CF9160
:1004A000089590E0FC01E859FF4F2491FC01EC55C0
:1004B000FF4F3491FC01E057FF4FE491EE23C9F068
:1004C000222339F0233001F1A8F4213019F1223030
:1004D00029F1F0E0EE0FFF1FE458FF4FA591B49112
:1004E0008FB7F894EC91611126C030953E233C9370
:1004F0008FBF08952730A9F02830C9F0243049F77C
:10050000809180008F7D03C0809180008F778093E1
:100510008000DFCF84B58F7784BDDBCF84B58F7D3E
:10052000FBCF8091B0008F778093B000D2CF8091C5
:10053000B0008F7DF9CF3E2BDACF1092C60110921A
:10054000C50110920F021092310210920D0281E04B
:1005500080930C021092E70161E082E10E94510257
:1005600061E083E10E945102E9EBF0E080818E7F3F
:10057000808380818D7F808388E48093B80085E4C8
:100580008093BC008DE291E09093C4018093C301FD
:100590008EE291E09093C2018093C10108958E5044
:1005A000806480937C0080917A00806480937A00DC
:1005B00080917A0086FDFCCF80917800909179003F
:1005C00008953FB7F8948091680190916901A091D6
:1005D0006A01B0916B0126B5A89B05C02F3F19F0A9
:1005E0000196A11DB11D3FBFBA2FA92F982F8827B3
:1005F000BC01CD01620F711D811D911D42E0660F8E
:10060000771F881F991F4A95D1F708958F929F925F
:10061000AF92BF92CF92DF92EF92FF924B015C01BB
:100620000E94E1026B017C010E94E1026C197D09CC
:100630008E099F09683E734081059105A8F321E06A
:10064000821A9108A108B10888EEC80E83E0D81E6E
:10065000E11CF11C81149104A104B10429F7FF905D
:10066000EF90DF90CF90BF90AF909F908F900895C4
:10067000CF93C3E061E08DE00E94510264E670E038
:1006800080E090E00E94060360E08DE00E9451024D
:1006900064E670E080E090E00E940603C15051F7EC
:1006A000CF91089585ED8093BC008091BC0084FDBE
:1006B000FCCF10920D02089520914401260F33279C
:1006C000331F21323105ECF420910D02FC0190E042
:1006D00080E0243069F082E00895A09144012191E6
:1006E000AC014C5D5E4FA40FB52FB11D2C9301964C
:1006F000861798F380914401680F6093440180E06D
:10070000089581E008950895E091C6018091C501A2
:10071000E81730F4F0E0E953FE4F808190E008954F
:100720008FEF9FEF08959091C6018091C5012FEF43
:100730003FEF981748F4E92FF0E0E953FE4F20818E
:1007400030E09F5F9093C601C9010895CF92DF9278
:10075000EF92FF920F931F93CF93DF937C01CB0116
:100760008A0120910E02222389F0EB016B01C40E55
:10077000D51ECC15DD0569F06991D701ED91FC918D
:100780000190F081E02DC7010995F3CF642F0E94FD
:100790005C03C801DF91CF911F910F91FF90EF9003
:1007A000DF90CF900895CF93DF931F92CDB7DEB740
:1007B000698320910E022223F9F020913102203228
:1007C00058F021E030E0FC013383228390E080E0A8
:1007D0000F90DF91CF91089580910F02E82FF0E004
:1007E000E05FFD4F998190838F5F80930F0280932C
:1007F000310281E090E0ECCF61E0CE0101960E94F1
:100800005C03F7CFCF93C82F81E080930E0280E482
:100810008093300210920F021092310266EE8FEC3C
:1008200092E00E94D3036C2F8FEC92E00E94D303DE
:1008300081E0CF910C94870090E080E0089591E0F2
:1008400090930E0290E79093300210920F02109254
:10085000310261E070E001C0660F8A95EAF78FEC23
:1008600092E00E94D30381E00C948700CF93DF9342
:1008700081E080930E0280E48093300210920F0298
:100880001092310263EE8FEC92E00E94D30381E07C
:100890000E948700882339F060E070E08FE793E4DE
:1008A000DF91CF9108958091DB02813009F44FC030
:1008B00008F441C0803809F445C0813809F44CC0BF
:1008C00041E063E080E40E94E4001092C60180935E
:1008D000C501833009F78FEC92E00E949303D82F73
:1008E00040E0C42F8FEC92E00E949303C82BD92BD9
:1008F0008FEC92E00E9493039E0190E1A901220FE8
:10090000331F57FF02C041E334279150B9F78313D7
:10091000C3CFBE0190E080E00E94FE0A27EB33EBDC
:100920004FE25BE30E94B50B26E636E64BE352E46A
:100930000E941A0AB5CF65E570E080E090E00E9461
:100940000603BECF6BE270E080E090E0F8CF66E196
:1009500070E080E090E0F3CF6BE070E080E090E04A
:10096000EECF81E080930E0280E4809330021092FB
:100970000F021092310267EE8FEC92E00E94D303D7
:1009800081E00E948700882311F08FEF089541E0F5
:1009900061E080E40E94E4001092C6018093C501EA
:1009A000813099F78FEC92E00E9493030895CF93E2
:1009B00082E392E00E94AC01892B09F441C082E3FA
:1009C00092E00E948A01853441F16CF48334C1F0D5
:1009D000843471F748E450E065E771E082E392E027
:1009E0000E944E01E5CF863429F1833509F761E095
:1009F0008BE00E94510261E08DE00E945102D8CF4D
:100A0000C0E08C2F0E941F040E94B10484600E94E9
:100A10000204CF5FC830A9F7CBCFC0E08C2F0E9473
:100A20001F040E94B1048B7F0E940204CF5FC83074
:100A3000A9F7BECF60E08BE00E94510260E0DCCFFE
:100A4000CF9108950E94B80181110C94D7040895A4
:100A50001F920F920FB60F9211242F933F934F9333
:100A60005F936F937F938F939F93AF93BF93EF9316
:100A7000FF9382E392E00E94C201FF91EF91BF9148
:100A8000AF919F918F917F916F915F914F913F9126
:100A90002F910F900FBE0F901F9018951F920F92DD
:100AA0000FB60F9211242F938F939F93EF93FF9381
:100AB000E0914202F09143028081E0914802F0917E
:100AC000490282FD1BC0908180914B028F5F8F7322
:100AD00020914C02821741F0E0914B02F0E0EE5C75
:100AE000FD4F958F80934B02FF91EF919F918F91D6
:100AF0002F910F900FBE0F901F9018958081F4CF0B
:100B00001F920F920FB60F9211242F933F938F9342
:100B10009F93AF93BF9380916C0190916D01A091D1
:100B20006E01B0916F013091670123E0230F2D37E3
:100B300058F50196A11DB11D2093670180936C01AA
:100B400090936D01A0936E01B0936F018091680145
:100B500090916901A0916A01B0916B010196A11D6C
:100B6000B11D8093680190936901A0936A01B093CD
:100B70006B01BF91AF919F918F913F912F910F90FA
:100B80000FBE0F901F90189526E8230F0296A11D07
:100B9000B11DD2CF1F920F920FB60F9211242F9337
:100BA0003F934F935F936F937F938F939F93AF93F5
:100BB000BF93EF93FF938091B900887F803609F44B
:100BC0004AC0F0F5883209F4A7C018F5803109F45D
:100BD0009BC0B8F4882309F4F9C0883009F494C0A4
:100BE000FF91EF91BF91AF919F918F917F916F9105
:100BF0005F914F913F912F910F900FBE0F901F90DB
:100C00001895883109F488C0803251F780930B021F
:100C100014C0803409F49DC040F48033B9F38833A4
:100C2000F9F680930B0285ECB0C0803509F485C0DD
:100C3000883509F496C0883499F60E945203D0CFC3
:100C4000883909F48CC038F5883729F050F4883693
:100C500011F0803729F683E080930D02109266012F
:100C600057C0883809F47BC0803919F0803809F002
:100C7000B7CF80916601803208F071C0E0916601C3
:100C800081E08E0F809366018091BB00F0E0EA5B0B
:100C9000FE4F80833DC0803B39F0E0F4803A09F498
:100CA00079C0883A09F09CCF84E080930D021092BD
:100CB000450110924401E091C301F091C4010995EE
:100CC0008091440181110FC081E080934401109212
:100CD000240109C0803C09F4A6CF883C09F4A3CFC5
:100CE000883B09F07DCFE091450181E08E0F809334
:100CF0004501F0E0EC5DFE4F80818093BB00909158
:100D000045018091440129C08091E8018093BB0096
:100D100085EC8093BC0064CF90910A028091090217
:100D2000981758F5E0910A0281E08E0F80930A022D
:100D3000F0E0E751FE4F8081E9CFE0910A0281E0C7
:100D40008E0F80930A028091BB00F0E0E751FE4FC6
:100D5000808390910A02809109029817C8F285E871
:100D6000D8CFE0910A0281E08E0F80930A02809131
:100D7000BB00F0E0E751FE4F808380910C028111AF
:100D80005CCF81E08093E70184EA8093BC001092FD
:100D90000D0226CF85EC8093BC0010920D0280914D
:100DA0006601803230F4E0916601F0E0EA5BFE4FCC
:100DB00010826091660170E0E091C101F091C20182
:100DC00086E491E00995109266010ACF10920B0219
:100DD00034CFE2E3F2E01382128288EE93E0A0E0E7
:100DE000B0E084839583A683B78324E031E0318328
:100DF000208325EC30E03587248724EC30E03787EA
:100E0000268720EC30E0318B208B21EC30E0338BD7
:100E1000228B22EC30E0358B248B26EC30E0378BB4
:100E2000268B118E128E138E148EEFECF2E013824D
:100E3000128284839583A683B78386E191E09183B0
:100E400080831092DB020895789484B5826084BD1B
:100E500084B5816084BD85B5826085BD85B58160BE
:100E600085BD80916E00816080936E00109281003C
:100E700080918100826080938100809181008160F7
:100E800080938100809180008160809380008091B8
:100E9000B10084608093B1008091B0008160809344
:100EA000B00080917A00846080937A0080917A000B
:100EB000826080937A0080917A00816080937A00CA
:100EC00080917A00806880937A001092C1008BE054
:100ED0000E942F018DE00E942F0189E00E942F01C6
:100EE00088E00E942F0161E088E00E9451020E9488
:100EF0009D02F5E7AF2EF1E0BF2EC0E0A8E49A2EE8
:100F000088248394B0E47B2EC12CD12CDFE7ED2E16
:100F1000D3E4FD2E8C2F0E941F040E949D0290920C
:100F2000B80080920E027092300210920F0210925E
:100F3000310281E00E94870081110FC0D091DB0255
:100F40000E94B1048E778D2B0E940204D093DB02A5
:100F50000E94B1048B7F0E940204F501C192D192DC
:100F6000E192F1925F01C0A2D1A2E2A2F3A2CF5F0F
:100F7000C83081F6C0929501D0929601E092970117
:100F8000F0929801C092B901D092BA01E092BB01EF
:100F9000F092BC010E943803E0914202F0914302BA
:100FA00082E08083E0913E02F0913F021082E09166
:100FB0004002F091410280E1808310924A02E09168
:100FC0004602F091470286E08083E0914402F0916E
:100FD0004502808180618083E0914402F091450266
:100FE000808188608083E0914402F0914502808195
:100FF00080688083E0914402F091450280818F7D7A
:1010000080832FB7F89480916C0190916D01A0912D
:101010006E01B0916F012FBF8093BD019093BE010F
:10102000A093BF01B093C0017FE0772E6624639444
:10103000E0E45E2E2FB7F89480916C0190916D01E1
:10104000A0916E01B0916F012FBF4091BD015091F1
:10105000BE016091BF017091C0016C017D01C41A95
:10106000D50AE60AF70AB701A601483E53406105D2
:10107000710508F436C18093BD019093BE01A09321
:10108000BF01B093C001C5E7D1E0412C842D0E947F
:101090001F040E9436044B015C0189929992A99227
:1010A000B99260920E025092300210920F0210928A
:1010B000310265EE8FEC92E00E94D30381E00E9442
:1010C000870081115AC18091DB02813009F422C16D
:1010D00008F40FC1803809F418C1813809F410C12F
:1010E00041E063E080E40E94E4001092C601809336
:1010F000C501833009F041C18FEC92E00E94930357
:10110000182F00E08FEC92E00E9493037C01E02A0C
:10111000F12A8FEC92E00E949303970190E1A901DC
:10112000220F331F57FF02C041E334279150B9F714
:10113000831323C182E0E826B70190E080E00E949B
:10114000FE0A2DE434EF49EF5AE30E94B50B20E08C
:1011500030E040EC50E40E941A0A6B017C0120E070
:1011600030E0A9010E94870A87FD19C120E030E024
:1011700048EC52E4C701B6010E94B00B18160CF4FB
:1011800052C120E030E04EE753E4C501B4010E94B3
:10119000870A811104C00E9436044B015C0120E0E3
:1011A00030E04FE753E4C701B6010E94870A81117E
:1011B00004C1C12CD12C4FE7E42E43E4F42EC8A285
:1011C000D9A2EAA2FBA24394E8E04E125FCFC091FD
:1011D0007401C79DE00111248EE00E94CF028C0FA4
:1011E0009D1F24E0959587952A95E1F7F82E809329
:1011F0007401C0917301C79DE001112480E10E9438
:10120000CF02C80FD91F34E0D595C7953A95E1F7BD
:10121000C09373016F2D70E090E080E00E94FE0AA1
:101220006B017C01C0929501D0929601E0929701EA
:10123000F0929801BE017727072E000C880B990BBE
:101240000E94000B20E030E44CE955E40E94B50B0D
:1012500020E030E040E85AE30E94B50B20E030E4A3
:101260004CE155E40E941A0A20E030E049E353E4DF
:101270000E948C0A6093B9017093BA018093BB01FC
:101280009093BC0180917201882309F44DC02AE932
:1012900039E949E351E4C701B6010E94B00B1816C1
:1012A000F4F5809170019091710101969093710114
:1012B0008093700180917001909171018D32914005
:1012C00084F061E089E00E94510261E088E00E94C0
:1012D00051020E94380360E088E00E94510210929F
:1012E00072010E94B801882309F4A4CE0E94D70499
:1012F000A1CE6DE170E080E090E00E940603F0CEA8
:101300006FE070E080E090E0F8CF69E070E080E0AE
:1013100090E0F3CF64E070E080E090E0EECF1092D8
:10132000710110927001C6CF23E333E343E351E42C
:10133000C701B6010E94870A87FF1AC08091700119
:101340009091710101969093710180937001809149
:101350007001909171014F9724F26092720160E0E8
:1013600089E00E9451021092710110927001B9CF70
:101370001092710110927001EACF20E030E04EE748
:1013800053E4C501B4010E94870AC12CD12C5FE748
:10139000E52E53E4F52E882309F4FDCE0ACFC12CA7
:1013A000D12C760120E030E04EE753E4C501B401D2
:1013B0000E94870A882309F4EECE20E030E04FE750
:1013C00053E4C501B4010E94870A882309F4F1CED1
:1013D00020E030E0A901C501B4010E94B00B18164D
:1013E0000CF0EDCE20E030E040EA52E4C501B4015B
:1013F0000E94870A87FFE3CEA501940160E070E0B8
:1014000088EC91E40E941A0A2AE939E949E15EEB85
:101410000E94B50B9B01AC01C701B6010E941B0ADB
:101420006B017C01CCCEC12CD12C88ECE82E82E45F
:10143000F82EB8CF5058BB27AA270E94320A0C9426
:10144000760B0E94680B38F00E946F0B20F039F485
:101450009F3F19F426F40C94650B0EF4E095E7FB1E
:101460000C945F0BE92F0E94870B58F3BA176207A1
:1014700073078407950720F079F4A6F50C94A90B5F
:101480000EF4E0950B2EBA2FA02D0B01B90190019F
:101490000C01CA01A0011124FF27591B99F0593FE3
:1014A00050F4503E68F11A16F040A22F232F342F2B
:1014B0004427585FF3CF469537952795A795F04079
:1014C0005395C9F77EF41F16BA0B620B730B840B8E
:1014D000BAF09150A1F0FF0FBB1F661F771F881F46
:1014E000C2F70EC0BA0F621F731F841F48F487959E
:1014F00077956795B795F7959E3F08F0B0CF939590
:10150000880F08F09927EE0F9795879508950E9408
:101510003B0B08F481E008950E94A00A0C94760B1E
:101520000E946F0B58F00E94680B40F029F45F3F57
:1015300029F00C945F0B51110C94AA0B0C94650BC1
:101540000E94870B68F39923B1F3552391F3951B00
:10155000550BBB27AA2762177307840738F09F5FD4
:101560005F4F220F331F441FAA1FA9F335D00E2E41
:101570003AF0E0E832D091505040E695001CCAF7AE
:101580002BD0FE2F29D0660F771F881FBB1F261771
:1015900037074807AB07B0E809F0BB0B802DBF0148
:1015A000FF2793585F4F3AF09E3F510578F00C9417
:1015B0005F0B0C94AA0B5F3FE4F3983ED4F386953F
:1015C00077956795B795F7959F5FC9F7880F911D38
:1015D0009695879597F90895E1E0660F771F881F24
:1015E000BB1F621773078407BA0720F0621B730BD7
:1015F000840BBA0BEE1F88F7E0950895E89409C0B4
:1016000097FB3EF490958095709561957F4F8F4F35
:101610009F4F9923A9F0F92F96E9BB279395F6954B
:10162000879577956795B795F111F8CFFAF4BB0FC9
:1016300011F460FF1BC06F5F7F4F8F4F9F4F16C02D
:10164000882311F096E911C0772321F09EE8872FB7
:10165000762F05C0662371F096E8862F70E060E073
:101660002AF09A95660F771F881FDAF7880F9695EC
:10167000879597F90895990F0008550FAA0BE0E890
:10168000FEEF16161706E807F907C0F01216130644
:10169000E407F50798F0621B730B840B950B39F484
:1016A0000A2661F0232B242B252B21F408950A26EA
:1016B00009F4A140A6958FEF811D811D089597F92A
:1016C0009F6780E870E060E008959FEF80EC0895E8
:1016D00000240A9416161706180609060895002411
:1016E0000A9412161306140605060895092E03948B
:1016F000000C11F4882352F0BB0F40F4BF2B11F4FF
:1017000060FF04C06F5F7F4F8F4F9F4F089557FD5D
:101710009058440F551F59F05F3F71F04795880F5F
:1017200097FB991F61F09F3F79F0879508951216F6
:1017300013061406551FF2CF4695F1DF08C01616A2
:1017400017061806991FF1CF869571056105089453
:101750000895E894BB2766277727CB0197F908956A
:101760000E943B0B08F48FEF08950E94C80B0C9465
:10177000760B0E94680B38F00E946F0B20F09523C7
:1017800011F00C945F0B0C94650B11240C94AA0BB4
:101790000E94870B70F3959FC1F3950F50E0551F82
:1017A000629FF001729FBB27F00DB11D639FAA27B6
:1017B000F00DB11DAA1F649F6627B00DA11D661F05
:1017C000829F2227B00DA11D621F739FB00DA11D26
:1017D000621F839FA00D611D221F749F3327A00DE0
:1017E000611D231F849F600D211D822F762F6A2F7C
:1017F00011249F5750409AF0F1F088234AF0EE0FE1
:10180000FF1FBB1F661F771F881F91505040A9F70D
:101810009E3F510580F00C945F0B0C94AA0B5F3F28
:10182000E4F3983ED4F3869577956795B795F79549
:10183000E7959F5FC1F7FE2B880F911D96958795C1
:1018400097F90895EE0FFF1F0590F491E02D09948C
:04185000F894FFCF3A
:1018540000000000E4014E017B013102AC018A0169
:101864009E0100000000D303A6031C048303260189
:041874009303840353
:00000001FF
