:100000000C945D000C9485000C9485000C947C0588
:100010000C947C050C947C050C9485000C94850054
:100020000C9485000C9485000C9485000C9485003C
:100030000C9485000C9485000C9485000C9485002C
:100040000C9432050C9485000C94A7040C94810444
:100050000C9485000C9485000C9485000C9485000C
:100060000C9486050C948500000000080002010035
:100070000003040700000000000000000000000072
:10008000250028002B0000000000240027002A0083
:10009000040404040404040402020202020203032E
:1000A0000303030301020408102040800102040836
:1000B00010200102040810202E0A11241FBECFEFC9
:1000C000D8E0DEBFCDBF11E0A0E0B1E0E8E3FAE1A7
:1000D00002C005900D92A432B107D9F723E0A4E243
:1000E000B1E001C01D92AF39B207E1F710E0CDE5F4
:1000F000D0E004C02197FE010E940F0DCC35D1073E
:10010000C9F70E94DA070C941A0D0C940000809134
:10011000C20190E02091C301821B9109089590E0F3
:10012000FC01EC55FF4F2491FC01E057FF4F8491F7
:10013000882399F090E0880F991FFC01EA57FF4F40
:10014000A591B491FC01E458FF4F859194918FB72C
:10015000F894EC91E22BEC938FBF0895CF92DF924D
:10016000EF92FF920F931F93CF93DF936C017A016D
:100170008B01C0E0D0E0CE15DF0589F0D8016D918C
:100180008D01D601ED91FC910190F081E02DC60129
:100190000995892B11F47E0102C02196ECCFC7018D
:1001A000DF91CF911F910F91FF90EF90DF90CF9053
:1001B0000895FC01538D448D252F30E0842F90E06D
:1001C000821B930B541710F0CF9608950197089552
:1001D000FC01918D828D981761F0828DDF01A80F4F
:1001E000B11D5D968C91928D9F5F9F73928F90E071
:1001F00008958FEF9FEF0895FC01918D828D9817E0
:1002000031F0828DE80FF11D858D90E008958FEF1C
:100210009FEF0895FC01918D228D892F90E0805CE5
:100220009F4F821B91098F73992708958FE292E067
:100230000E940A0121E0892B09F420E0822F089511
:10024000FC01848DDF01A80FB11DA35ABF4F2C9173
:10025000848D90E001968F739927848FA689B78942
:100260002C93A089B1898C9180648C93938D848D1B
:10027000981306C00288F389E02D80818F7D8083EA
:100280000895EF92FF920F931F93CF93DF93EC01AA
:1002900081E0888F9B8D8C8D981305C0E889F98942
:1002A000808185FD24C0F62E0B8D10E00F5F1F4F5F
:1002B0000F731127E02E8C8DE8120CC00FB607FCCF
:1002C000FACFE889F989808185FFF5CFCE010E94B8
:1002D0002001F1CF8B8DFE01E80FF11DE35AFF4F96
:1002E000F0820B8FEA89FB898081806207C0EE89EA
:1002F000FF896083E889F98980818064808381E057
:1003000090E0DF91CF911F910F91FF90EF900895B2
:10031000CF93DF93EC01888D8823C9F0EA89FB89AC
:10032000808185FD05C0A889B9898C9186FD0FC0A3
:100330000FB607FCF5CF808185FFF2CFA889B98978
:100340008C9185FFEDCFCE010E942001E7CFDF9198
:10035000CF91089590E0FC01E859FF4F3491FC01E2
:10036000EC55FF4F2491FC01E057FF4FE491EE2341
:1003700009F43BC0332339F1333091F038F4313094
:10038000A9F0323001F584B58F7D12C0373091F07D
:100390003830A1F03430B9F4809180008F7D03C0F3
:1003A000809180008F77809380000DC084B58F7717
:1003B00084BD09C08091B0008F7703C08091B000E8
:1003C0008F7D8093B000F0E0EE0FFF1FE458FF4FE9
:1003D000A591B4918FB7F894EC91611103C0209569
:1003E0002E2301C02E2B2C938FBF08958E3008F042
:1003F0008E508770806480937C0080917A00806446
:1004000080937A0080917A0086FDFCCF80917800FD
:100410002091790090E0922B08953FB7F894809155
:100420006E0190916F01A0917001B091710126B59C
:10043000A89B05C02F3F19F00196A11DB11D3FBF1C
:10044000BA2FA92F982F8827820F911DA11DB11DAA
:10045000BC01CD0142E0660F771F881F991F4A95A6
:10046000D1F708950895CF93DF93009729F1EC0118
:10047000C05CDF4F888199810097F1F0DC01ED913C
:10048000FC910190F081E02D69EF099588819981B7
:10049000DC01ED91FC910190F081E02D62E0099585
:1004A00088819981DC01ED91FC910190F081E02D32
:1004B00065E0DF91CF910994DF91CF910895AF92DC
:1004C000BF92CF92DF92EF92FF920F931F93CF9341
:1004D000DF93009709F47EC0FC01E058FF4FE080F5
:1004E000EE2009F477C0319600811181D801119670
:1004F000FC901197DC90EC01C05CDF4F8881998102
:10050000009709F467C0DC01ED91FC910190F08146
:10051000E02D60EF099588819981DC01ED91FC91D6
:100520000190F081E02D69E7099588819981DC01CE
:10053000ED91FC910190F081E02D6D2D0995888160
:100540009981DC01ED91FC910190F081E02D6F2DFE
:1005500009950E5F1F4FC12CD12CF12CB2E0EB1A84
:10056000F108CE14DF0410F55801F80161918F01F4
:1005700088819981DC01ED91FC916F770190F08188
:10058000E02D0995F501608170E0660F672F661F09
:10059000770B88819981DC01ED91FC910190F081CC
:1005A000E02D0995BFEFCB1ADB0ADBCF888199815B
:1005B000DC01ED91FC910190F081E02D67EFDF917E
:1005C000CF911F910F91FF90EF90DF90CF90BF9050
:1005D000AF900994DF91CF911F910F91FF90EF9011
:1005E000DF90CF90BF90AF9008950895089508953B
:1005F0000895089508950895089585ED8093BC00A9
:100600008091BC0084FDFCCF10920A0208954091B5
:100610004601262F30E0240F311D21323105DCF454
:1006200020910A022430C9F4FC0180E090E0861792
:1006300058F4309146012191DC01AC5DBE4FA30F0F
:10064000B11D2C930196F3CF80914601680F609302
:10065000460180E0089581E0089582E008951092B7
:100660000A0281E0809309021092E40161E082E1D4
:100670000E94AA0161E083E10E94AA01E9EBF0E097
:1006800080818E7F808380818D7F808388E48093CA
:10069000B80085E48093BC0008950895E091C301FB
:1006A0008091C201E81730F4F0E0EC53FE4F8081F6
:1006B00090E008958FEF9FEF08959091C30180918E
:1006C000C201981750F4E92FF0E0EC53FE4F20815F
:1006D00030E09F5F9093C30102C02FEF3FEFC9014D
:1006E0000895CF92DF92EF92FF920F931F93CF93D3
:1006F000DF937C01262F972F8A0180910B0288239C
:1007000091F0C62FD72F6E01C40ED51ECC15DD0576
:1007100071F06991D701ED91FC910190F081E02D8C
:10072000C7010995F3CF642F822F0E940703C801E8
:10073000DF91CF911F910F91FF90EF90DF90CF90BD
:100740000895CF93DF931F92CDB7DEB769832091D1
:100750000B022223D1F020912E02203240F021E022
:1007600030E0FC013383228380E090E015C080916B
:100770000C02E82FF0E0E35FFD4F998190838F5FDB
:1007800080930C0280932E0205C061E0CE01019699
:100790000E94070381E090E00F90DF91CF910895D0
:1007A000089580E090E00895CF93C82F81E0809372
:1007B0000B0280E480932D0210920C0210922E0204
:1007C00066EE8CEC92E00E94A1036C2F8CEC92E020
:1007D0000E94A10381E0CF910C94B40691E0909324
:1007E0000B0290E790932D0210920C0210922E02B1
:1007F00061E070E001C0660F8A95EAF78CEC92E048
:100800000E94A10381E00C94B40681E080930B0266
:1008100080E480932D0210920C0210922E0267EE5B
:100820008CEC92E00E94A10381E00E94B406882330
:1008300011F08FEF089541E061E080E40E9411071C
:100840008091C20190E02091C301821B9109019720
:1008500081F78CEC92E00E945D030895CF938FE2C4
:1008600092E00E940A01892B09F441C08FE292E0D4
:100870000E94E800853429F16CF48334A9F08434B3
:1008800071F748E450E066E771E08FE292E00E9481
:10089000AE00E5CF863411F1833509F761E08BE0D6
:1008A0000E94AA0161E01FC0C0E08C2F0E94EE03ED
:1008B0000E94050484600E94D403CF5FC830A9F76A
:1008C000CECFC0E08C2F0E94EE030E9405048B7FE8
:1008D0000E94D403CF5FC830A9F7C1CF60E08BE09E
:1008E0000E94AA0160E08DE00E94AA01B8CFCF91DA
:1008F00008950E94160181110C942E0408950E94FF
:10090000150D1F920F920FB60F9211242F933F9344
:100910004F935F936F937F938F939F93AF93BF9307
:10092000EF93FF938FE292E00E942001FF91EF91FD
:10093000BF91AF919F918F917F916F915F914F91F7
:100940003F912F910F900FBE0F901F9018951F92FF
:100950000F920FB60F9211242F938F939F93EF93C3
:10096000FF93E0913F02F09140028081E0914502C7
:10097000F091460282FD12C09081809148028F5F03
:100980008F7320914902821751F0E0914802F0E004
:10099000E15DFD4F958F8093480201C08081FF91FA
:1009A000EF919F918F912F910F900FBE0F901F90FD
:1009B00018958F929F92AF92BF92CF92DF92EF9253
:1009C000FF926B017C010E940D024B015C01C1147E
:1009D000D104E104F104F1F00E940D02DC01CB012D
:1009E00088199909AA09BB09883E9340A105B10558
:1009F00070F321E0C21AD108E108F10888EE880EF0
:100A000083E0981EA11CB11CC114D104E104F104BF
:100A100019F7DDCFFF90EF90DF90CF90BF90AF90B0
:100A20009F908F900895CF93DF93D82FC0E0CD177C
:100A3000B1F061E08DE00E94AA0164E670E080E020
:100A400090E00E94D90460E08DE00E94AA0164E673
:100A500070E080E090E00E94D904CF5FE8CFDF91A2
:100A6000CF9108951F920F920FB60F9211242F93DA
:100A70003F938F939F93AF93BF9380917201909117
:100A80007301A0917401B091750130916D0123E063
:100A9000230F2D3720F40196A11DB11D05C026E8B6
:100AA000230F0296A11DB11D20936D018093720149
:100AB00090937301A0937401B093750180916E01BE
:100AC00090916F01A0917001B09171010196A11DEB
:100AD000B11D80936E0190936F01A0937001B0934C
:100AE0007101BF91AF919F918F913F912F910F9085
:100AF0000FBE0F901F9018951F920F920FB60F9276
:100B000011240F900FBE0F901F9018951F920F92F7
:100B10000FB60F9211242F933F934F935F936F93D0
:100B20007F938F939F93AF93BF93EF93FF938091A6
:100B3000B900887F803609F49CC068F5883209F4D2
:100B40005BC090F4803109F454C038F4882309F470
:100B5000F6C0883009F44DC0F6C0883109F44CC0A5
:100B6000803209F45DC0EFC0803409F468C048F4F5
:100B7000803309F455C0883309F0E5C0809308023A
:100B8000D8C0803509F44FC0883509F45DC0883479
:100B900009F0D9C0D6C0883909F4C7C0A8F488378D
:100BA00009F467C038F4883609F463C0803709F463
:100BB00060C0C9C0883809F4B8C0803909F45FC082
:100BC000803809F0C0C05BC0803B09F486C038F4AF
:100BD000803A09F466C0883A09F47FC0B4C0803C0A
:100BE00009F4A7C0883C09F4A4C0883B09F48AC072
:100BF000AAC08091E50110C0909107028091060281
:100C0000981770F5E091070281E08E0F809307023C
:100C1000F0E0EA51FE4F80818093BB0085EC86C0F6
:100C2000809308028EC0E091070281E08E0F8093CE
:100C300007028091BB00F0E0EA51FE4F8083909163
:100C40000702809106026EC0E091070281E08E0FDC
:100C5000809307028091BB00F0E0EA51FE4F808351
:100C60008091090281116DC081E08093E40184EAE2
:100C700061C083E080930A0210926A01CFCF809115
:100C80006A01803208F051C0E0916A0181E08E0F64
:100C900080936A018091BB00F0E0E65BFE4F8083A9
:100CA000BDCF85EC8093BC0010920A0280916A014E
:100CB000803230F4E0916A01F0E0E65BFE4F108292
:100CC00060916A0170E0E0914801F09149018AE485
:100CD00091E0099510926A0136C084E080930A027F
:100CE0001092470110924601E0914401F0914501B4
:100CF000099580914601811105C081E080934601EC
:100D000010922401E091470181E08E0F809347010A
:100D1000F0E0EC5DFE4F80818093BB009091470135
:100D200080914601981708F479CF85E88093BC003C
:100D30000AC085EC8093BC0010920A0204C0109295
:100D400008020E94FD02FF91EF91BF91AF919F9128
:100D50008F917F916F915F914F913F912F910F9064
:100D60000FBE0F901F901895382F20912E02909152
:100D70002D02213208F049C080910A028111FCCF76
:100D800042E040930A02309309023FEF3093080299
:100D90001092070220930602ADE0B2E046EE51E069
:100DA000FA013E2F341B321718F43D913193F9CFDD
:100DB0001092E5012091E501990F922B9093E501A6
:100DC0009091E401913061F41092E4019091E50179
:100DD0009093BB009091BC0093FDF8CF95EC01C0BF
:100DE00095EE9093BC0090910A029230E1F39091BD
:100DF00008029F3F79F080910802803241F0809193
:100E00000802803331F084E005C081E003C082E055
:100E100001C083E010920C0210922E0210920B027D
:100E2000089590910A029111FCCF613208F060E2BE
:100E300091E090930A02409309022FEF2093080259
:100E400010920702260F209306029093E5019091DD
:100E5000E501880F892B8093E5018091E4018130C1
:100E600061F41092E4018091E5018093BB008091D0
:100E7000BC0083FDF8CF85EC01C085EE8093BC00FB
:100E800080910A028130E1F380910702861710F405
:100E900060910702A6EEB1E024EC31E0F9018E2F5B
:100EA000821B861718F48D918193F9CF1092C3019C
:100EB0006093C201862F0895CF93DF9381E08093E2
:100EC0000B0280E480932D0210920C0210922E02ED
:100ED00063EE8CEC92E00E94A10381E00E94B406D4
:100EE000882329F060E070E08FE793E460C0809190
:100EF000D8028130A1F048F0803861F08138A9F43F
:100F00006BE070E080E090E00EC065E570E080E0AE
:100F100090E009C06BE270E080E090E004C066E120
:100F200070E080E090E00E94D90441E063E080E45A
:100F30000E9411078091C20190E02091C301821BA1
:100F40009109039779F68CEC92E00E945D03C82F1B
:100F50008CEC92E00E945D0360E070E07C2FEB017E
:100F6000C82BD92B8CEC92E00E945D039E0190E18E
:100F7000A901440F551F37FF04C09A0161E33627CA
:100F800001C09A019150A1F78313ACCFBE0180E05C
:100F900090E00E94EB0B27EB33EB4FE25BE30E9408
:100FA000A20C26E636E64BE352E40E94070BDF91E3
:100FB000CF910895789484B5826084BD84B58160B2
:100FC00084BD85B5826085BD85B5816085BD809114
:100FD0006E00816080936E0010928100809181008C
:100FE0008260809381008091810081608093810084
:100FF000809180008160809380008091B100846046
:101000008093B1008091B00081608093B0008091A6
:101010007A00846080937A0080917A008260809365
:101020007A0080917A00816080937A0080917A00C2
:10103000806880937A001092C1008BE00E948F003C
:101040008DE00E948F001092C3011092C201109295
:101050000C0210922E020E942F03C0E018E401E05F
:10106000F0E4FF2E8C2F0E94EE031092C301109229
:10107000C20110920C0210922E020E942F031093B4
:10108000B80000930B02F0922D0210920C02109205
:101090002E0281E00E94B40681110FC0D091D802C7
:1010A0000E9405048E778D2B0E94D403D093D80222
:1010B0000E9405048B7F0E94D403CF5FC83091F655
:1010C000E0913F02F091400282E08083E0913B0298
:1010D000F0913C021082E0913D02F0913E0280E1ED
:1010E000808310924702E0914302F091440286E02F
:1010F0008083E0914102F09142028081806180838F
:10110000E0914102F0914202808188608083E09109
:101110004102F0914202808180688083E091410227
:10112000F091420280818F7D80838CE00E941305C4
:1011300066246394E0E45E2E2FB7F89480917201E8
:1011400090917301A0917401B09175012FBF4091EE
:10115000BE015091BF016091C0017091C1018C012D
:101160009D01041B150B260B370BB901A801483E46
:1011700053406105710508F469C18093BE019093E5
:10118000BF01A093C001B093C10181E00E9413058B
:1011900076E7E72E71E0F72E712C872D0E94EE0383
:1011A0000E945C074B015C01F7016193719381938D
:1011B00091937F0160920B0250922D0210920C02CB
:1011C00010922E0265EE8CEC92E00E94A10381E069
:1011D0000E94B406811183C08091D8028130A1F0B1
:1011E00048F0803861F08138A9F46FE070E080E069
:1011F00090E00EC06DE170E080E090E009C069E031
:1012000070E080E090E004C064E070E080E090E096
:101210000E94D90441E063E080E40E9411078091BC
:10122000C20190E02091C301821B9109039709F04C
:1012300056C08CEC92E00E945D03C82F8CEC92E0CB
:101240000E945D03DC2EC12CE601C82BD92B8CEC4F
:1012500092E00E945D039E0190E1A901440F551F99
:1012600037FF04C09A01F1E33F2701C09A01915072
:10127000A1F7831334C0BE0102E0602780E090E054
:101280000E94EB0B2DE434EF49EF5AE30E94A20CCD
:1012900020E030E040EC50E40E94070BEB01182FF7
:1012A000092F20E030E0A9010E94740B87FD39C0AE
:1012B00020E030E048EC52E4BE01812F902F0E94E4
:1012C0009D0C18160CF4C5C020E030E04EE753E446
:1012D000C501B4010E94740B811113C00EC020E03F
:1012E00030E04EE753E4C501B4010E94740B811154
:1012F00013C0C0E0D0E01FE703E40E945C074B018D
:101300005C0120E030E04FE753E4BE01812F902FD5
:101310000E94740B811113C0C0E0D0E01FE703E40A
:1013200043C0C0E0D0E010E000E020E030E04EE755
:1013300053E4C501B4010E94740B8823F1F220E04C
:1013400030E04FE753E4C501B4010E94740B8823D9
:1013500019F320E030E0A901C501B4010E949D0C01
:10136000181614F520E030E040EA52E4C501B4015B
:101370000E94740B87FF18C0A501940160E070E023
:1013800088EC91E40E94070B2AE939E949E15EEB18
:101390000E94A20C9B01AC01BE01812F902F0E94E4
:1013A000080BEB01182F092FCE01A12FB02FF70149
:1013B00080A391A3A2A3B3A37394F8E07F12EDCE10
:1013C0008EE00E94F601BC01990F880B990B0E94D8
:1013D000ED0B20E030E048EC51E40E94A20C20E04C
:1013E00030E040E85AE30E94A20C609396017093AB
:1013F0009701809398019093990180E10E94F601F2
:10140000BC01990F880B990B0E94ED0B20E030E096
:1014100040E85AE30E94A20C20E030E44CE955E495
:101420000E94A20C20E030E44CE155E40E94070B3E
:1014300020E030E049E353E40E94790B6093BA0165
:101440007093BB018093BC019093BD010E9479040D
:1014500073CEC0E0D0E018EC02E467CFEFE2F2E038
:101460001382128248EE53E060E070E044835583BB
:101470006683778384E091E09183808385EC90E0BC
:101480009587848784EC90E09787868780EC90E04E
:10149000918B808B81EC90E0938B828B82EC90E03F
:1014A000958B848B86EC90E0978B868B118E128EB9
:1014B000138E148E89ED92E010921A031092190384
:1014C00090931D0380931C0320E430E030931F03AE
:1014D00020931E03109220031092210310922303E5
:1014E00010922203109224031092260310922503D7
:1014F000109228031092270310922A0310922903B6
:1015000010922C0310922B0310922E0310922D0395
:101510001092300310922F03109232031092310375
:10152000109238031092370310923A031092390345
:1015300010923C0310923B0310923E0310923D0325
:1015400010924C0310924B0310921B0310925903FC
:1015500010925B0310925A0310929E032CEF32E01C
:101560003093400320933F032BEF32E0309342034C
:101570002093410328EF32E0309344032093430348
:1015800027EF32E030934603209345032AEF32E001
:10159000309348032093470329EF32E030934A0306
:1015A0002093490326EF32E030934E0320934D03FE
:1015B00025EF32E03093500320934F032FE532E0C4
:1015C0003093520320935103909334038093330359
:1015D00023E332E030935403209353039093360374
:1015E0008093350382E392E09093560380935503F2
:1015F000ECECF2E013821282448355836683778396
:1016000086E191E0918380831092D802089550582A
:10161000BB27AA270E941F0B0C94630C0E94550C39
:1016200038F00E945C0C20F039F49F3F19F426F446
:101630000C94520C0EF4E095E7FB0C944C0CE92F43
:101640000E94740C58F3BA17620773078407950752
:1016500020F079F4A6F50C94960C0EF4E0950B2E80
:10166000BA2FA02D0B01B90190010C01CA01A001F4
:101670001124FF27591B99F0593F50F4503E68F14F
:101680001A16F040A22F232F342F4427585FF3CF90
:10169000469537952795A795F0405395C9F77EF461
:1016A0001F16BA0B620B730B840BBAF09150A1F0AA
:1016B000FF0FBB1F661F771F881FC2F70EC0BA0F30
:1016C000621F731F841F48F4879577956795B795B8
:1016D000F7959E3F08F0B0CF9395880F08F09927B3
:1016E000EE0F9795879508950E94280C08F481E0E5
:1016F00008950E948D0B0C94630C0E945C0C58F0B2
:101700000E94550C40F029F45F3F29F00C944C0CDA
:1017100051110C94970C0C94520C0E94740C68F3A9
:101720009923B1F3552391F3951B550BBB27AA279A
:1017300062177307840738F09F5F5F4F220F331FD4
:10174000441FAA1FA9F335D00E2E3AF0E0E832D09C
:1017500091505040E695001CCAF72BD0FE2F29D09F
:10176000660F771F881FBB1F261737074807AB0771
:10177000B0E809F0BB0B802DBF01FF2793585F4FE6
:101780003AF09E3F510578F00C944C0C0C94970C59
:101790005F3FE4F3983ED4F3869577956795B795C8
:1017A000F7959F5FC9F7880F911D9695879597F9D3
:1017B0000895E1E0660F771F881FBB1F621773074C
:1017C0008407BA0720F0621B730B840BBA0BEE1F61
:1017D00088F7E0950895E89409C097FB3EF490954A
:1017E0008095709561957F4F8F4F9F4F9923A9F0FA
:1017F000F92F96E9BB279395F69587957795679589
:10180000B795F111F8CFFAF4BB0F11F460FF1BC0CC
:101810006F5F7F4F8F4F9F4F16C0882311F096E95F
:1018200011C0772321F09EE8872F762F05C066230D
:1018300071F096E8862F70E060E02AF09A95660FC6
:10184000771F881FDAF7880F9695879597F908957F
:10185000990F0008550FAA0BE0E8FEEF16161706C1
:10186000E807F907C0F012161306E407F50798F029
:10187000621B730B840B950B39F40A2661F0232B42
:10188000242B252B21F408950A2609F4A140A695BE
:101890008FEF811D811D089597F99F6780E870E0A3
:1018A00060E008959FEF80EC089500240A941616D6
:1018B000170618060906089500240A94121613063E
:1018C000140605060895092E0394000C11F48823CC
:1018D00052F0BB0F40F4BF2B11F460FF04C06F5FE8
:1018E0007F4F8F4F9F4F089557FD9058440F551FBE
:1018F00059F05F3F71F04795880F97FB991F61F092
:101900009F3F79F087950895121613061406551F08
:10191000F2CF4695F1DF08C0161617061806991F74
:10192000F1CF86957105610508940895E894BB2769
:1019300066277727CB0197F908950E94280C08F4B1
:101940008FEF08950E94B50C0C94630C0E94550C07
:1019500038F00E945C0C20F0952311F00C944C0C94
:101960000C94520C11240C94970C0E94740C70F37C
:10197000959FC1F3950F50E0551F629FF001729F34
:10198000BB27F00DB11D639FAA27F00DB11DAA1F43
:10199000649F6627B00DA11D661F829F2227B00D90
:1019A000A11D621F739FB00DA11D621F839FA00D1B
:1019B000611D221F749F3327A00D611D231F849F6B
:1019C000600D211D822F762F6A2F11249F575040C2
:1019D0009AF0F1F088234AF0EE0FFF1FBB1F661F3D
:1019E000771F881F91505040A9F79E3F510580F006
:1019F0000C944C0C0C94970C5F3FE4F3983ED4F39A
:101A0000869577956795B795F795E7959F5FC1F7A9
:101A1000FE2B880F911D9695879597F90895EE0FE7
:101A2000FF1F0590F491E02D099481E090E0F89477
:081A30000C941A0DF894FFCF8D
:101A3800000000004101AE00D90088010A01E80059
:101A4800FC0000000000A1037103D1034D038700CF
:041A58005D034E03D9
:00000001FF
