:100000000C945D000C9485000C9485000C94850084
:100010000C9485000C9485000C9485000C9485004C
:100020000C9485000C9485000C9485000C9485003C
:100030000C9485000C9485000C9485000C9485002C
:100040000C948D050C9485000C945B050C9435057F
:100050000C9485000C9485000C9485000C9485000C
:100060000C94D7050C9485000000000800020100E4
:100070000003040700000000000000000000000072
:10008000250028002B0000000000240027002A0083
:10009000040404040404040402020202020203032E
:1000A0000303030301020408102040800102040836
:1000B0001020010204081020F60611241FBECFEF05
:1000C000D8E0DEBFCDBF11E0A0E0B1E0ECE7F9E1A0
:1000D00002C005900D92A432B107D9F723E0A4E243
:1000E000B1E001C01D92A330B207E1F710E0CDE509
:1000F000D0E004C02197FE010E94B60CCC35D10798
:10010000C9F70E9431070C94BC0C0C940000982F86
:100110002091580281E0213208F043C080913402DE
:100120008111FCCF8091570232E0309334029093DA
:1001300033029FEF909332021092310220933002EB
:10014000A7E3B2E0E0E1F2E090E0291331C01092C1
:100150000F0290910F02880F892B80930F028091DC
:100160000E02813049F510920E0280910F028093A9
:10017000BB008091BC0083FDF8CF85EC8093BC0070
:10018000809134028230E1F3809132028F3FB1F0EE
:10019000809132028032A1F080913202803391F05E
:1001A00084E010923602109258021092350208959F
:1001B0003D9131939F5FC9CF85EEE0CF80E0F1CFD5
:1001C00082E0EFCF83E0EDCF8091EC019091ED01E3
:1001D000891B990B08950895089590E0FC01EC5552
:1001E000FF4F249180579F4FFC018491882399F001
:1001F00090E0880F991FFC01EA57FF4FA591B49139
:10020000FC01E458FF4F859194918FB7F894EC91DD
:10021000E22BEC938FBF0895AF92BF92CF92DF9203
:10022000EF92FF920F931F93CF93DF936C017B01AB
:100230008B01040F151FEB015E01AE18BF08C0173C
:10024000D10759F06991D601ED91FC910190F081AF
:10025000E02DC6010995892B79F7C501DF91CF9172
:100260001F910F91FF90EF90DF90CF90BF90AF90D4
:100270000895FC01538D448D252F30E0842F90E0AC
:10028000821B930B541710F0CF9608950197089591
:10029000FC01918D828D981761F0A28DAE0FBF2F5A
:1002A000B11D5D968C91928D9F5F9F73928F90E0B0
:1002B00008958FEF9FEF0895FC01918D828D98171F
:1002C00031F0828DE80FF11D858D90E008958FEF5C
:1002D0009FEF0895FC01918D228D892F90E0805C25
:1002E0009F4F821B91098F739927089589E592E0AA
:1002F0000E946A0121E0892B09F420E0822F0895F1
:10030000FC01A48DA80FB92FB11DA35ABF4F2C918A
:10031000848D90E001968F739927848FA689B78981
:100320002C93A089B1898C91837080648C93938D78
:10033000848D981306C00288F389E02D80818F7D1B
:1003400080830895EF92FF920F931F93CF93DF93D3
:10035000EC0181E0888F9B8D8C8D98131AC0E88901
:10036000F989808185FF15C09FB7F894EE89FF89D0
:100370006083E889F98980818370806480839FBF6E
:1003800081E090E0DF91CF911F910F91FF90EF906E
:100390000895F62E0B8D10E00F5F1F4F0F7311277E
:1003A000E02E8C8D8E110CC00FB607FCFACFE889B9
:1003B000F989808185FFF5CFCE010E948001F1CFC0
:1003C000EB8DEC0FFD2FF11DE35AFF4FF0829FB72D
:1003D000F8940B8FEA89FB8980818062CFCFCF931D
:1003E000DF93EC01888D8823B9F0AA89BB89E8895D
:1003F000F9898C9185FD03C0808186FD0DC00FB603
:1004000007FCF7CF8C9185FFF2CF808185FFEDCF80
:10041000CE010E948001E9CFDF91CF91089590E055
:10042000FC01E859FF4F2491FC01EC55FF4F34913A
:10043000FC01E057FF4FE491EE23C9F0222339F08D
:10044000233001F1A8F4213019F1223029F1F0E034
:10045000EE0FFF1FE458FF4FA591B4918FB7F894AA
:10046000EC91611126C030953E233C938FBF0895D7
:100470002730A9F02830C9F0243049F78091800056
:100480008F7D03C0809180008F7780938000DFCFC5
:1004900084B58F7784BDDBCF84B58F7DFBCF809112
:1004A000B0008F778093B000D2CF8091B0008F7D65
:1004B000F9CF3E2BDACF1092ED011092EC011092A1
:1004C0003602109258021092340281E08093330277
:1004D00010920E0261E082E10E940F0261E083E16E
:1004E0000E940F02E9EBF0E080818E7F80838081A3
:1004F0008D7F808388E48093B80085E48093BC007E
:100500008BEE90E09093EB018093EA018CEE90E00B
:100510009093E9018093E80108958E508064809360
:100520007C0080917A00806480937A0080917A00C8
:1005300086FDFCCF809178009091790008953FB7B7
:10054000F8948091680190916901A0916A01B0913D
:100550006B0126B5A89B05C02F3F19F00196A11D80
:10056000B11D3FBFBA2FA92F982F8827BC01CD01FD
:10057000620F711D811D911D42E0660F771F881F5C
:10058000991F4A95D1F708958F929F92AF92BF928B
:10059000CF92DF92EF92FF924B015C010E949F028B
:1005A0006B017C010E949F026C197D098E099F09D5
:1005B000683E734081059105A8F321E0821A9108F5
:1005C000A108B10888EEC80E83E0D81EE11CF11C1A
:1005D00081149104A104B10429F7FF90EF90DF90FA
:1005E000CF90BF90AF909F908F90089585ED8093AE
:1005F000BC008091BC0084FDFCCF109234020895B1
:1006000020914401260F3327331F21323105ECF4AA
:1006100020913402FC0190E080E0243069F082E017
:100620000895A09144012191AC014C5D5E4FA40F4F
:10063000B52FB11D2C930196861798F38091440134
:10064000680F6093440180E0089581E00895089563
:10065000E091ED018091EC01E81730F4F0E0E25117
:10066000FE4F808190E008958FEF9FEF0895909165
:10067000ED018091EC012FEF3FEF981748F4E92F3F
:10068000F0E0E251FE4F208130E09F5F9093ED015A
:10069000C9010895CF92DF92EF92FF920F931F93BB
:1006A000CF93DF937C01CB018A0120913502222375
:1006B00089F0EB016B01C40ED51ECC15DD0569F088
:1006C0006991D701ED91FC910190F081E02DC70176
:1006D0000995F3CF642F0E940003C801DF91CF91E9
:1006E0001F910F91FF90EF90DF90CF900895CF93DF
:1006F000DF931F92CDB7DEB76983209135022223A5
:10070000F9F020915802203258F021E030E0FC014D
:100710003383228390E080E00F90DF91CF910895A2
:1007200080913602E82FF0E0E95CFD4F99819083DB
:100730008F5F809336028093580281E090E0ECCF87
:1007400061E0CE0101960E940003F7CFCF93C82F3E
:1007500081E08093350280E4809357021092360244
:100760001092580266EE86EF92E00E9477036C2F9B
:1007700086EF92E00E94770381E0CF910C9487008E
:1007800090E080E00895CF93DF93D82FC0E061E040
:100790008DE00E940F0264E670E080E090E00E942D
:1007A000C40260E08DE00E940F0264E670E080E029
:1007B00090E00E94C402CF5FDC13E9CFDF91CF91BC
:1007C000089591E09093350290E79093570210922C
:1007D00036021092580261E070E001C0660F8A95FF
:1007E000EAF786EF92E00E94770381E00C9487009D
:1007F000909134029111FCCF982F813208F090E251
:1008000081E080933402809333022FEF20933202F1
:1008100010923102290F2093300280930F028091B1
:100820000F02806880930F0280910E02813019F5CB
:1008300010920E0280910F028093BB008091BC0049
:1008400083FDF8CF85EC8093BC0080913402813029
:10085000E1F380913102891710F490913102A0E107
:10086000B2E0EEEEF1E080E0891307C01092ED01F6
:100870008093EC01089585EEE6CF2D9121938F5F53
:10088000F3CF81E08093350280E480935702109289
:1008900036021092580267EE86EF92E00E947703CC
:1008A00081E00E948700882311F08FEF089581E096
:1008B00090E00E94F8038091EC019091ED01891B7A
:1008C000990B019791F786EF92E00E943703089504
:1008D000CF9389E592E00E946A01892B09F441C017
:1008E00089E592E00E944801853441F16CF483343B
:1008F000C1F0843471F748E450E063E771E089E5C2
:1009000092E00E940C01E5CF863429F1833509F786
:1009100061E08BE00E940F0261E08DE00E940F0217
:10092000D8CFC0E08C2F0E94E1030E944104846074
:100930000E94A603CF5FC830A9F7CBCFC0E08C2FB1
:100940000E94E1030E9441048B7F0E94A603CF5FB7
:10095000C830A9F7BECF60E08BE00E940F0260E0D4
:10096000DCCFCF9108950E94760181110C94680428
:100970000895CF93DF9381E08093350280E48093E4
:100980005702109236021092580263EE86EF92E000
:100990000E94770381E00E948700882339F060E09D
:1009A00070E08FE793E4DF91CF9108958091020387
:1009B000813009F450C008F442C0803809F446C0C0
:1009C000813809F44DC083E090E00E94F8038091E3
:1009D000EC019091ED01891B990B039701F786EFCC
:1009E00092E00E943703D82F40E0C42F86EF92E0B8
:1009F0000E943703C82BD92B86EF92E00E94370361
:100A00009E0190E1A901220F331F57FF02C041E36D
:100A100034279150B9F78313C2CFBE0190E080E034
:100A20000E94920B27EB33EB4FE25BE30E94490CF1
:100A300026E636E64BE352E40E94AE0AB4CF65E503
:100A400070E080E090E00E94C402BDCF6BE270E0F5
:100A500080E090E0F8CF66E170E080E090E0F3CFD6
:100A60006BE070E080E090E0EECF1F920F920FB647
:100A70000F9211242F933F934F935F936F937F9324
:100A80008F939F93AF93BF93EF93FF9389E592E08A
:100A90000E948001FF91EF91BF91AF919F918F9143
:100AA0007F916F915F914F913F912F910F900FBE6A
:100AB0000F901F9018951F920F920FB60F9211244E
:100AC0002F938F939F93EF93FF93E0916902F0919F
:100AD0006A028081E0916F02F091700282FD1BC07A
:100AE0009081809172028F5F8F73209173028217C1
:100AF00041F0E0917202F0E0E75AFD4F958F80934C
:100B00007202FF91EF919F918F912F910F900FBEE5
:100B10000F901F9018958081F4CF1F920F920FB6FF
:100B20000F9211242F933F938F939F93AF93BF9373
:100B300080916C0190916D01A0916E01B0916F0157
:100B40003091670123E0230F2D3758F50196A11D41
:100B5000B11D2093670180936C0190936D01A09368
:100B60006E01B0936F018091680190916901A0912D
:100B70006A01B0916B010196A11DB11D80936801BE
:100B800090936901A0936A01B0936B01BF91AF91FB
:100B90009F918F913F912F910F900FBE0F901F90BB
:100BA000189526E8230F0296A11DB11DD2CF1F92E2
:100BB0000F920FB60F9211242F933F934F935F9391
:100BC0006F937F938F939F93AF93BF93EF93FF9315
:100BD0008091B900887F803609F44AC0F0F58832E8
:100BE00009F4A7C018F5803109F49BC0B8F4882334
:100BF00009F4F9C0883009F494C0FF91EF91BF91D6
:100C0000AF919F918F917F916F915F914F913F91A4
:100C10002F910F900FBE0F901F901895883109F4F7
:100C200088C0803251F78093320214C0803409F4B6
:100C30009DC040F48033B9F38833F9F680933202D3
:100C400085ECB0C0803509F485C0883509F496C0BC
:100C5000883499F60E94F602D0CF883909F48CC006
:100C600038F5883729F050F4883611F0803729F6A6
:100C700083E0809334021092660157C0883809F4EB
:100C80007BC0803919F0803809F0B7CF80916601B8
:100C9000803208F071C0E091660181E08E0F809390
:100CA00066018091BB00F0E0EA5BFE4F80833DC0AF
:100CB000803B39F0E0F4803A09F479C0883A09F0D1
:100CC0009CCF84E08093340210924501109244013D
:100CD000E091EA01F091EB010995809144018111C5
:100CE0000FC081E0809344011092240109C0803C30
:100CF00009F4A6CF883C09F4A3CF883B09F07DCF47
:100D0000E091450181E08E0F80934501F0E0EC5DBC
:100D1000FE4F80818093BB009091450180914401FA
:100D200029C080910F028093BB0085EC8093BC00AA
:100D300064CF9091310280913002981758F5E0917C
:100D4000310281E08E0F80933102F0E0E05FFD4FD1
:100D50008081E9CFE091310281E08E0F80933102F2
:100D60008091BB00F0E0E05FFD4F80839091310205
:100D7000809130029817C8F285E8D8CFE09131020F
:100D800081E08E0F809331028091BB00F0E0E05F44
:100D9000FD4F80838091330281115CCF81E080938D
:100DA0000E0284EA8093BC001092340226CF85ECB8
:100DB0008093BC001092340280916601803230F43E
:100DC000E0916601F0E0EA5BFE4F108260916601FF
:100DD00070E0E091E801F091E90186E491E0099585
:100DE000109266010ACF1092320234CFE9E5F2E0A8
:100DF0001382128288EE93E0A0E0B0E084839583B2
:100E0000A683B78324E031E03183208325EC30E0F2
:100E10003587248724EC30E03787268720EC30E0C4
:100E2000318B208B21EC30E0338B228B22EC30E0B5
:100E3000358B248B26EC30E0378B268B118E128E6F
:100E4000138E148EE6EFF2E0138212828483958370
:100E5000A683B78386E191E0918380831092020399
:100E60000895789484B5826084BD84B5816084BD22
:100E700085B5826085BD85B5816085BD80916E0038
:100E8000816080936E001092810080918100826069
:100E900080938100809181008160809381008091A6
:100EA00080008160809380008091B1008460809395
:100EB000B1008091B00081608093B00080917A0091
:100EC000846080937A0080917A00826080937A00B7
:100ED00080917A00816080937A0080917A008068A6
:100EE00080937A001092C1008BE00E94ED008DE0AB
:100EF0000E94ED0089E00E94ED0088E00E94ED0074
:100F000061E088E00E940F020E945B02A3E7AA2E24
:100F1000A1E0BA2EC0E0B8E49B2E88248394D0E4EC
:100F20007D2EC12CD12C1FE7E12E13E4F12E8C2F46
:100F30000E94E1030E945B029092B8008092350209
:100F400070925702109236021092580281E00E946D
:100F5000870081110FC0D09102030E9441048E7757
:100F60008D2B0E94A603D09302030E9441048B7F25
:100F70000E94A603F501C192D192E192F1925F0124
:100F8000C0A2D1A2E2A2F3A2CF5FC83081F6C09284
:100F90009301D0929401E0929501F0929601C09253
:100FA000B701D092B801E092B901F092BA01E09194
:100FB0006902F0916A0282E08083E0916502F0911B
:100FC00066021082E0916702F091680280E18083FE
:100FD00010927102E0916D02F0916E0286E08083C2
:100FE000E0916B02F0916C02808180618083E091DE
:100FF0006B02F0916C02808188608083E0916B02CB
:10100000F0916C02808180688083E0916B02F091A6
:101010006C0280818F7D808385E00E94C3032FB79F
:10102000F89480916C0190916D01A0916E01B09146
:101030006F012FBF8093E4019093E501A093E60137
:10104000B093E701C3EED1E0F0E43F2E2FB7F89460
:1010500080916C0190916D01A0916E01B0916F0132
:101060002FBF4091E4015091E5016091E60170913C
:10107000E7016C017D01C41AD50AE60AF70AB70137
:10108000A601443651056105710520F18093E40104
:101090009093E501A093E601B093E701D090E301BE
:1010A000ED2CF12C8EE00E948D02EE0CFF1CF7015E
:1010B000E153FE4F9183808380E10E948D02F7010E
:1010C000E554FE4F9183808381E08D0D8A3050F48A
:1010D0008093E3010E947601882309F4B7CF0E9430
:1010E0006804B4CF1092E30181E00E94C30373E768
:1010F000C72E71E0D72E212C822D0E94E1030E9481
:10110000B9044B015C01F60181929192A192B192D6
:101110006F01F1E0F09335023092570210923602DF
:101120001092580265EE86EF92E00E94770381E00C
:101130000E9487008111B5C180910203813009F4BA
:101140006BC108F458C1803809F461C1813809F4D1
:1011500059C183E090E00E94F8038091EC019091E6
:10116000ED01891B990B039709F09BC186EF92E073
:101170000E943703182F00E086EF92E00E943703A9
:101180007C01E02AF12A86EF92E00E943703970162
:1011900090E1A901220F331F57FF02C041E334271A
:1011A0009150B9F783137DC182E0E826B70190E042
:1011B00080E00E94920B2DE434EF49EF5AE30E9445
:1011C000490C20E030E040EC50E40E94AE0A2B01D4
:1011D0003C0120E030E0A9010E941B0B87FD73C198
:1011E00020E030E048EC52E4C301B2010E94440C1C
:1011F00018160CF4ACC120E030E04EE753E4C50112
:10120000B4010E941B0B811104C00E94B9044B0160
:101210005C0120E030E04FE753E4C301B2010E94DB
:101220001B0B81115EC1412C512C9FE7692E93E469
:10123000792EF60140A251A262A273A22394F8E093
:101240002F125ACF6091CF017091D001E090BB0175
:10125000F090BC01E1EDF1E0ADEBB1E08191919155
:10126000680F791F8D919D91E80EF91ECE17DF074B
:10127000A9F790E080E00E94920B20E030E048EC7B
:1012800051E40E94490C20E030E040E251E40E9429
:10129000200B20E030E040E85AE30E94490C4B016B
:1012A0005C01B70190E080E00E94920B20E030E406
:1012B0004CE955E40E94490C20E030E040E251E462
:1012C0000E94200B20E030E040E85AE30E94490CE5
:1012D00020E030E44CE155E40E94AE0A20E030E02A
:1012E00049E353E40E94200B6B017C014090930181
:1012F00050909401609095017090960120E030E04C
:101300004FE753E4C301B2010E941B0B87FF89C062
:10131000A3019201C501B4010E94AF0A20E030E0B0
:1013200040E05FE30E94490C609393017093940145
:1013300080939501909396018090B7019090B801A9
:10134000A090B901B090BA0120E030E04FE753E43B
:10135000C501B4010E941B0B87FF6CC0A50194015D
:10136000C701B6010E94AF0A20E030E040E05FE331
:101370000E94490C6093B7017093B8018093B90142
:101380009093BA01609193017091940180919501BD
:101390009091960120917201222309F459C02AE903
:1013A00039E949E351E40E94440C18160CF04BC093
:1013B00080917001909171010196909371018093D9
:1013C000700180917001909171018D3291400CF407
:1013D00081CE61E089E00E940F0261E088E00E9416
:1013E0000F0283E00E94C30360E088E00E940F02C6
:1013F000109272016FCE6DE170E080E090E00E948B
:10140000C402A7CE6FE070E080E090E0F8CF69E022
:1014100070E080E090E0F3CF64E070E080E090E086
:10142000EECF8092930190929401A0929501B09298
:10143000960182CFC092B701D092B801E092B90173
:10144000F092BA019FCF1092710110927001B9CF42
:1014500023E333E343E351E40E941B0B87FF1CC0EB
:101460008091700190917101019690937101809328
:10147000700180917001909171014F970CF42ACE08
:1014800081E08093720160E089E00E940F02109277
:101490007101109270011ECE1092710110927001B4
:1014A000E8CF20E030E04EE753E4C501B4010E94EC
:1014B0001B0B412C512C2FE7622E23E4722E882324
:1014C00009F4A3CEB0CE412C512C320120E030E003
:1014D0004EE753E4C501B4010E941B0B882309F4B5
:1014E00094CE20E030E04FE753E4C501B4010E9400
:1014F0001B0B882309F497CE20E030E0A901C50139
:10150000B4010E94440C18160CF093CE20E030E099
:1015100040EA52E4C501B4010E941B0B87FF89CE4B
:10152000A501940160E070E088EC91E40E94AE0AAD
:101530002AE939E949E15EEB0E94490C9B01AC01C3
:10154000C301B2010E94AF0A2B013C0172CE412CB3
:10155000512C88EC682E82E4782EB8CF5058BB27E7
:10156000AA270E94C60A0C940A0C0E94FC0B38F0B1
:101570000E94030C20F039F49F3F19F426F40C94D8
:10158000F90B0EF4E095E7FB0C94F30BE92F0E94A6
:101590001B0C58F3BA17620773078407950720F0EE
:1015A00079F4A6F50C943D0C0EF4E0950B2EBA2FB1
:1015B000A02D0B01B90190010C01CA01A001112459
:1015C000FF27591B99F0593F50F4503E68F11A1605
:1015D000F040A22F232F342F4427585FF3CF469596
:1015E00037952795A795F0405395C9F77EF41F16B8
:1015F000BA0B620B730B840BBAF09150A1F0FF0F82
:10160000BB1F661F771F881FC2F70EC0BA0F621F6D
:10161000731F841F48F4879577956795B795F7955D
:101620009E3F08F0B0CF9395880F08F09927EE0FF2
:101630009795879508950E94CF0B08F481E008954F
:101640000E94340B0C940A0C0E94030C58F00E9468
:10165000FC0B40F029F45F3F29F00C94F30B51117F
:101660000C943E0C0C94F90B0E941B0C68F399230C
:10167000B1F3552391F3951B550BBB27AA2762178E
:101680007307840738F09F5F5F4F220F331F441F9B
:10169000AA1FA9F335D00E2E3AF0E0E832D09150CF
:1016A0005040E695001CCAF72BD0FE2F29D0660FBC
:1016B000771F881FBB1F261737074807AB07B0E8FF
:1016C00009F0BB0B802DBF01FF2793585F4F3AF005
:1016D0009E3F510578F00C94F30B0C943E0C5F3F49
:1016E000E4F3983ED4F3869577956795B795F7958B
:1016F0009F5FC9F7880F911D9695879597F9089573
:10170000E1E0660F771F881FBB1F6217730784070E
:10171000BA0720F0621B730B840BBA0BEE1F88F71D
:10172000E0950895E89409C097FB3EF49095809564
:10173000709561957F4F8F4F9F4F9923A9F0F92F97
:1017400096E9BB279395F695879577956795B79515
:10175000F111F8CFFAF4BB0F11F460FF1BC06F5FFB
:101760007F4F8F4F9F4F16C0882311F096E911C00D
:10177000772321F09EE8872F762F05C0662371F02E
:1017800096E8862F70E060E02AF09A95660F771F42
:10179000881FDAF7880F9695879597F90895990F1E
:1017A0000008550FAA0BE0E8FEEF16161706E8072B
:1017B000F907C0F012161306E407F50798F0621B4C
:1017C000730B840B950B39F40A2661F0232B242B21
:1017D000252B21F408950A2609F4A140A6958FEF40
:1017E000811D811D089597F99F6780E870E060E092
:1017F00008959FEF80EC089500240A9416161706AA
:1018000018060906089500240A94121613061406F1
:1018100005060895092E0394000C11F4882352F054
:10182000BB0F40F4BF2B11F460FF04C06F5F7F4F0C
:101830008F4F9F4F089557FD9058440F551F59F0F3
:101840005F3F71F04795880F97FB991F61F09F3FAD
:1018500079F087950895121613061406551FF2CFD6
:101860004695F1DF08C0161617061806991FF1CF26
:1018700086957105610508940895E894BB2766274D
:101880007727CB0197F908950E94CF0B08F48FEFCB
:1018900008950E945C0C0C940A0C0E94FC0B38F01A
:1018A0000E94030C20F0952311F00C94F30B0C9480
:1018B000F90B11240C943E0C0E941B0C70F3959FA5
:1018C000C1F3950F50E0551F629FF001729FBB2737
:1018D000F00DB11D639FAA27F00DB11DAA1F649FD3
:1018E0006627B00DA11D661F829F2227B00DA11D86
:1018F000621F739FB00DA11D621F839FA00D611D0C
:10190000221F749F3327A00D611D231F849F600D2C
:10191000211D822F762F6A2F11249F5750409AF055
:10192000F1F088234AF0EE0FFF1FBB1F661F771FE1
:10193000881F91505040A9F79E3F510580F00C94AC
:10194000F30B0C943E0C5F3FE4F3983ED4F3869582
:1019500077956795B795F795E7959F5FC1F7FE2B4C
:10196000880F911D9695879597F90895EE0FFF1FA3
:0C1970000590F491E02D0994F894FFCF4D
:10197C0000000000A2010C013901EF016A014801CD
:10198C005C010000000077034A03C0032703E40056
:04199C0037032803E2
:00000001FF
