:100000000C945D000C9485000C9485000C944203C4
:100010000C9442030C9442030C9485000C948500CC
:100020000C9485000C9485000C9485000C9485003C
:100030000C9485000C9485000C9485000C9485002C
:100040000C94F8020C9485000C94A2060C947C0687
:100050000C9485000C9485000C9485000C9485000C
:100060000C944C030C948500000000080002010071
:100070000003040700000000000000000000000072
:10008000250028002B0000000000240027002A0083
:10009000040404040404040402020202020203032E
:1000A0000303030301020408102040800102040836
:1000B0001020010204081020AA0A11241FBECFEF4D
:1000C000D8E0DEBFCDBF11E0A0E0B1E0E0E3FBE1AE
:1000D00002C005900D92A432B107D9F723E0A4E243
:1000E000B1E001C01D92A23AB207E1F710E0CDE500
:1000F000D0E004C02197FE010E948B0DCC35D107C2
:10010000C9F70E94D1070C94960D0C9400003FB7DC
:10011000F89480916A0190916B01A0916C01B0916B
:100120006D0126B5A89B05C02F3F19F00196A11DB2
:10013000B11D3FBFBA2FA92F982F8827820F911D7D
:10014000A11DB11DBC01CD0142E0660F771F881FC4
:10015000991F4A95D1F708950895CF93DF9300979B
:1001600029F1EC01C05CDF4F888199810097F1F0A3
:10017000DC01ED91FC910190F081E02D69EF099592
:1001800088819981DC01ED91FC910190F081E02D55
:1001900062E0099588819981DC01ED91FC910190E3
:1001A000F081E02D65E0DF91CF910994DF91CF914F
:1001B0000895AF92BF92CF92DF92EF92FF920F938A
:1001C0001F93CF93DF93009709F47FC0FC01E058A1
:1001D000FF4FE080EE2009F478C0EC01C05CDF4FF7
:1001E000A881B981109709F470C0FC01EF57FF4F47
:1001F00000811181F801F180D080ED91FC9111977F
:100200000190F081E02D60EFCD0109958881998101
:10021000DC01ED91FC910190F081E02D69E70995F9
:1002200088819981DC01ED91FC910190F081E02DB4
:100230006D2D099588819981DC01ED91FC910190EA
:10024000F081E02D6F2D09950E5F1F4FC12CD12C31
:10025000F12CB2E0EB1AF108CE14DF0410F55801CE
:1002600088819981F80161918F016F77DC01ED91AF
:10027000FC910190F081E02D0995F501608170E01D
:10028000660F672F661F770B88819981DC01ED91DE
:10029000FC910190F081E02D0995BFEFCB1ADB0AAC
:1002A000DBCF88819981DC01ED91FC910190F08197
:1002B000E02D67EFDF91CF911F910F91FF90EF90AD
:1002C000DF90CF90BF90AF900994DF91CF911F91B5
:1002D0000F91FF90EF90DF90CF90BF90AF90089577
:1002E0000895089508950895089508950895089526
:1002F00085ED8093BC008091BC0084FDFCCF109202
:100300000D02089540914401262F30E0240F311D45
:1003100021323105DCF420910D022430C9F4FC01B6
:1003200080E090E0861758F4309144012191DC017F
:10033000AC5DBE4FA30FB11D2C930196F3CF8091FE
:100340004401680F6093440180E0089581E00895BE
:1003500082E00895089508950895E091C60180917E
:10036000C501E81730F4F0E0E953FE4F808190E0DA
:1003700008958FEF9FEF08959091C6018091C50178
:10038000981750F4E92FF0E0E953FE4F208130E058
:100390009F5F9093C60102C02FEF3FEFC901089500
:1003A0008091C50190E02091C601821B91090895BA
:1003B000CF92DF92EF92FF920F931F93CF93DF9331
:1003C0007C01CB018A0120910E02222389F0EB01EE
:1003D0006B01C40ED51ECC15DD0569F06991D701FE
:1003E000ED91FC910190F081E02DC7010995F3CFCB
:1003F000642F0E948201C801DF91CF911F910F915C
:10040000FF90EF90DF90CF900895CF93DF931F92EE
:10041000CDB7DEB7698320910E022223D1F020915F
:100420003102203240F021E030E0FC0133832283AE
:1004300080E090E015C080910F02E82FF0E0E05FCF
:10044000FD4F998190838F5F80930F0280933102DB
:1004500005C061E0CE0101960E94820181E090E03A
:100460000F90DF91CF910895089580E090E0089576
:10047000FC01848DDF01A80FB11DA35ABF4F2C9141
:10048000848D90E001968F739927848FA689B78910
:100490002C93A089B1898C91837080648C93938D07
:1004A000848D981306C00288F389E02D80818F7DAA
:1004B0008083089590E0FC01E859FF4F2491FC01EE
:1004C000EC55FF4F3491FC01E057FF4FE491EE23D0
:1004D00009F43CC0222339F1233091F038F4213063
:1004E000A9F0223001F584B58F7D12C0273091F03C
:1004F0002830A1F02430B9F4809180008F7D03C0B2
:10050000809180008F77809380000DC084B58F77B5
:1005100084BD09C08091B0008F7703C08091B00086
:100520008F7D8093B000F0E0EE0FFF1FE458FF4F87
:10053000A591B4919FB7F894611104C08C91309546
:10054000382302C0EC913E2B3C939FBF08958E3020
:1005500008F08E508770806480937C0080917A00D0
:10056000806480937A0080917A0086FDFCCF809130
:1005700078002091790090E0922B08958F929F92BD
:10058000AF92BF92CF92DF92EF92FF926B017C010C
:100590000E9487004B015C01C114D104E104F10405
:1005A000F1F00E948700DC01CB0188199909AA09A2
:1005B000BB09883E9340A105B10570F321E0C21A42
:1005C000D108E108F10888EE880E83E0981EA11C8E
:1005D000B11CC114D104E104F10419F7DDCFFF907F
:1005E000EF90DF90CF90BF90AF909F908F90089545
:1005F0001F920F920FB60F9211242F933F938F9358
:100600009F93AF93BF938091720190917301A091DA
:100610007401B09175013091690123E0230F2D37EA
:1006200020F40196A11DB11D05C026E8230F0296F6
:10063000A11DB11D209369018093720190937301F4
:10064000A0937401B093750180916A0190916B0140
:10065000A0916C01B0916D010196A11DB11D809317
:100660006A0190936B01A0936C01B0936D01BF91EF
:10067000AF919F918F913F912F910F900FBE0F904F
:100680001F9018951F920F920FB60F9211240F9082
:100690000FBE0F901F9018951F920F920FB60F92DA
:1006A00011242F933F934F935F936F937F938F9377
:1006B0009F93AF93BF93EF93FF938091B900887F8F
:1006C000803609F49CC068F5883209F45BC090F468
:1006D000803109F454C038F4882309F4F6C0883016
:1006E00009F44DC0F6C0883109F44CC0803209F4D9
:1006F0005DC0EFC0803409F468C048F4803309F469
:1007000055C0883309F0E5C080930B02D8C080350E
:1007100009F44FC0883509F45DC0883409F0D9C0A8
:10072000D6C0883909F4C7C0A8F4883709F467C06F
:1007300038F4883609F463C0803709F460C0C9C052
:10074000883809F4B8C0803909F45FC0803809F0EE
:10075000C0C05BC0803B09F486C038F4803A09F41D
:1007600066C0883A09F47FC0B4C0803C09F4A7C0D1
:10077000883C09F4A4C0883B09F48AC0AAC08091CF
:10078000E80110C090910A0280910902981770F553
:10079000E0910A0281E08E0F80930A02F0E0E751B7
:1007A000FE4F80818093BB0085EC86C080930B0256
:1007B0008EC0E0910A0281E08E0F80930A02809140
:1007C000BB00F0E0E751FE4F808390910A028091D8
:1007D00009026EC0E0910A0281E08E0F80930A0246
:1007E0008091BB00F0E0E751FE4F808380910C02C6
:1007F00081116DC081E08093E70184EA61C083E0EC
:1008000080930D0210926601CFCF809166018032F5
:1008100008F051C0E091660181E08E0F809366017F
:100820008091BB00F0E0EA5BFE4F8083BDCF85EC9A
:100830008093BC0010920D0280916601803230F4EA
:10084000E0916601F0E0EA5BFE4F10826091660184
:1008500070E0E0917001F091710186E491E00995FA
:100860001092660136C084E080930D02109245011B
:1008700010924401E0916E01F0916F010995809111
:100880004401811105C081E080934401109224014C
:10089000E091450181E08E0F80934501F0E0EC5D31
:1008A000FE4F80818093BB0090914501809144016F
:1008B000981708F479CF85E88093BC000AC085ECCE
:1008C0008093BC0010920D0204C010920B020E9493
:1008D0007801FF91EF91BF91AF919F918F917F919F
:1008E0006F915F914F913F912F910F900FBE0F909D
:1008F0001F90189510920D0281E080930C021092C7
:10090000E70161E082E10E945A0261E083E10E9416
:100910005A02E9EBF0E080818E7F808380818D7FB9
:10092000808388E48093B80085E48093BC000895B8
:10093000CF93DF93D82FC0E0CD17B1F061E08DE009
:100940000E945A0264E670E080E090E00E94BE02DD
:1009500060E08DE00E945A0264E670E080E090E082
:100960000E94BE02CF5FE8CFDF91CF91089591E062
:1009700090930E0290E79093300210920F02109223
:10098000310261E070E001C0660F8A95EAF78FECF2
:1009900092E00E94050281E00C94D406CF9382E39A
:1009A00092E00E947A05892B09F441C082E392E02B
:1009B0000E945805853429F16CF48334A9F08434FD
:1009C00071F748E450E066E771E082E392E00E944C
:1009D0001F05E5CF863411F1833509F761E08BE01F
:1009E0000E945A0261E01FC0C0E08C2F0E94B70431
:1009F0000E948C0784600E943007CF5FC830A9F73F
:100A0000CECFC0E08C2F0E94B7040E948C078B7F52
:100A10000E943007CF5FC830A9F7C1CF60E08BE0FC
:100A20000E945A0260E08DE00E945A02B8CFCF9136
:100A300008950E94860581110C94CE040895CF92EA
:100A4000DF92EF92FF920F931F93CF93DF936C018E
:100A50007A018B01C0E0D0E0CE15DF0581F0D8012E
:100A60006D918D01D601ED91FC910190F081E02D09
:100A7000C6010995892B11F02196EECF7E01C701A1
:100A8000DF91CF911F910F91FF90EF90DF90CF906A
:100A90000895FC01538D448D252F30E0842F90E084
:100AA000821B930B541710F0CF9608950197089569
:100AB000FC01918D828D981761F0828DDF01A80F66
:100AC000B11D5D968C91928D9F5F9F73928F90E088
:100AD00008958FEF9FEF0895FC01918D828D9817F7
:100AE00031F0828DE80FF11D858D90E008958FEF34
:100AF0009FEF0895FC01918D228D892F90E0805CFD
:100B00009F4F821B91098F739927089582E392E08A
:100B10000E947A0521E0892B09F420E0822F0895B4
:100B2000CF93DF9381E080930E0280E480933002C4
:100B300010920F021092310263EE8FEC92E00E944D
:100B4000050281E00E94D406882329F060E070E06D
:100B50008FE793E45DC08091DB028130A1F048F023
:100B6000803861F08138A9F46BE070E080E090E0BB
:100B70000EC065E570E080E090E009C06BE270E0D7
:100B800080E090E004C066E170E080E090E00E94C8
:100B9000BE0241E063E080E40E944A071092C60171
:100BA0008093C501833091F68FEC92E00E94BC01E6
:100BB000C82F8FEC92E00E94BC0160E070E07C2FB7
:100BC000EB01C82BD92B8FEC92E00E94BC019E0157
:100BD00090E1A901440F551F37FF04C09A0161E35A
:100BE000362701C09A019150A1F78313AFCFBE0100
:100BF00080E090E00E94670C27EB33EB4FE25BE371
:100C00000E941E0D26E636E64BE352E40E94830B5B
:100C1000DF91CF9108950E94910DEF92FF920F9373
:100C20001F93CF93DF93EC0181E0888F9B8D8C8D98
:100C3000981305C0E889F989808185FD26C0F62EC4
:100C40000B8D10E00F5F1F4F0F731127E02E8C8D5F
:100C5000E8120CC00FB607FCFACFE889F989808149
:100C600085FFF5CFCE010E943802F1CF8B8DFE01BA
:100C7000E80FF11DE35AFF4FF0829FB7F8940B8FF6
:100C8000EA89FB89808180620AC09FB7F894EE8967
:100C9000FF896083E889F98980818370806480831B
:100CA0009FBF81E090E0DF91CF911F910F91FF9066
:100CB000EF900895CF93DF93EC01888D8823C9F0DE
:100CC000EA89FB89808185FD05C0A889B9898C9155
:100CD00086FD0FC00FB607FCF5CF808185FFF2CFF0
:100CE000A889B9898C9185FFEDCFCE010E94380289
:100CF000E7CFDF91CF9108951F920F920FB60F9219
:100D000011242F933F934F935F936F937F938F9310
:100D10009F93AF93BF93EF93FF9382E392E00E9480
:100D20003802FF91EF91BF91AF919F918F917F9189
:100D30006F915F914F913F912F910F900FBE0F9048
:100D40001F9018951F920F920FB60F9211242F9398
:100D50008F939F93EF93FF93E0914202F0914302B0
:100D60008081E0914802F091490282FD12C0908199
:100D700080914B028F5F8F7320914C02821751F04C
:100D8000E0914B02F0E0EE5CFD4F958F80934B02BB
:100D900001C08081FF91EF919F918F912F910F90D2
:100DA0000FBE0F901F901895282F309131023132CD
:100DB00008F04AC080910D028111FCCF9091300261
:100DC00042E040930D0220930C022FEF20930B0280
:100DD00010920A0230930902E0E1F2E0A9EEB1E0DC
:100DE00020E0321721F041914D932F5FFACF1092FE
:100DF000E8012091E801990F922B9093E8019091DE
:100E0000E701913061F41092E7019091E80190932D
:100E1000BB009091BC0093FDF8CF95EC01C095EE1E
:100E20009093BC0090910D029230E1F390910B02EF
:100E30009F3F79F080910B02803241F080910B024C
:100E4000803331F084E005C081E003C082E001C05E
:100E500083E010920F021092310210920E02089558
:100E6000CF93C82F81E080930E0280E480933002FC
:100E700010920F021092310266EE8FEC92E00E9407
:100E800005026C2F8FEC92E00E94050281E0CF9169
:100E90000C94D40690910D029111FCCF91E09093A7
:100EA0000D0240930C022FEF20930B0210920A02C6
:100EB000260F209309029093E8019091E801880F92
:100EC000892B8093E8018091E701813061F41092D1
:100ED000E7018091E8018093BB008091BC0083FD15
:100EE000F8CF85EC01C085EE8093BC0080910D02A7
:100EF0008130E1F380910A02861710F460910A02B2
:100F0000A9EEB1E0E7ECF1E080E0861721F09D91D9
:100F100091938F5FFACF089581E080930E0280E471
:100F20008093300210920F021092310267EE8FEC24
:100F300092E00E94050281E00E94D406882311F00D
:100F40008FEF089541E061E080E40E944A0710922B
:100F5000C6018093C501813099F78FEC92E00E9421
:100F6000BC01089590E0FC01EC55FF4F2491FC0179
:100F7000E057FF4F8491882399F090E0880F991FE4
:100F8000FC01EA57FF4FA591B491FC01E458FF4FD3
:100F9000859194918FB7F894EC91E22BEC938FBFED
:100FA0000895789484B5826084BD84B5816084BDE1
:100FB00085B5826085BD85B5816085BD80916E00F7
:100FC000816080936E001092810080918100826028
:100FD0008093810080918100816080938100809165
:100FE00080008160809380008091B1008460809354
:100FF000B1008091B00081608093B00080917A0050
:10100000846080937A0080917A00826080937A0075
:1010100080917A00816080937A0080917A00806864
:1010200080937A001092C1008BE00E94B2078DE09D
:101030000E94B20789E00E94B20788E00E94B207CE
:1010400061E088E00E945A021092C6011092C50128
:1010500010920F02109231020E947A04C0E00AEA54
:1010600011E0EBEAEE2EE1E0FE2EF8E4BF2EAA241A
:10107000A394A0E49A2E8C2F0E94B7041092C6016C
:101080001092C50110920F02109231020E947A0450
:1010900010936F0100936E01F0927101E092700164
:1010A000B092B800A0920E029092300210920F02FD
:1010B0001092310281E00E94D40681110FC0D091BC
:1010C000DB020E948C078E778D2B0E943007D09315
:1010D000DB020E948C078B7F0E943007CF5FC830F5
:1010E00051F6E0914202F091430282E08083E09168
:1010F0003E02F0913F021082E0914002F0914102E5
:1011000080E1808310924A02E0914602F09147020A
:1011100086E08083E0914402F09145028081806105
:101120008083E0914402F091450280818860808351
:10113000E0914402F0914502808180688083E091D3
:101140004402F091450280818F7D808385E00E947A
:101150009804662463942FB7F8948091720190915B
:101160007301A0917401B09175012FBF4091C1012D
:101170005091C2016091C3017091C4018C019D0125
:10118000041B150B260B370BB901A801483E534031
:101190006105710508F4D6C18093C1019093C20125
:1011A000A093C301B093C40181E00E94980476E744
:1011B000E72E71E0F72E712C872D0E94B7040E9454
:1011C00090054B015C01F7016193719381939193B9
:1011D0007F0160920E02F0E4F093300210920F0251
:1011E0001092310265EE8FEC92E00E94050281E0E0
:1011F0000E94D406811180C08091DB028130A1F071
:1012000048F0803861F08138A9F46FE070E080E048
:1012100090E00EC06DE170E080E090E009C069E010
:1012200070E080E090E004C064E070E080E090E076
:101230000E94BE0241E063E080E40E944A071092EF
:10124000C6018093C501833009F056C08FEC92E04F
:101250000E94BC01C82F8FEC92E00E94BC01DC2EE2
:10126000C12CE601C82BD92B8FEC92E00E94BC0167
:101270009E0190E1A901440F551F37FF04C09A0158
:1012800001E3302701C09A019150A1F7831334C0C4
:1012900012E0C127BE0180E090E00E94670C2DE4BF
:1012A00034EF49EF5AE30E941E0D20E030E040EC9D
:1012B00050E40E94830BEB01182F092F20E030E04F
:1012C000A9010E94F00B87FD39C020E030E048EC16
:1012D00052E4BE01812F902F0E94190D18160CF4B4
:1012E00034C120E030E04EE753E4C501B4010E9470
:1012F000F00B811113C00EC020E030E04EE753E444
:10130000C501B4010E94F00B811113C0C0E0D0E010
:101310001FE703E40E9490054B015C0120E030E0F0
:101320004FE753E4BE01812F902F0E94F00B8111F3
:1013300013C0C0E0D0E01FE703E441C0C0E0D0E04C
:1013400010E000E020E030E04EE753E4C501B401D6
:101350000E94F00B8823F1F220E030E04FE753E4E5
:10136000C501B4010E94F00B882319F320E030E09E
:10137000A901C501B4010E94190D181604F520E059
:1013800030E040EA52E4C501B4010E94F00B87FF4F
:1013900016C0A501940160E070E088EC91E40E9421
:1013A000830B2AE939E949E15EEB0E941E0D9E019B
:1013B000412F502F0E94840BEB01182F092FCE01D3
:1013C000A12FB02FF70180A391A3A2A3B3A373947D
:1013D000F8E07F12F1CE8EE00E94A702BC01990FC7
:1013E000880B990B0E94690C20E030E048EC51E436
:1013F0000E941E0D20E030E040E85AE30E941E0DDE
:101400004B015C012090960130909701409098012B
:101410005090990120E030E0A901C201B1010E9481
:10142000190D1816ACF4A2019101C501B4010E9476
:10143000840B20E030E040E05FE30E941E0D6093EB
:10144000960170939701809398019093990108C039
:101450008092960190929701A0929801B092990182
:1014600080E10E94A702BC01990F880B990B0E9492
:10147000690C20E030E44CE955E40E941E0D20E0A8
:1014800030E040E85AE30E941E0D20E030E44CE1D9
:1014900055E40E94830B20E030E049E353E40E94CE
:1014A000F50B6093BA017093BB018093BC019093DC
:1014B000BD018091C001811115C023E333E34BE3EB
:1014C00051E4C501B4010E94F00B87FF3BC060925C
:1014D000C00161E089E00E945A021092BF0110929F
:1014E000BE0130C020E030E040E451E4C501B40169
:1014F0000E94190D181654F48091BE019091BF01FD
:1015000001969093BF018093BE0104C01092BF0169
:101510001092BE018091BE019091BF01853B910563
:101520008CF060E089E00E945A0261E088E00E944D
:101530005A0283E00E94980460E088E00E945A0208
:101540001092C0010E94190506CEC0E0D0E018EC50
:1015500002E4F8CEE2E3F2E01382128248EE53E0B6
:1015600060E070E0448355836683778384E091E094
:101570009183808385EC90E09587848784EC90E06C
:101580009787868780EC90E0918B808B81EC90E050
:10159000938B828B82EC90E0958B848B86EC90E031
:1015A000978B868B118E128E138E148E8CED92E09B
:1015B00010921D0310921C039093200380931F032D
:1015C00020E430E030932203209321031092230380
:1015D00010922403109226031092250310922703E1
:1015E000109229031092280310922B0310922A03C1
:1015F00010922D0310922C0310922F0310922E03A1
:101600001092310310923003109233031092320380
:10161000109235031092340310923B0310923A0358
:1016200010923D0310923C0310923F0310923E0330
:10163000109241031092400310924F0310924E03F8
:1016400010921E0310925C0310925E0310925D03D1
:101650001092A10327E731E0309343032093420324
:1016600026E731E0309345032093440323E731E03C
:10167000309347032093460322E731E03093490338
:101680002093480325E731E030934B0320934A032E
:1016900024E731E030934D0320934C0321E731E000
:1016A000309351032093500320E731E030935303EC
:1016B0002093520329ED30E03093550320935403D7
:1016C00090933703809336032DEA30E0309357032D
:1016D0002093560390933903809338038CEA90E06B
:1016E0009093590380935803EFECF2E01382128237
:1016F000448355836683778386E191E09183808379
:101700001092DB0208955058BB27AA270E949B0B1A
:101710000C94DF0C0E94D10C38F00E94D80C20F001
:1017200039F49F3F19F426F40C94CE0C0EF4E09596
:10173000E7FB0C94C80CE92F0E94F00C58F3BA1781
:10174000620773078407950720F079F4A6F50C94D7
:10175000120D0EF4E0950B2EBA2FA02D0B01B9013E
:1017600090010C01CA01A0011124FF27591B99F017
:10177000593F50F4503E68F11A16F040A22F232F23
:10178000342F4427585FF3CF469537952795A79573
:10179000F0405395C9F77EF41F16BA0B620B730B1A
:1017A000840BBAF09150A1F0FF0FBB1F661F771F8B
:1017B000881FC2F70EC0BA0F621F731F841F48F440
:1017C000879577956795B795F7959E3F08F0B0CFC9
:1017D0009395880F08F09927EE0F979587950895B0
:1017E0000E94A40C08F481E008950E94090C0C9456
:1017F000DF0C0E94D80C58F00E94D10C40F029F464
:101800005F3F29F00C94C80C51110C94130D0C94EB
:10181000CE0C0E94F00C68F39923B1F3552391F399
:10182000951B550BBB27AA2762177307840738F04F
:101830009F5F5F4F220F331F441FAA1FA9F335D0AC
:101840000E2E3AF0E0E832D091505040E695001C60
:10185000CAF72BD0FE2F29D0660F771F881FBB1F1A
:10186000261737074807AB07B0E809F0BB0B802DF8
:10187000BF01FF2793585F4F3AF09E3F510578F024
:101880000C94C80C0C94130D5F3FE4F3983ED4F312
:10189000869577956795B795F7959F5FC9F7880FF8
:1018A000911D9695879597F90895E1E0660F771F4A
:1018B000881FBB1F621773078407BA0720F0621BDB
:1018C000730B840BBA0BEE1F88F7E0950895E8942C
:1018D00009C097FB3EF490958095709561957F4F78
:1018E0008F4F9F4F9923A9F0F92F96E9BB27939526
:1018F000F695879577956795B795F111F8CFFAF436
:10190000BB0F11F460FF1BC06F5F7F4F8F4F9F4F66
:1019100016C0882311F096E911C0772321F09EE8C4
:10192000872F762F05C0662371F096E8862F70E02A
:1019300060E02AF09A95660F771F881FDAF7880F04
:101940009695879597F90895990F0008550FAA0B5A
:10195000E0E8FEEF16161706E807F907C0F01216C2
:101960001306E407F50798F0621B730B840B950BC5
:1019700039F40A2661F0232B242B252B21F408951A
:101980000A2609F4A140A6958FEF811D811D0895B7
:1019900097F99F6780E870E060E008959FEF80EC22
:1019A000089500240A9416161706180609060895C5
:1019B00000240A9412161306140605060895092E2B
:1019C0000394000C11F4882352F0BB0F40F4BF2B9A
:1019D00011F460FF04C06F5F7F4F8F4F9F4F0895DA
:1019E00057FD9058440F551F59F05F3F71F04795D0
:1019F000880F97FB991F61F09F3F79F087950895B5
:101A0000121613061406551FF2CF4695F1DF08C0D3
:101A1000161617061806991FF1CF869571056105F0
:101A200008940895E894BB2766277727CB0197F998
:101A300008950E94A40C08F48FEF08950E94310DC0
:101A40000C94DF0C0E94D10C38F00E94D80C20F0CE
:101A5000952311F00C94C80C0C94CE0C11240C940A
:101A6000130D0E94F00C70F3959FC1F3950F50E099
:101A7000551F629FF001729FBB27F00DB11D639F40
:101A8000AA27F00DB11DAA1F649F6627B00DA11DE6
:101A9000661F829F2227B00DA11D621F739FB00D8C
:101AA000A11D621F839FA00D611D221F749F3327FC
:101AB000A00D611D231F849F600D211D822F762F95
:101AC0006A2F11249F5750409AF0F1F088234AF072
:101AD000EE0FFF1FBB1F661F771F881F91505040DE
:101AE000A9F79E3F510580F00C94C80C0C94130D7F
:101AF0005F3FE4F3983ED4F3869577956795B79565
:101B0000F795E7959F5FC1F7FE2B880F911D96957E
:101B1000879597F90895EE0FFF1F0590F491E02D3A
:101B2000099481E090E0F8940C94960DF894FFCF1E
:101B3000000000000D061F0549055A067A055805E4
:101B40006C05000000000502D8013502AC01D0018F
:041B5000BC01AD0126
:00000001FF
