:100000000C9462000C948A000C948A000C948A0070
:100010000C948A000C948A000C948A000C948A0038
:100020000C948A000C948A000C948A000C948A0028
:100030000C948A000C948A000C948A000C948A0018
:100040000C9407060C948A000C94D5050C94AF050B
:100050000C948A000C948A000C948A000C948A00F8
:100060000C9451060C948A00000000002400270024
:100070002A0000000000250028002B0000000000DE
:1000800023002600290004040404040404040202DA
:100090000202020203030303030301020408102007
:1000A0004080010204081020010204081020000012
:1000B0000008000201000003040700000000000027
:1000C0000000700711241FBECFEFD8E0DEBFCDBF08
:1000D00011E0A0E0B1E0EEEAFAE102C005900D9275
:1000E000A432B107D9F722E0A4E2B1E001C01D9229
:1000F000A33EB207E1F710E0C2E6D0E004C02197CA
:10010000FE010E944F0DC136D107C9F70E94BB07FF
:100110000C94550D0C940000982F2091300281E032
:10012000213208F043C080910C028111FCCF8091F4
:100130002F0232E030930C0290930B029FEF9093CA
:100140000A021092090220930802AFE0B2E0E8EE42
:10015000F1E090E0291331C01092E7019091E7019E
:10016000880F892B8093E7018091E601813049F562
:100170001092E6018091E7018093BB008091BC0062
:1001800083FDF8CF85EC8093BC0080910C02823017
:10019000E1F380910A028F3FB1F080910A02803230
:1001A000A1F080910A02803391F084E010920E0257
:1001B0001092300210920D0208953D9131939F5F8D
:1001C000C9CF85EEE0CF80E0F1CF82E0EFCF83E0D2
:1001D000EDCF91E090930D0280932F0210920E02CA
:1001E00010923002089590910C029111FCCF91E091
:1001F00090930C0240930B022FEF20930A0210926F
:100200000902260F209308029093E7019091E701DD
:10021000880F892B8093E7018091E6018130F9F402
:100220001092E6018091E7018093BB008091BC00B1
:1002300083FDF8CF85EC8093BC0080910C02813067
:10024000E1F380910902861710F460910902A8EE8B
:10025000B1E0E6ECF1E080E0861303C0089585EE9E
:10026000EACF9D9191938F5FF7CF8091C4019091D8
:10027000C501891B990B089508950895FF920F9366
:100280001F93CF93DF93F82E162F072FCBEDD2E0DD
:1002900088810E94E9008E819F81DC01ED91FC91B3
:1002A0000190F081E02D6F2D09958E819F81DC01F9
:1002B000ED91FC910190F081E02D602F09958E81E8
:1002C0009F81DC01ED91FC910190F081E02D612F87
:1002D000099581E00E948C0090E0DF91CF911F9101
:1002E0000F91FF900895AF92BF92CF92DF92EF925D
:1002F000FF920F931F93CF93DF936C017B018B01D0
:10030000040F151FEB015E01AE18BF08C017D1071F
:1003100059F06991D601ED91FC910190F081E02DA9
:10032000C6010995892B79F7C501DF91CF911F91FE
:100330000F91FF90EF90DF90CF90BF90AF90089516
:10034000FC01538D448D252F30E0842F90E0821BDB
:10035000930B541710F0CF96089501970895FC0160
:10036000918D828D981761F0A28DAE0FBF2FB11DB8
:100370005D968C91928D9F5F9F73928F90E0089510
:100380008FEF9FEF0895FC01918D828D981731F0CA
:10039000828DE80FF11D858D90E008958FEF9FEF1E
:1003A0000895FC01918D228D892F90E0805C9F4FF4
:1003B000821B91098F739927089581E392E00E942F
:1003C000D10121E0892B09F420E0822F0895FC015E
:1003D000A48DA80FB92FB11DA35ABF4F2C91848DA6
:1003E00090E001968F739927848FA689B7892C9303
:1003F000A089B1898C91837080648C93938D848D56
:10040000981306C00288F389E02D80818F7D808358
:100410000895EF92FF920F931F93CF93DF93EC0118
:1004200081E0888F9B8D8C8D98131AC0E889F9899B
:10043000808185FF15C09FB7F894EE89FF8960839E
:10044000E889F98980818370806480839FBF81E01F
:1004500090E0DF91CF911F910F91FF90EF90089561
:10046000F62E0B8D10E00F5F1F4F0F731127E02E3C
:100470008C8D8E110CC00FB607FCFACFE889F98974
:10048000808185FFF5CFCE010E94E701F1CFEB8D92
:10049000EC0FFD2FF11DE35AFF4FF0829FB7F89448
:1004A0000B8FEA89FB8980818062CFCFCF93DF9366
:1004B000EC01888D8823B9F0AA89BB89E889F9897C
:1004C0008C9185FD03C0808186FD0DC00FB607FCB1
:1004D000F7CF8C9185FFF2CF808185FFEDCFCE01E4
:1004E0000E94E701E9CFDF91CF910895833081F039
:1004F00028F4813099F08230A9F008958730A9F06E
:100500008830C9F08430B1F4809180008F7D03C0C1
:10051000809180008F7780938000089584B58F77D5
:1005200084BD089584B58F7DFBCF8091B0008F7717
:100530008093B00008958091B0008F7DF9CF1F9314
:10054000CF93DF93282F30E0F901E255FF4F8491DC
:10055000F901E656FF4FD491F901EA57FF4FC491D4
:10056000CC23A9F0162F81110E947602EC2FF0E027
:10057000EE0FFF1FEE58FF4FA591B4918FB7F8947F
:10058000EC91111108C0D095DE23DC938FBFDF9171
:10059000CF911F910895DE2BF8CF1092C5011092D4
:1005A000C40110920E021092300210920C0281E0EF
:1005B00080930B021092E60161E082E10E949F02AB
:1005C00061E083E10E949F02E9EBF0E080818E7F91
:1005D000808380818D7F808388E48093B80085E468
:1005E0008093BC008CE391E09093C3018093C2019F
:1005F0008DE391E09093C1018093C0010895CF9362
:10060000DF9390E0FC01E656FF4F24918A579F4FFD
:10061000FC0184918823D1F090E0880F991FFC01A0
:10062000E859FF4FA591B491FC01EE58FF4FC591D9
:10063000D491623071F49FB7F8943C91822F8095E9
:1006400083238C93E8812E2B28839FBFDF91CF914A
:1006500008958FB7F894EC912E2B2C938FBFF6CF83
:100660003FB7F8948091680190916901A0916A0167
:10067000B0916B0126B5A89B05C02F3F19F00196DC
:10068000A11DB11D3FBFBA2FA92F982F8827BC01EC
:10069000CD01620F711D811D911D42E0660F771F14
:1006A000881F991F4A95D1F708958F929F92AF9214
:1006B000BF92CF92DF92EF92FF924B015C010E94BA
:1006C00030036B017C010E9430036C197D098E0997
:1006D0009F09683E734081059105A8F321E0821AC5
:1006E0009108A108B10888EEC80E83E0D81EE11C6D
:1006F000F11C81149104A104B10429F7FF90EF903B
:10070000DF90CF90BF90AF909F908F90089585ED30
:100710008093BC008091BC0084FDFCCF10920C0241
:10072000089520914401260F3327331F21323105CC
:10073000ECF420910C02FC0190E080E0243069F0A0
:1007400082E00895A09144012191AC014C5D5E4F7F
:10075000A40FB52FB11D2C930196861798F38091A5
:100760004401680F6093440180E0089581E008959A
:100770000895E091C5018091C401E81730F4F0E0DC
:10078000EA53FE4F808190E008958FEF9FEF089528
:100790009091C5018091C4012FEF3FEF981748F465
:1007A000E92FF0E0EA53FE4F208130E09F5F909305
:1007B000C501C9010895CF92DF92EF92FF920F9386
:1007C0001F93CF93DF937C01CB018A0120910D020F
:1007D000222389F0EB016B01C40ED51ECC15DD057B
:1007E00069F06991D701ED91FC910190F081E02DC4
:1007F000C7010995F3CF642F0E949103C801DF91CF
:10080000CF911F910F91FF90EF90DF90CF900895BF
:10081000CF93DF931F92CDB7DEB7698320910D028E
:100820002223F9F020913002203258F021E030E00C
:10083000FC013383228390E080E00F90DF91CF9121
:10084000089580910E02E82FF0E0E15FFD4F99815D
:1008500090838F5F80930E028093300281E090E05E
:10086000ECCF61E0CE0101960E949103F7CFCF93C8
:10087000C82F80E40E94E90066EE8EEC92E00E94B0
:1008800008046C2F8EEC92E00E94080481E0CF9166
:100890000C948C0090E080E00895CF93DF93D82FE4
:1008A000C0E061E08DE00E949F0264E670E080E0BD
:1008B00090E00E94550360E08DE00E949F0264E694
:1008C00070E080E090E00E945503CF5FDC13E9CF39
:1008D000DF91CF910895CF93C82F80E70E94E90060
:1008E00061E070E001C0660FCA95EAF78EEC92E015
:1008F0000E94080481E0CF910C948C00CF93DF9389
:1009000080E40E94E90063EE8EEC92E00E9408040D
:1009100081E00E948C00882339F060E070E08FE76E
:1009200093E4DF91CF9108958091DA02813009F448
:100930004FC008F441C0803809F445C0813809F43B
:100940004CC041E063E080E40E94F3001092C501D6
:100950008093C401833009F78EEC92E00E94C803B3
:10096000D82F40E0C42F8EEC92E00E94C803C82B21
:10097000D92B8EEC92E00E94C8039E0190E1A90160
:10098000220F331F57FF02C041E334279150B9F7BC
:100990008313C3CFBE0190E080E00E942B0C27EBB5
:1009A00033EB4FE25BE30E94E20C26E636E64BE3D4
:1009B00052E40E94110BB5CF65E570E080E090E055
:1009C0000E945503BECF6BE270E080E090E0F8CF6C
:1009D00066E170E080E090E0F3CF6BE070E080E0F3
:1009E00090E0EECF80E40E94E90067EE8EEC92E0AA
:1009F0000E94080481E00E948C00882311F08FEF90
:100A0000089541E061E080E40E94F3001092C50186
:100A10008093C401813099F78EEC92E00E94C80364
:100A20000895CF9381E392E00E94D101892B09F4CC
:100A300041C081E392E00E94AF01853441F16CF442
:100A40008334C1F0843471F748E450E064E771E026
:100A500081E392E00E947301E5CF863429F183356A
:100A600009F761E083E00E949F0261E08DE00E944F
:100A70009F02D8CFC0E08C2F0E946B040E94F2042A
:100A800084600E943704CF5FC830A9F7CBCFC0E0A5
:100A90008C2F0E946B040E94F2048B7F0E9437040B
:100AA000CF5FC830A9F7BECF60E083E00E949F020D
:100AB00060E0DCCFCF9108950E94DD0181110C949C
:100AC000110508950F931F93CF93DF93C82F8B01C8
:100AD0008091DB020E94E9008091E1029091E202A4
:100AE000DC01ED91FC910190F081E02D6C2F0995D6
:100AF00081E00E948C0090E0009761F541E062E0A7
:100B00008091DB020E94F3001092C5018093C40122
:100B1000D0E0C0E08091E1029091E202DC01ED9131
:100B2000FC910084F185E02D0995009781F0DC2F80
:100B3000CC278091E1029091E202DC01ED91FC91E1
:100B40000284F385E02D0995C82BD92BE3CFF8015A
:100B5000D183C083DF91CF911F910F9108951F9290
:100B60000F920FB60F9211242F933F934F935F93E1
:100B70006F937F938F939F93AF93BF93EF93FF9365
:100B800081E392E00E94E701FF91EF91BF91AF9165
:100B90009F918F917F916F915F914F913F912F9195
:100BA0000F900FBE0F901F9018951F920F920FB6C7
:100BB0000F9211242F938F939F93EF93FF93E091C4
:100BC0004102F09142028081E0914702F091480297
:100BD00082FD1BC0908180914A028F5F8F732091AC
:100BE0004B02821741F0E0914A02F0E0EF5CFD4FCA
:100BF000958F80934A02FF91EF919F918F912F9152
:100C00000F900FBE0F901F9018958081F4CF1F9208
:100C10000F920FB60F9211242F933F938F939F93B0
:100C2000AF93BF9380916C0190916D01A0916E0183
:100C3000B0916F013091670123E0230F2D3758F5F4
:100C40000196A11DB11D2093670180936C019093C3
:100C50006D01A0936E01B0936F0180916801909136
:100C60006901A0916A01B0916B010196A11DB11DAE
:100C70008093680190936901A0936A01B0936B011E
:100C8000BF91AF919F918F913F912F910F900FBE88
:100C90000F901F90189526E8230F0296A11DB11DF5
:100CA000D2CF1F920F920FB60F9211242F933F9322
:100CB0004F935F936F937F938F939F93AF93BF9364
:100CC000EF93FF938091B900887F803609F44AC082
:100CD000F0F5883209F4A7C018F5803109F49BC0FB
:100CE000B8F4882309F4F9C0883009F494C0FF915E
:100CF000EF91BF91AF919F918F917F916F915F9194
:100D00004F913F912F910F900FBE0F901F9018950C
:100D1000883109F488C0803251F780930A0214C0E8
:100D2000803409F49DC040F48033B9F38833F9F678
:100D300080930A0285ECB0C0803509F485C08835FF
:100D400009F496C0883499F60E948703D0CF883979
:100D500009F48CC038F5883729F050F4883611F042
:100D6000803729F683E080930C021092660157C009
:100D7000883809F47BC0803919F0803809F0B7CF82
:100D800080916601803208F071C0E091660181E0D7
:100D90008E0F809366018091BB00F0E0EA5BFE4F0E
:100DA00080833DC0803B39F0E0F4803A09F479C09B
:100DB000883A09F09CCF84E080930C0210924501A0
:100DC00010924401E091C201F091C3010995809114
:100DD000440181110FC081E08093440110922401ED
:100DE00009C0803C09F4A6CF883C09F4A3CF883B16
:100DF00009F07DCFE091450181E08E0F80934501A0
:100E0000F0E0EC5DFE4F80818093BB009091450146
:100E10008091440129C08091E7018093BB0085EC5B
:100E20008093BC0064CF90910902809108029817CA
:100E300058F5E091090281E08E0F80930902F0E0FD
:100E4000E851FE4F8081E9CFE091090281E08E0FE9
:100E5000809309028091BB00F0E0E851FE4F80834F
:100E600090910902809108029817C8F285E8D8CFBE
:100E7000E091090281E08E0F809309028091BB000E
:100E8000F0E0E851FE4F808380910B0281115CCF2E
:100E900081E08093E60184EA8093BC0010920C020A
:100EA00026CF85EC8093BC0010920C0280916601E5
:100EB000803230F4E0916601F0E0EA5BFE4F108290
:100EC0006091660170E0E091C001F091C10186E49B
:100ED00091E00995109266010ACF10920A0234CF70
:100EE000E1E3F2E01382128288EE93E0A0E0B0E04A
:100EF00084839583A683B78324E031E03183208304
:100F000025EC30E03587248724EC30E037872687CE
:100F100020EC30E0318B208B21EC30E0338B228BC6
:100F200022EC30E0358B248B26EC30E0378B268B9F
:100F3000118E128E138E148EEEECF2E0138212825A
:100F400084839583A683B78386E191E09183808330
:100F5000EBEDF2E080E490E09183808383E390E026
:100F60009583848387E29FE493838283178216822A
:100F70001092DA020895CF93DF93CDB7DEB72897AA
:100F80000FB6F894DEBF0FBECDBF789484B58260F3
:100F900084BD84B5816084BD85B5826085BD85B51D
:100FA000816085BD80916E00816080936E0010929B
:100FB0008100809181008260809381008091810016
:100FC00081608093810080918000816080938000A7
:100FD0008091B10084608093B1008091B000816005
:100FE0008093B00080917A00846080937A00809131
:100FF0007A00826080937A0080917A008160809389
:101000007A0080917A00806880937A001092C10003
:1010100061E083E00E94FF0261E08DE00E94FF0238
:1010200062E086E00E94FF0261E088E00E94FF0229
:101030000E94CD028EEC92E09093E2028093E10256
:101040006091DD027091DE0280E00E943E01892BFA
:1010500039F46091DF027091E00285E00E943E0168
:1010600004E711E0B12CE8E49E2EC12CD12CFFE75F
:10107000EF2EF3E4FF2E8B2D0E946B040E94CD0215
:101080009092B80080E40E94E90081E00E948C0008
:1010900081110FC0A090DA020E94F2048E778A2993
:1010A0000E943704A092DA020E94F2048B7F0E9411
:1010B0003704F801C192D192E192F1928F01C0A25E
:1010C000D1A2E2A2F3A2B394F8E0BF12D4CFC092AF
:1010D0009401D0929501E0929601F0929701C0920E
:1010E000B801D092B901E092BA01F092BB01E0914F
:1010F0004102F091420282E08083E0913D02F09152
:101100003E021082E0913F02F091400280E1808334
:1011100010924902E0914502F091460286E08083F8
:10112000E0914302F0914402808180618083E091EC
:101130004302F0914402808188608083E091430201
:10114000F0914402808180688083E0914302F091B5
:10115000440280818F7D808383E00E944D042FB7FD
:10116000F89480916C0190916D01A0916E01B09105
:101170006F012FBF8093BC019093BD01A093BE016E
:10118000B093BF01412C512C7FE7672E73E4772E7B
:1011900009E12FB7F89480916C0190916D01A091B5
:1011A0006E01B0916F012FBF4091BC015091BD0104
:1011B0006091BE017091BF016C017D01C41AD50A16
:1011C000E60AF70AB701A601483E534061057105DA
:1011D00008F41DC18093BC019093BD01A093BE0192
:1011E000B093BF0184E791E09C838B8310E0812F53
:1011F0000E946B040E947E044B015C01EB81FC8128
:1012000081929192A192B192FC83EB8380E40E943F
:10121000E90065EE8EEC92E00E94080481E00E94F5
:101220008C008111A1C18091DA02813009F408C1DA
:1012300008F4F5C0803809F4FEC0813809F4F6C01E
:1012400041E063E080E40E94F3001092C5018093C6
:10125000C401833009F088C18EEC92E00E94C8037B
:101260008E831D828EEC92E00E94C803ED80FE808A
:10127000E82AF92A8EEC92E00E94C803970190E1D7
:10128000A901220F331F57FF02C0F1E33F279150FE
:10129000B9F7831369C122E0E226B70190E080E04C
:1012A0000E942B0C2DE434EF49EF5AE30E94E20C2C
:1012B00020E030E040EC50E40E94110B6B017C0117
:1012C00020E030E0A9010E947E0B87FD5FC120E095
:1012D00030E048EC52E4C701B6010E94DD0C18165C
:1012E0000CF498C120E030E04EE753E4C501B401AE
:1012F0000E947E0B811104C00E947E044B015C01A0
:1013000020E030E04FE753E4C701B6010E947E0BB6
:1013100081114AC1C12CD12C3FE7E32E33E4F32ED7
:10132000EB81FC81C0A2D1A2E2A2F3A21F5F183020
:1013300009F05DCFBE016F5F7F4F82E00E946205C2
:10134000892B09F082C069817A8190E080E00E9457
:101350002B0C20E030E040EA5FE30E94E20C0E94A8
:10136000F50B78876F83072E000C880B990B0E9472
:101370002D0C20E030E04AE754E40E94830B609398
:101380009401709395018093960190939701BE010B
:101390006F5F7F4F83E00E946205892B09F05EC07A
:1013A00089819A81089F1001099F300C1124B10195
:1013B000032C000C880B990B0E942D0C20E030E0D0
:1013C0004AE754E40E94830B6093B8017093B9011B
:1013D0008093BA019093BB01F0907301FF2009F450
:1013E00046C080917201811142C0FCED2F16F5E0DC
:1013F0003F06ECF568E873E180E090E00E94550359
:1014000081E08093720160E08DE00E949F020E9463
:10141000DD01882309F4BDCE0E941105B9CE6DE12E
:1014200070E080E090E00E9455030ACF6FE070E02A
:1014300080E090E0F8CF69E070E080E090E0F3CFEA
:1014400064E070E080E090E0EECF40929401509232
:101450009501609296017092970199CF4092B801E0
:101460005092B9016092BA017092BB01B5CFE4EB22
:10147000F0E08491E0EAF0E0E490ECE8F0E0149130
:10148000112321F181110E947602E12FF0E0EE0F8D
:10149000FF1FE458FF4FA591B4918C91E822B1F061
:1014A000F110B5CF81E08093730161E088E00E9484
:1014B0009F0261E08DE00E949F029CE2C92EDD2424
:1014C000D394D0927101C0927001A1CFFF2039F165
:1014D000EF80F88421EEE2162EE2F206DCF0809135
:1014E0007001909171010196909371018093700148
:1014F0008D3291400CF48BCF60E088E00E949F0217
:101500001092730180917201882309F480CF1092A8
:1015100072017DCF109271011092700178CFCF804F
:10152000D8842CE7C2162EE2D206B4F48091700162
:1015300090917101019690937101809370014F9782
:101540007CF081E08093730161E088E00E949F025B
:1015500061E08DE00E949F02109271011092700173
:1015600081E00E944D0453CF20E030E04EE753E489
:10157000C501B4010E947E0BC12CD12C4FE7E42E93
:1015800043E4F42E882309F4B7CEC4CEC12CD12C69
:10159000760120E030E04EE753E4C501B4010E943B
:1015A0007E0B882309F4A8CE20E030E04FE753E417
:1015B000C501B4010E947E0B882309F4ABCE20E064
:1015C00030E0A901C501B4010E94DD0C18160CF031
:1015D000A7CE20E030E040EA52E4C501B4010E9409
:1015E0007E0B87FF9DCEA501940160E070E088EC42
:1015F00091E40E94110B2AE939E949E15EEB0E946E
:10160000E20C9B01AC01C701B6010E94120B6B01F9
:101610007C0186CEC12CD12C88ECE82E82E4F82EF9
:10162000B8CF5058BB27AA270E94290B0C94A30CB3
:101630000E94950C38F00E949C0C20F039F49F3FDA
:1016400019F426F40C94920C0EF4E095E7FB0C943C
:101650008C0CE92F0E94B40C58F3BA176207730779
:101660008407950720F079F4A6F50C94D60C0EF4B7
:10167000E0950B2EBA2FA02D0B01B90190010C01A2
:10168000CA01A0011124FF27591B99F0593F50F4BA
:10169000503E68F11A16F040A22F232F342F442712
:1016A000585FF3CF469537952795A795F04053950A
:1016B000C9F77EF41F16BA0B620B730B840BBAF0DA
:1016C0009150A1F0FF0FBB1F661F771F881FC2F745
:1016D0000EC0BA0F621F731F841F48F48795779559
:1016E0006795B795F7959E3F08F0B0CF9395880F13
:1016F00008F09927EE0F9795879508950E94680C3A
:1017000008F481E008950E94970B0C94A30C0E94AA
:101710009C0C58F00E94950C40F029F45F3F29F092
:101720000C948C0C51110C94D70C0C94920C0E94BC
:10173000B40C68F39923B1F3552391F3951B550B22
:10174000BB27AA2762177307840738F09F5F5F4F94
:10175000220F331F441FAA1FA9F335D00E2E3AF0D3
:10176000E0E832D091505040E695001CCAF72BD0EB
:10177000FE2F29D0660F771F881FBB1F261737073C
:101780004807AB07B0E809F0BB0B802DBF01FF276E
:1017900093585F4F3AF09E3F510578F00C948C0CB3
:1017A0000C94D70C5F3FE4F3983ED4F3869577957D
:1017B0006795B795F7959F5FC9F7880F911D969527
:1017C000879597F90895E1E0660F771F881FBB1F83
:1017D000621773078407BA0720F0621B730B840B30
:1017E000BA0BEE1F88F7E09508950E94FC0B6894F1
:1017F000B1110C94D70C08950E94BC0C88F09F572F
:1018000098F0B92F9927B751B0F0E1F0660F771F24
:10181000881F991F1AF0BA95C9F714C0B13091F01A
:101820000E94D60CB1E008950C94D60C672F782F47
:101830008827B85F39F0B93FCCF3869577956795DF
:10184000B395D9F73EF490958095709561957F4F4B
:101850008F4F9F4F0895E89409C097FB3EF49095F1
:101860008095709561957F4F8F4F9F4F9923A9F079
:10187000F92F96E9BB279395F69587957795679508
:10188000B795F111F8CFFAF4BB0F11F460FF1BC04C
:101890006F5F7F4F8F4F9F4F16C0882311F096E9DF
:1018A00011C0772321F09EE8872F762F05C066238D
:1018B00071F096E8862F70E060E02AF09A95660F46
:1018C000771F881FDAF7880F9695879597F90895FF
:1018D000990F0008550FAA0BE0E8FEEF1616170641
:1018E000E807F907C0F012161306E407F50798F0A9
:1018F000621B730B840B950B39F40A2661F0232BC2
:10190000242B252B21F408950A2609F4A140A6953D
:101910008FEF811D811D089597F99F6780E870E022
:1019200060E008959FEF80EC089500240A94161655
:10193000170618060906089500240A9412161306BD
:10194000140605060895092E0394000C11F488234B
:1019500052F0BB0F40F4BF2B11F460FF04C06F5F67
:101960007F4F8F4F9F4F089557FD9058440F551F3D
:1019700059F05F3F71F04795880F97FB991F61F011
:101980009F3F79F087950895121613061406551F88
:10199000F2CF4695F1DF08C0161617061806991FF4
:1019A000F1CF86957105610508940895E894BB27E9
:1019B00066277727CB0197F908950E94680C08F4F1
:1019C0008FEF08950E94F50C0C94A30C0E94950CC7
:1019D00038F00E949C0C20F0952311F00C948C0C94
:1019E0000C94920C11240C94D70C0E94B40C70F33C
:1019F000959FC1F3950F50E0551F629FF001729FB4
:101A0000BB27F00DB11D639FAA27F00DB11DAA1FC2
:101A1000649F6627B00DA11D661F829F2227B00D0F
:101A2000A11D621F739FB00DA11D621F839FA00D9A
:101A3000611D221F749F3327A00D611D231F849FEA
:101A4000600D211D822F762F6A2F11249F57504041
:101A50009AF0F1F088234AF0EE0FFF1FBB1F661FBC
:101A6000771F881F91505040A9F79E3F510580F085
:101A70000C948C0C0C94D70C5F3FE4F3983ED4F399
:101A8000869577956795B795F795E7959F5FC1F729
:101A9000FE2B880F911D9695879597F90895EE0F67
:0E1AA000FF1F0590F491E02D0994F894FFCFFC
:101AAE000000000009027301A0015602D101AF012E
:101ABE00C301000000000804DB034A04B80335012B
:041ACE00C803B9038D
:00000001FF
