:100000000C9462000C948A000C948A000C948A0070
:100010000C948A000C948A000C948A000C948A0038
:100020000C948A000C948A000C948A000C948A0028
:100030000C948A000C948A000C948A000C948A0018
:100040000C9483050C948A000C9451050C942B0598
:100050000C948A000C948A000C948A000C948A00F8
:100060000C94CD050C948A000000000024002700A9
:100070002A0000000000250028002B0000000000DE
:1000800023002600290004040404040404040202DA
:100090000202020203030303030301020408102007
:1000A0004080010204081020010204081020000012
:1000B0000008000201000003040700000000000027
:1000C0000000EC0611241FBECFEFD8E0DEBFCDBF8D
:1000D00011E0A0E0B1E0E4E2F7E102C005900D928A
:1000E000A432B107D9F722E0A4E2B1E001C01D9229
:1000F000AB3EB207E1F710E0C2E6D0E004C02197C2
:10010000FE010E948A0BC136D107C9F70E9437074A
:100110000C94900B0C940000982F2091380281E0F1
:10012000213208F043C0809114028111FCCF8091EC
:10013000370232E030931402909313029FEF9093B2
:1001400012021092110220931002A7E1B2E0E0EF38
:10015000F1E090E0291331C01092EF019091EF018E
:10016000880F892B8093EF018091EE01813049F552
:100170001092EE018091EF018093BB008091BC0052
:1001800083FDF8CF85EC8093BC008091140282300F
:10019000E1F3809112028F3FB1F080911202803220
:1001A000A1F080911202803391F084E01092160247
:1001B000109238021092150208953D9131939F5F7D
:1001C000C9CF85EEE0CF80E0F1CF82E0EFCF83E0D2
:1001D000EDCF909114029111FCCF91E09093140215
:1001E000409313022FEF2093120210921102260F58
:1001F000209310029093EF019091EF01880F892BCB
:100200008093EF018091EE018130F9F41092EE01BC
:100210008091EF018093BB008091BC0083FDF8CFFB
:1002200085EC8093BC00809114028130E1F38091D1
:100230001102861710F460911102A0EFB1E0EEEC0C
:10024000F1E080E0861303C0089585EEEACF9D912A
:1002500091938F5FF7CF8091CC019091CD01891B55
:10026000990B0895089508950F931F93CF93DF93EB
:10027000162F072FC3EED2E0AE81BF81988121E017
:1002800020931502909337021092160210923802B2
:10029000ED91FC9111970190F081E02D682FCD0137
:1002A00009958E819F81DC01ED91FC910190F08197
:1002B000E02D602F09958E819F81DC01ED91FC91ED
:1002C0000190F081E02D612F099581E00E948C0062
:1002D00090E0DF91CF911F910F910895AF92BF925F
:1002E000CF92DF92EF92FF920F931F93CF93DF9302
:1002F0006C017B018B01040F151FEB015E01AE1831
:10030000BF08C017D10759F06991D601ED91FC9152
:100310000190F081E02DC6010995892B79F7C5017F
:10032000DF91CF911F910F91FF90EF90DF90CF90D1
:10033000BF90AF900895FC01538D448D252F30E080
:10034000842F90E0821B930B541710F0CF960895E2
:1003500001970895FC01918D828D981761F0A28D0F
:10036000AE0FBF2FB11D5D968C91928D9F5F9F73D5
:10037000928F90E008958FEF9FEF0895FC01918D8B
:10038000828D981731F0828DE80FF11D858D90E0F8
:1003900008958FEF9FEF0895FC01918D228D892F95
:1003A00090E0805C9F4F821B91098F73992708957D
:1003B00089E392E00E94CC0121E0892B09F420E03E
:1003C000822F0895FC01A48DA80FB92FB11DA35A47
:1003D000BF4F2C91848D90E001968F739927848F65
:1003E000A689B7892C93A089B1898C918370806488
:1003F0008C93938D848D981306C00288F389E02D29
:1004000080818F7D80830895EF92FF920F931F93D9
:10041000CF93DF93EC0181E0888F9B8D8C8D9813B7
:100420001AC0E889F989808185FF15C09FB7F894C3
:10043000EE89FF896083E889F9898081837080640F
:1004400080839FBF81E090E0DF91CF911F910F915A
:10045000FF90EF900895F62E0B8D10E00F5F1F4F69
:100460000F731127E02E8C8D8E110CC00FB607FC78
:10047000FACFE889F989808185FFF5CFCE010E9406
:10048000E201F1CFEB8DEC0FFD2FF11DE35AFF4F91
:10049000F0829FB7F8940B8FEA89FB898081806294
:1004A000CFCFCF93DF93EC01888D8823B9F0AA8951
:1004B000BB89E889F9898C9185FD03C0808186FD1F
:1004C0000DC00FB607FCF7CF8C9185FFF2CF80816E
:1004D00085FFEDCFCE010E94E201E9CFDF91CF9100
:1004E0000895833081F028F4813099F08230A9F0AA
:1004F00008958730A9F08830C9F08430B1F4809134
:1005000080008F7D03C0809180008F778093800072
:10051000089584B58F7784BD089584B58F7DFBCF12
:100520008091B0008F778093B00008958091B000E3
:100530008F7DF9CF1F93CF93DF93282F30E0F90100
:10054000E255FF4F8491F901E656FF4FD491F9012E
:10055000EA57FF4FC491CC23A9F0162F81110E94B6
:100560007102EC2FF0E0EE0FFF1FEE58FF4FA59148
:10057000B4918FB7F894EC91111108C0D095DE2397
:10058000DC938FBFDF91CF911F910895DE2BF8CFC1
:100590001092CD011092CC011092160210923802E6
:1005A0001092140281E0809313021092EE0161E038
:1005B00082E10E949A0261E083E10E949A02E9EBE3
:1005C000F0E080818E7F808380818D7F808388E4CE
:1005D0008093B80085E48093BC0082E391E090931F
:1005E000CB018093CA0183E391E09093C90180938A
:1005F000C8010895CF93DF9390E0FC01E656FF4FCA
:1006000024918A579F4FFC0184918823D1F090E078
:10061000880F991FFC01E859FF4FA591B491FC0187
:10062000EE58FF4FC591D491623071F49FB7F894A2
:100630003C91822F809583238C93E8812E2B2883F5
:100640009FBFDF91CF9108958FB7F894EC912E2B37
:100650002C938FBFF6CF3FB7F894809168019091AB
:100660006901A0916A01B0916B0126B5A89B05C0F4
:100670002F3F19F00196A11DB11D3FBFBA2FA92F21
:10068000982F8827BC01CD01620F711D811D911D1E
:1006900042E0660F771F881F991F4A95D1F708958A
:1006A00085ED8093BC008091BC0084FDFCCF10924E
:1006B0001402089520914401260F3327331F21325D
:1006C0003105ECF420911402FC0190E080E024302C
:1006D00069F082E00895A09144012191AC014C5D44
:1006E0005E4FA40FB52FB11D2C930196861798F37A
:1006F00080914401680F6093440180E0089581E097
:1007000008950895E091CD018091CC01E81730F46F
:10071000F0E0E253FE4F808190E008958FEF9FEF6D
:1007200008959091CD018091CC012FEF3FEF981764
:1007300048F4E92FF0E0E253FE4F208130E09F5F64
:100740009093CD01C9010895CF92DF92EF92FF926D
:100750000F931F93CF93DF937C01CB018A012091EC
:100760001502222389F0EB016B01C40ED51ECC15B6
:10077000DD0569F06991D701ED91FC910190F0815F
:10078000E02DC7010995F3CF642F0E945A03C801D9
:10079000DF91CF911F910F91FF90EF90DF90CF905D
:1007A0000895CF93DF931F92CDB7DEB76983209171
:1007B00015022223F9F020913802203258F021E06E
:1007C00030E0FC013383228390E080E00F90DF91E2
:1007D000CF91089580911602E82FF0E0E95EFD4F79
:1007E000998190838F5F809316028093380281E015
:1007F00090E0ECCF61E0CE0101960E945A03F7CF62
:10080000CF93C82F81E08093150280E48093370254
:10081000109216021092380266EE86ED92E00E9467
:10082000D1036C2F86ED92E00E94D10381E0CF913D
:100830000C948C0090E080E0089591E09093150274
:1008400090E790933702109216021092380261E0FE
:1008500070E001C0660F8A95EAF786ED92E00E948B
:10086000D10381E00C948C000F931F93CF93DF93FF
:100870008B01A091E902B091EA029091E30221E09C
:1008800020931502909337021092160210923802AC
:10089000ED91FC9111970190F081E02D682FCD0131
:1008A000099581E00E948C0090E0009761F541E09D
:1008B00062E08091E3020E94E9001092CD018093F2
:1008C000CC01D0E0C0E08091E9029091EA02DC0125
:1008D000ED91FC910084F185E02D0995009781F060
:1008E000DC2FCC278091E9029091EA02DC01ED91A6
:1008F000FC910284F385E02D0995C82BD92BE3CF19
:10090000F801D183C083DF91CF911F910F9108959A
:1009100081E08093150280E48093370210921602E2
:100920001092380267EE86ED92E00E94D10381E0DA
:100930000E948C00882311F08FEF089541E061E060
:1009400080E40E94E9001092CD018093CC018130B7
:1009500099F786ED92E00E9491030895CF9389E381
:1009600092E00E94CC01892BC9F189E392E00E94B8
:10097000AA01853421F16CF48334A1F0843479F731
:1009800048E450E067E771E089E392E00E946E017D
:10099000E6CF863409F161E0833509F783E00E94F0
:1009A0009A02DDCFC0E08C2F0E941D040E948804B3
:1009B00084600E940004CF5FC830A9F7D0CFC0E0A8
:1009C0008C2F0E941D040E9488048B7F0E940004CB
:1009D000CF5FC830A9F7C3CF60E0E0CFCF910895D3
:1009E0000E94D80181110C94AE0408958091760183
:1009F000811108C062E090E080E00E94D90981E0A6
:100A00008093760161E089E00E949A0260E08DE0C7
:100A10000C949A0261E088E00E949A02809172012F
:100A200090917301892B29F461E090E080E00E94AD
:100A3000D9098091760181110DC080917201909148
:100A400073010196909373018093720161E08DE0D0
:100A50000C949A0208951F920F920FB60F921124D0
:100A60002F933F934F935F936F937F938F939F93B6
:100A7000AF93BF93EF93FF9389E392E00E94E2016B
:100A8000FF91EF91BF91AF919F918F917F916F9166
:100A90005F914F913F912F910F900FBE0F901F903C
:100AA00018951F920F920FB60F9211242F938F93C8
:100AB0009F93EF93FF93E0914902F0914A02808166
:100AC000E0914F02F091500282FD1BC09081809115
:100AD00052028F5F8F7320915302821741F0E09191
:100AE0005202F0E0E75CFD4F958F80935202FF9138
:100AF000EF919F918F912F910F900FBE0F901F90AC
:100B000018958081F4CF1F920F920FB60F92112487
:100B10002F933F938F939F93AF93BF9380916C01DB
:100B200090916D01A0916E01B0916F0130916701BC
:100B300023E0230F2D3758F50196A11DB11D2093F9
:100B4000670180936C0190936D01A0936E01B09347
:100B50006F018091680190916901A0916A01B09143
:100B60006B010196A11DB11D8093680190936901ED
:100B7000A0936A01B0936B01BF91AF919F918F9148
:100B80003F912F910F900FBE0F901F90189526E860
:100B9000230F0296A11DB11DD2CF1F920F920FB647
:100BA0000F9211242F933F934F935F936F937F93F3
:100BB0008F939F93AF93BF93EF93FF938091B9006F
:100BC000887F803609F44AC0F0F5883209F4A7C05E
:100BD00018F5803109F49BC0B8F4882309F4F9C0F2
:100BE000883009F494C0FF91EF91BF91AF919F912C
:100BF0008F917F916F915F914F913F912F910F90C6
:100C00000FBE0F901F901895883109F488C080326C
:100C100051F78093120214C0803409F49DC040F44F
:100C20008033B9F38833F9F68093120285ECB0C0B3
:100C3000803509F485C0883509F496C0883499F662
:100C40000E945003D0CF883909F48CC038F588371A
:100C500029F050F4883611F0803729F683E080932C
:100C600014021092660157C0883809F47BC080399D
:100C700019F0803809F0B7CF80916601803208F012
:100C800071C0E091660181E08E0F809366018091D2
:100C9000BB00F0E0EA5BFE4F80833DC0803B39F053
:100CA000E0F4803A09F479C0883A09F09CCF84E0F6
:100CB000809314021092450110924401E091CA0100
:100CC000F091CB0109958091440181110FC081E021
:100CD000809344011092240109C0803C09F4A6CFFE
:100CE000883C09F4A3CF883B09F07DCFE091450112
:100CF00081E08E0F80934501F0E0EC5DFE4F808136
:100D00008093BB00909145018091440129C080915E
:100D1000EF018093BB0085EC8093BC0064CF909181
:100D2000110280911002981758F5E091110281E0AC
:100D30008E0F80931102F0E0E051FE4F8081E9CFE9
:100D4000E091110281E08E0F809311028091BB002F
:100D5000F0E0E051FE4F80839091110280911002EB
:100D60009817C8F285E8D8CFE091110281E08E0F84
:100D7000809311028091BB00F0E0E051FE4F808330
:100D80008091130281115CCF81E08093EE0184EAAF
:100D90008093BC001092140226CF85EC8093BC0097
:100DA0001092140280916601803230F4E091660165
:100DB000F0E0EA5BFE4F10826091660170E0E09126
:100DC000C801F091C90186E491E00995109266018D
:100DD0000ACF1092120234CFE9E3F2E013821282BA
:100DE00088EE93E0A0E0B0E084839583A683B78388
:100DF00024E031E03183208325EC30E035872487FF
:100E000024EC30E03787268720EC30E0318B208BD4
:100E100021EC30E0338B228B22EC30E0358B248BBD
:100E200026EC30E0378B268B118E128E138E148EAB
:100E3000E6EDF2E01382128284839583A683B78362
:100E400086E191E091838083E3EEF2E080E490E03C
:100E50009183808383E390E09583848387E29FE49A
:100E600093838283178216821092E2020895CF93B1
:100E7000DF9300D0CDB7DEB7789484B5826084BDAF
:100E800084B5816084BD85B5826085BD85B581608E
:100E900085BD80916E00816080936E00109281000C
:100EA00080918100826080938100809181008160C7
:100EB0008093810080918000816080938000809188
:100EC000B10084608093B1008091B0008160809314
:100ED000B00080917A00846080937A0080917A00DB
:100EE000826080937A0080917A00816080937A009A
:100EF00080917A00806880937A001092C10061E04E
:100F000083E00E94FA0261E08DE00E94FA0262E052
:100F100086E00E94FA0261E088E00E94FA0261E045
:100F200089E00E94FA0290E080E00E94D1098130BD
:100F300009F411C1823009F415C10E94C80286ED7E
:100F400092E09093EA028093E9026091E502709149
:100F5000E60280E00E943401892B39F46091E702B7
:100F60007091E80285E00E94340107E711E0712CDE
:100F700058E4552E4424439460E4362E812C912C61
:100F80007FE7A72E73E4B72E872D0E941D040E94D1
:100F9000C8025092B8004092150230923702109267
:100FA00016021092380281E00E948C0081110FC05D
:100FB0006090E2020E9488048E7786290E940004D5
:100FC0006092E2020E9488048B7F0E940004F80174
:100FD00081929192A192B1928F0180A291A2A2A23C
:100FE000B3A27394F8E07F12CFCF809297019092D2
:100FF0009801A0929901B0929A018092BB019092BF
:10100000BC01A092BD01B092BE01E0914902F091F5
:101010004A0282E08083E0914502F091460210820C
:10102000E0914702F091480280E1808310925102E2
:10103000E0914D02F0914E0286E08083E0914B02F8
:10104000F0914C02808180618083E0914B02F091AD
:101050004C02808188608083E0914B02F0914C02C9
:10106000808180688083E0914B02F0914C02808106
:101070008F7D808383E090E09093C2018093C101D3
:101080002FB7F89480916C0190916D01A0916E0141
:10109000B0916F012FBF8093C4019093C501A093BD
:1010A000C601B093C70190EA292E90E0392E2CE8B2
:1010B000A22E20E0B22E3EEF832E99249A94412C4A
:1010C000512C4FE7642E43E4742E2FB7F89480918F
:1010D0006C0190916D01A0916E01B0916F012FBFD5
:1010E0004091C4015091C5016091C6017091C70142
:1010F0008C019D01041B150B260B370BB901A801B0
:101100004436510561057105F0F08093C401909358
:10111000C501A093C601B093C7018091C301882384
:1011200061F11092C30160E08DE00E949A0280910B
:10113000BF019091C00101968A3091059CF5909372
:10114000C0018093BF010E94D801882309F4BDCF5C
:101150000E94AE04BACF81E090E090937301809337
:101160007201EBCE81E090E0909373018093720165
:10117000809376010E94F604E0CE0091C1011091A7
:10118000C201101611069CF621E02093C30161E014
:101190008DE00E949A02015011091093C201009340
:1011A000C101C5CF1092C0011092BF01BE016F5F97
:1011B0007F4F82E00E943404892B09F099C0698135
:1011C0007A8190E080E00E948F0A20E030E040EADF
:1011D0005FE30E941D0B0E94590A6B01072E000C51
:1011E000880B990B0E94910A20E030E04AE754E412
:1011F0000E94E70960939701709398018093990189
:1012000090939A01BE016F5F7F4F83E00E94340488
:10121000892B09F076C089819A8139E1389F700164
:10122000399FF00C1124B7010F2C000C880B990B7F
:101230000E94910A20E030E04AE754E40E94E70966
:101240006093BB017093BC018093BD019093BE017C
:101250008CEDE81685E0F8060CF05CC08091760114
:10126000811158C080917401909175019C012F5F8C
:101270003F4F3093750120937401069714F00E943C
:10128000F6048091720190917301CD9714F00E9441
:10129000F604ECE7CE16EEE2DE060CF040C08091DC
:1012A0007001909171019C012F5F3F4F309371014C
:1012B000209370014F9714F00E940A05E4EBF0E0D0
:1012C0008491F1010491F5011491112369F18111C7
:1012D0000E947102E12FF0E0EE0FFF1FE458FF4F74
:1012E000A591B4918C910823F9F00E940A052BCFA7
:1012F00040929701509298016092990170929A01E0
:1013000081CF4092BB015092BC016092BD017092AE
:10131000BE019ECF1092750110927401B2CF10924F
:10132000710110927001CACFF1EECF16FEE2DF0616
:101330003CF180917201909173011816190604F521
:1013400010927301109272011092760190927501C1
:101350008092740160E088E00E949A0260E089E077
:101360000E949A028091C1019091C20105969093CA
:10137000C2018093C10160E090E080E00E94D90941
:101380008091720190917301892B09F0DCCE8091DC
:10139000C1019091C20101969093C2018093C10155
:1013A000D2CEF999FECF92BD81BDF89A992780B52A
:1013B0000895262FF999FECF1FBA92BD81BD20BD99
:1013C0000FB6F894FA9AF99A0FBE019608950E9402
:1013D000FB090C94E30A0E94DC0A58F00E94D50A2B
:1013E00040F029F45F3F29F00C94CC0A51110C9481
:1013F000170B0C94D20A0E94F40A68F39923B1F3F4
:10140000552391F3951B550BBB27AA27621773072A
:10141000840738F09F5F5F4F220F331F441FAA1FBE
:10142000A9F335D00E2E3AF0E0E832D0915050407A
:10143000E695001CCAF72BD0FE2F29D0660F771F28
:10144000881FBB1F261737074807AB07B0E809F00E
:10145000BB0B802DBF01FF2793585F4F3AF09E3F93
:10146000510578F00C94CC0A0C94170B5F3FE4F311
:10147000983ED4F3869577956795B795F7959F5FD6
:10148000C9F7880F911D9695879597F90895E1E022
:10149000660F771F881FBB1F621773078407BA0781
:1014A00020F0621B730B840BBA0BEE1F88F7E095DC
:1014B00008950E94600A6894B1110C94170B089566
:1014C0000E94FC0A88F09F5798F0B92F9927B751CE
:1014D000B0F0E1F0660F771F881F991F1AF0BA95D8
:1014E000C9F714C0B13091F00E94160BB1E0089515
:1014F0000C94160B672F782F8827B85F39F0B93F07
:10150000CCF3869577956795B395D9F73EF490958A
:101510008095709561957F4F8F4F9F4F0895E89408
:1015200009C097FB3EF490958095709561957F4F2B
:101530008F4F9F4F9923A9F0F92F96E9BB279395D9
:10154000F695879577956795B795F111F8CFFAF4E9
:10155000BB0F11F460FF1BC06F5F7F4F8F4F9F4F1A
:1015600016C0882311F096E911C0772321F09EE878
:10157000872F762F05C0662371F096E8862F70E0DE
:1015800060E02AF09A95660F771F881FDAF7880FB8
:101590009695879597F9089597F99F6780E870E089
:1015A00060E008959FEF80EC089500240A941616D9
:1015B000170618060906089500240A941216130641
:1015C000140605060895092E0394000C11F48823CF
:1015D00052F0BB0F40F4BF2B11F460FF04C06F5FEB
:1015E0007F4F8F4F9F4F089557FD9058440F551FC1
:1015F00059F05F3F71F04795880F97FB991F61F095
:101600009F3F79F087950895121613061406551F0B
:10161000F2CF4695F1DF08C0161617061806991F77
:10162000F1CF86957105610508940895E894BB276C
:1016300066277727CB0197F908950E94300B0C9409
:10164000E30A0E94D50A38F00E94DC0A20F09523B4
:1016500011F00C94CC0A0C94D20A11240C94170BA0
:101660000E94F40A70F3959FC1F3950F50E0551F47
:10167000629FF001729FBB27F00DB11D639FAA27E7
:10168000F00DB11DAA1F649F6627B00DA11D661F36
:10169000829F2227B00DA11D621F739FB00DA11D57
:1016A000621F839FA00D611D221F749F3327A00D11
:1016B000611D231F849F600D211D822F762F6A2FAD
:1016C00011249F5750409AF0F1F088234AF0EE0F12
:1016D000FF1FBB1F661F771F881F91505040A9F73F
:1016E0009E3F510580F00C94CC0A0C94170B5F3F81
:1016F000E4F3983ED4F3869577956795B795F7957B
:10170000E7959F5FC1F7FE2B880F911D96958795F2
:1017100097F90895EE0FFF1F0590F491E02D0994BD
:04172000F894FFCF6B
:101724000000000004026E019B015102CC01AA01D9
:10173400BE0100000000D103A4031A0481032B019D
:041744009103820388
:00000001FF
