:100000000C945D000C9485000C9485000C949E0566
:100010000C949E050C949E050C9485000C94850010
:100020000C9485000C9485000C9485000C9485003C
:100030000C9485000C9485000C9485000C9485002C
:100040000C9454050C9485000C9422050C94FC042B
:100050000C9485000C9485000C9485000C9485000C
:100060000C94A8050C948500000000080002010013
:100070000003040700000000000000000000000072
:10008000250028002B0000000000240027002A0083
:10009000040404040404040402020202020203032E
:1000A0000303030301020408102040800102040836
:1000B0001020010204081020B00A11241FBECFEF47
:1000C000D8E0DEBFCDBF11E0A0E0B1E0ECE3FBE1A2
:1000D00002C005900D92A432B107D9F723E0A4E243
:1000E000B1E001C01D92A73BB207E1F710E0CDE5FA
:1000F000D0E004C02197FE010E94910DCC35D107BC
:10010000C9F70E94DC070C949C0D0C9400008091B0
:10011000DA0190E02091DB01821B91090895089596
:100120000895CF92DF92EF92FF920F931F93CF9398
:10013000DF936C017A018B01C0E0D0E0CE15DF05C2
:1001400081F0D8016D918D01D601ED91FC91019066
:10015000F081E02DC6010995892B11F02196EECF93
:100160007E01C701DF91CF911F910F91FF90EF901A
:10017000DF90CF900895FC01538D448D252F30E002
:10018000842F90E0821B930B541710F0CF960895A4
:1001900001970895FC01918D828D981761F0828DF1
:1001A000DF01A80FB11D5D968C91928D9F5F9F73AB
:1001B000928F90E008958FEF9FEF0895FC01918D4D
:1001C000828D981731F0828DE80FF11D858D90E0BA
:1001D00008958FEF9FEF0895FC01918D228D892F57
:1001E00090E0805C9F4F821B91098F73992708953F
:1001F00087E492E00E94EC0021E0892B09F420E0E2
:10020000822F0895FC01848DDF01A80FB11DA35A30
:10021000BF4F2C91848D90E001968F739927848F26
:10022000A689B7892C93A089B1898C918370806449
:100230008C93938D848D981306C00288F389E02DEA
:1002400080818F7D80830895EF92FF920F931F939B
:10025000CF93DF93EC0181E0888F9B8D8C8D981379
:1002600005C0E889F989808185FD26C0F62E0B8DB1
:1002700010E00F5F1F4F0F731127E02E8C8DE812D7
:100280000CC00FB607FCFACFE889F989808185FF99
:10029000F5CFCE010E940201F1CF8B8DFE01E80F58
:1002A000F11DE35AFF4FF0829FB7F8940B8FEA8954
:1002B000FB89808180620AC09FB7F894EE89FF892C
:1002C0006083E889F98980818370806480839FBF1F
:1002D00081E090E0DF91CF911F910F91FF90EF901F
:1002E0000895CF93DF93EC01888D8823C9F0EA89C4
:1002F000FB89808185FD05C0A889B9898C9186FD1F
:100300000FC00FB607FCF5CF808185FFF2CFA8891B
:10031000B9898C9185FFEDCFCE010E940201E7CF14
:10032000DF91CF91089590E0FC01E859FF4F2491AF
:10033000FC01EC55FF4F3491FC01E057FF4FE49175
:10034000EE2309F43CC0222339F1233091F038F434
:100350002130A9F0223001F584B58F7D12C02730FD
:1003600091F02830A1F02430B9F4809180008F7D85
:1003700003C0809180008F77809380000DC084B58A
:100380008F7784BD09C08091B0008F7703C08091C2
:10039000B0008F7D8093B000F0E0EE0FFF1FE458B7
:1003A000FF4FA591B4919FB7F894611104C08C914F
:1003B0003095382302C0EC913E2B3C939FBF0895AB
:1003C0008E3008F08E508770806480937C0080911E
:1003D0007A00806480937A0080917A0086FDFCCF59
:1003E000809178002091790090E0922B08953FB79A
:1003F000F89480916A0190916B01A0916C01B09189
:100400006D0126B5A89B05C02F3F19F00196A11DCF
:10041000B11D3FBFBA2FA92F982F8827820F911D9A
:10042000A11DB11DBC01CD0142E0660F771F881FE1
:10043000991F4A95D1F708958F929F92AF92BF92DC
:10044000CF92DF92EF92FF926B017C010E94F70145
:100450004B015C01C114D104E104F104F1F00E94EC
:10046000F701DC01CB0188199909AA09BB09883E6B
:100470009340A105B10570F321E0C21AD108E1084B
:10048000F10888EE880E83E0981EA11CB11CC114EF
:10049000D104E104F10419F7DDCFFF90EF90DF9074
:1004A000CF90BF90AF909F908F9008950895CF9375
:1004B000DF93009729F1EC01C05CDF4F88819981BF
:1004C0000097F1F0DC01ED91FC910190F081E02DBD
:1004D00069EF099588819981DC01ED91FC9101908A
:1004E000F081E02D62E0099588819981DC01ED9130
:1004F000FC910190F081E02D65E0DF91CF910994AE
:10050000DF91CF910895AF92BF92CF92DF92EF9299
:10051000FF920F931F93CF93DF93009709F47FC04F
:10052000FC01E058FF4FE080EE2009F478C0EC01B8
:10053000C05CDF4FA881B981109709F470C0FC013D
:10054000EF57FF4F00811181F801F180D080ED91CC
:10055000FC9111970190F081E02D60EFCD0109959C
:1005600088819981DC01ED91FC910190F081E02D71
:1005700069E7099588819981DC01ED91FC910190F1
:10058000F081E02D6D2D099588819981DC01ED9137
:10059000FC910190F081E02D6F2D09950E5F1F4FAA
:1005A000C12CD12CF12CB2E0EB1AF108CE14DF04EF
:1005B00010F5580188819981F80161918F016F7759
:1005C000DC01ED91FC910190F081E02D0995F501A0
:1005D000608170E0660F672F661F770B88819981B5
:1005E000DC01ED91FC910190F081E02D0995BFEFC8
:1005F000CB1ADB0ADBCF88819981DC01ED91FC917C
:100600000190F081E02D67EFDF91CF911F910F9165
:10061000FF90EF90DF90CF90BF90AF900994DF9163
:10062000CF911F910F91FF90EF90DF90CF90BF90EF
:10063000AF90089508950895089508950895089530
:100640000895089585ED8093BC008091BC0084FDE1
:10065000FCCF10922202089540914401262F30E0F1
:10066000240F311D21323105DCF420912202243087
:10067000C9F4FC0180E090E0861758F43091440101
:100680002191DC01AC5DBE4FA30FB11D2C930196EF
:10069000F3CF80914401680F6093440180E0089596
:1006A00081E0089582E008951092220281E0809313
:1006B00021021092FC0161E082E10E94930161E05D
:1006C00083E10E949301E9EBF0E080818E7F8083DB
:1006D00080818D7F808388E48093B80085E4809357
:1006E000BC0008950895E091DB018091DA01E817DC
:1006F00030F4F0E0E452FE4F808190E008958FEFF7
:100700009FEF08959091DB018091DA01981750F4E2
:10071000E92FF0E0E452FE4F208130E09F5F90939C
:10072000DB0102C02FEF3FEFC9010895CF92DF92A6
:10073000EF92FF920F931F93CF93DF937C01CB0136
:100740008A0120912302222389F0EB016B01C40E60
:10075000D51ECC15DD0569F06991D701ED91FC91AD
:100760000190F081E02DC7010995F3CF642F0E941D
:100770002C03C801DF91CF911F910F91FF90EF9053
:10078000DF90CF900895CF93DF931F92CDB7DEB760
:100790006983209123022223D1F020914602203246
:1007A00040F021E030E0FC013383228380E090E0E0
:1007B00015C080912402E82FF0E0EB5DFD4F998198
:1007C00090838F5F809324028093460205C061E08E
:1007D000CE0101960E942C0381E090E00F90DF9102
:1007E000CF910895089580E090E00895CF93DF932E
:1007F000D82FC0E0CD17B1F061E08DE00E949301E9
:1008000064E670E080E090E00E941C0260E08DE011
:100810000E94930164E670E080E090E00E941C0278
:10082000CF5FE8CFDF91CF91089591E090932302BD
:1008300090E790934502109224021092460261E0E4
:1008400070E001C0660F8A95EAF784EE92E00E949C
:10085000C30381E00C94D606CF93DF9381E08093AD
:10086000230280E4809345021092240210924602F3
:1008700063EE84EE92E00E94C30381E00E94D606FC
:10088000882329F060E070E08FE793E45FC08091F7
:10089000F0028130A1F048F0803861F08138A9F48D
:1008A0006BE070E080E090E00EC065E570E080E015
:1008B00090E009C06BE270E080E090E004C066E187
:1008C00070E080E090E00E941C0283E090E00E94D3
:1008D0004C078091DA0190E02091DB01821B9109A5
:1008E000039781F684EE92E00E948203C82F84EE83
:1008F00092E00E94820360E070E07C2FEB01C82B45
:10090000D92B84EE92E00E9482039E0190E1A9011E
:10091000440F551F37FF04C09A0161E3362701C019
:100920009A019150A1F78313ADCFBE0180E090E012
:100930000E946D0C27EB33EB4FE25BE30E94240D2A
:1009400026E636E64BE352E40E94890BDF91CF9115
:100950000895CF9387E492E00E94EC00892B09F47C
:1009600041C087E492E00E94CA00853429F16CF40A
:100970008334A9F0843471F748E450E069E771E00A
:1009800087E492E00E949100E5CF863411F183352F
:1009900009F761E08BE00E94930161E01FC0C0E0B5
:1009A0008C2F0E9415040E94950784600E943207D4
:1009B000CF5FC830A9F7CECFC0E08C2F0E941504BE
:1009C0000E9495078B7F0E943207CF5FC830A9F73E
:1009D000C1CF60E08BE00E94930160E08DE00E9457
:1009E0009301B8CFCF9108950E94F80081110C9423
:1009F000A90408950E94970D1F920F920FB60F92AF
:100A000011242F933F934F935F936F937F938F9313
:100A10009F93AF93BF93EF93FF9387E492E00E947D
:100A20000201FF91EF91BF91AF919F918F917F91C3
:100A30006F915F914F913F912F910F900FBE0F904B
:100A40001F9018951F920F920FB60F9211242F939B
:100A50008F939F93EF93FF93E0915702F091580289
:100A60008081E0915D02F0915E0282FD12C0908172
:100A7000809160028F5F8F7320916102821751F025
:100A8000E0916002F0E0E95BFD4F958F809360029A
:100A900001C08081FF91EF919F918F912F910F90D5
:100AA0000FBE0F901F9018951F920F920FB60F92C6
:100AB00011242F933F938F939F93AF93BF93809174
:100AC000720190917301A0917401B0917501309100
:100AD000690123E0230F2D3720F40196A11DB11DDC
:100AE00005C026E8230F0296A11DB11D20936901C0
:100AF0008093720190937301A0937401B093750178
:100B000080916A0190916B01A0916C01B0916D018F
:100B10000196A11DB11D80936A0190936B01A09372
:100B20006C01B0936D01BF91AF919F918F913F91F7
:100B30002F910F900FBE0F901F9018951F920F923C
:100B40000FB60F9211240F900FBE0F901F901895A3
:100B50001F920F920FB60F9211242F933F934F9332
:100B60005F936F937F938F939F93AF93BF93EF9315
:100B7000FF938091B900887F803609F49CC068F5A6
:100B8000883209F45BC090F4803109F454C038F421
:100B9000882309F4F6C0883009F44DC0F6C08831C6
:100BA00009F44CC0803209F45DC0EFC0803409F410
:100BB00068C048F4803309F455C0883309F0E5C0B3
:100BC00080932002D8C0803509F44FC0883509F4DD
:100BD0005DC0883409F0D9C0D6C0883909F4C7C0CF
:100BE000A8F4883709F467C038F4883609F463C07C
:100BF000803709F460C0C9C0883809F4B8C08039AA
:100C000009F45FC0803809F0C0C05BC0803B09F4C4
:100C100086C038F4803A09F466C0883A09F47FC087
:100C2000B4C0803C09F4A7C0883C09F4A4C0883B48
:100C300009F48AC0AAC08091FD0110C090911F02E2
:100C400080911E02981770F5E0911F0281E08E0FCF
:100C500080931F02F0E0E250FE4F80818093BB0042
:100C600085EC86C0809320028EC0E0911F0281E057
:100C70008E0F80931F028091BB00F0E0E250FE4F88
:100C8000808390911F0280911E026EC0E0911F022E
:100C900081E08E0F80931F028091BB00F0E0E25054
:100CA000FE4F80838091210281116DC081E080938D
:100CB000FC0184EA61C083E0809322021092660105
:100CC000CFCF80916601803208F051C0E09166017B
:100CD00081E08E0F809366018091BB00F0E0EA5BBB
:100CE000FE4F8083BDCF85EC8093BC001092220222
:100CF00080916601803230F4E0916601F0E0EA5BB9
:100D0000FE4F10826091660170E0E0917001F091F9
:100D1000710186E491E009951092660136C084E085
:100D2000809322021092450110924401E0916E01DD
:100D3000F0916F01099580914401811105C081E016
:100D40008093440110922401E091450181E08E0FCF
:100D500080934501F0E0EC5DFE4F80818093BB0005
:100D60009091450180914401981708F479CF85E866
:100D70008093BC000AC085EC8093BC0010922202D4
:100D800004C0109220020E942203FF91EF91BF91B4
:100D9000AF919F918F917F916F915F914F913F9113
:100DA0002F910F900FBE0F901F901895282F309104
:100DB0004602313208F04AC0809122028111FCCFF4
:100DC0009091450242E040932202209321022FEFAE
:100DD0002093200210921F0230931E02E5E2F2E0FF
:100DE000AEEFB1E020E0321721F041914D932F5F3B
:100DF000FACF1092FD012091FD01990F922B909353
:100E0000FD019091FC01913061F41092FC019091F0
:100E1000FD019093BB009091BC0093FDF8CF95EC41
:100E200001C095EE9093BC00909122029230E1F3C4
:100E3000909120029F3F79F080912002803241F012
:100E400080912002803331F084E005C081E003C04E
:100E500082E001C083E010922402109246021092B8
:100E600023020895CF93C82F81E08093230280E46A
:100E700080934502109224021092460266EE84EEA0
:100E800092E00E94C3036C2F84EE92E00E94C303A1
:100E900081E0CF910C94D606909122029111FCCF63
:100EA000982F813208F090E281E0809322028093B3
:100EB00021022FEF2093200210921F02290F20936E
:100EC0001E028093FD018091FD0180688093FD01E9
:100ED0008091FC01813061F41092FC018091FD0150
:100EE0008093BB008091BC0083FDF8CF85EC01C0EE
:100EF00085EE8093BC00809122028130E1F38091E5
:100F00001F02891710F490911F02EEEFF1E0ACED93
:100F1000B1E080E0891721F021912D938F5FFACF06
:100F20001092DB018093DA01089581E0809323021F
:100F300080E480934502109224021092460267EEEC
:100F400084EE92E00E94C30381E00E94D6068823CB
:100F500011F08FEF089581E090E00E944C0780919E
:100F6000DA0190E02091DB01821B9109019789F75A
:100F700084EE92E00E948203089590E0FC01EC551B
:100F8000FF4F2491FC01E057FF4F8491882399F093
:100F900090E0880F991FFC01EA57FF4FA591B4918B
:100FA000FC01E458FF4F859194918FB7F894EC9130
:100FB000E22BEC938FBF0895789484B5826084BD52
:100FC00084B5816084BD85B5826085BD85B581604D
:100FD00085BD80916E00816080936E0010928100CB
:100FE0008091810082608093810080918100816086
:100FF0008093810080918000816080938000809147
:10100000B10084608093B1008091B00081608093D2
:10101000B00080917A00846080937A0080917A0099
:10102000826080937A0080917A00816080937A0058
:1010300080917A00806880937A001092C1008BE0E2
:101040000E94BD078DE00E94BD0789E00E94BD0798
:1010500088E00E94BD0761E088E00E949301109241
:10106000DB011092DA0110922402109246020E94D3
:101070005403C0E00FE810E0D0E9ED2ED0E0FD2EE3
:1010800088E4B82EAA24A39490E4992E8C2F0E9471
:1010900015041092DB011092DA01109224021092D2
:1010A00046020E94540310936F0100936E01F09268
:1010B0007101E0927001B092B800A0922302909268
:1010C0004502109224021092460281E00E94D60648
:1010D00081110FC0D091F0020E9495078E778D2B61
:1010E0000E943207D093F0020E9495078B7F0E94E6
:1010F0003207CF5FC83051F6E0915702F0915802A5
:1011000082E08083E0915302F09154021082E091DA
:101110005502F091560280E1808310925F02E091C7
:101120005B02F0915C0286E08083E0915902F091CD
:101130005A02808180618083E0915902F0915A02C5
:10114000808188608083E0915902F0915A02808109
:1011500080688083E0915902F0915A0280818F7DEE
:10116000808385E00E94F60377247394B0E46B2EAD
:101170008FB7F89420907201309073014090740101
:10118000509075018FBF8091D6019091D701A091A9
:10119000D801B091D90152014101881A990AAA0ACD
:1011A000BB0AD091D501C1E0CD0FC093D5018EE02F
:1011B0000E94E001ED2FF0E0EE0FFF1FEF53FE4F16
:1011C00091838083CA3010F01092D50168EE8616A4
:1011D00063E09606A104B10408F4BAC12092D601D6
:1011E0003092D7014092D8015092D90181E00E94FB
:1011F000F60379E7E72E71E0F72E512C852D0E943A
:1012000015040E942C044B015C01F701619371935A
:10121000819391937F017092230260924502109214
:1012200024021092460265EE84EE92E00E94C3030F
:1012300081E00E94D606811182C08091F002813047
:10124000A1F048F0803861F08138A9F46FE070E0D7
:1012500080E090E00EC06DE170E080E090E009C0B9
:1012600069E070E080E090E004C064E070E080E05D
:1012700090E00E941C0283E090E00E944C07809165
:10128000DA0190E02091DB01821B9109039709F0BC
:1012900056C084EE92E00E948203C82F84EE92E052
:1012A0000E948203DC2EC12CE601C82BD92B84EED0
:1012B00092E00E9482039E0190E1A901440F551F14
:1012C00037FF04C09A01F1E33F2701C09A01915012
:1012D000A1F7831334C062E0C627BE0180E090E02E
:1012E0000E946D0C2DE434EF49EF5AE30E94240D67
:1012F00020E030E040EC50E40E94890BEB01182F15
:10130000092F20E030E0A9010E94F60B87FD39C0CB
:1013100020E030E048EC52E4BE01812F902F0E9483
:101320001F0D18160CF417C120E030E04EE753E40F
:10133000C501B4010E94F60B811113C00EC020E05C
:1013400030E04EE753E4C501B4010E94F60B811171
:1013500013C0C0E0D0E01FE703E40E942C044B015F
:101360005C0120E030E04FE753E4BE01812F902F75
:101370000E94F60B811113C0C0E0D0E01FE703E428
:1013800041C0C0E0D0E010E000E020E030E04EE7F7
:1013900053E4C501B4010E94F60B8823F1F220E06A
:1013A00030E04FE753E4C501B4010E94F60B8823F7
:1013B00019F320E030E0A901C501B4010E941F0D1E
:1013C000181604F520E030E040EA52E4C501B4010B
:1013D0000E94F60B87FF16C0A501940160E070E043
:1013E00088EC91E40E94890B2AE939E949E15EEB36
:1013F0000E94240D9E01412F502F0E948A0BEB0169
:10140000182F092FCE01A12FB02FF70180A391A390
:10141000A2A3B3A35394F8E05F12F0CE6091C10190
:101420007091C201E3ECF1E081919191680F791F15
:1014300081E0E53DF807C1F780E090E00E946D0C87
:1014400020E030E040E250E40E94240D20E030E053
:1014500040E85AE30E94240D4B015C01609399011E
:1014600070939A0180939B0190939C0180E10E946C
:10147000E001BC01990F880B990B0E946F0C20E0D2
:1014800030E44CE955E40E94240D20E030E040E8CF
:101490005AE30E94240D20E030E44CE155E40E9420
:1014A000890B20E030E049E353E40E94FB0B60939A
:1014B000BD017093BE018093BF019093C0018091E4
:1014C0007801811115C023E333E34BE351E4C501F7
:1014D000B4010E94F60B87FF3BC07092780161E077
:1014E00089E00E949301109277011092760130C03A
:1014F00020E030E040E451E4C501B4010E941F0D3A
:10150000181654F48091760190917701019690938A
:1015100077018093760104C01092770110927601D2
:101520008091760190917701853B91058CF060E088
:1015300089E00E94930161E088E00E94930183E0CA
:101540000E94F60360E088E00E9493011092780107
:101550000E94F4040DCEC0E0D0E018EC02E415CFF8
:10156000E7E4F2E01382128248EE53E060E070E0BC
:10157000448355836683778384E091E091838083FD
:1015800085EC90E09587848784EC90E09787868748
:1015900080EC90E0918B808B81EC90E0938B828B40
:1015A00082EC90E0958B848B86EC90E0978B868B19
:1015B000118E128E138E148E81EF92E010923203F0
:1015C00010923103909335038093340320E430E08C
:1015D0003093370320933603109238031092390367
:1015E00010923B0310923A0310923C0310923E0378
:1015F00010923D031092400310923F031092420359
:101600001092410310924403109243031092460338
:1016100010924503109248031092470310924A0318
:10162000109249031092500310924F0310925203EC
:1016300010925103109254031092530310925603C8
:1016400010925503109264031092630310923303B7
:101650001092710310927303109272031092B603EA
:1016600021E233E0309358032093570320E233E024
:1016700030935A03209359032DE133E030935C03F8
:1016800020935B032CE133E030935E0320935D03F2
:101690002FE133E03093600320935F032EE133E0CA
:1016A00030936203209361032BE133E030936603B0
:1016B000209365032AE133E03093680320936703A6
:1016C00023E832E030936A032093690390934C033C
:1016D00080934B0327E532E030936C0320936B0338
:1016E00090934E0380934D0386E592E090936E03B2
:1016F00080936D03E4EEF2E01382128244835583FB
:101700006683778386E191E0918380831092F00273
:1017100008955058BB27AA270E94A10B0C94E50CF2
:101720000E94D70C38F00E94DE0C20F039F49F3F65
:1017300019F426F40C94D40C0EF4E095E7FB0C9409
:10174000CE0CE92F0E94F60C58F3BA176207730704
:101750008407950720F079F4A6F50C94180D0EF483
:10176000E0950B2EBA2FA02D0B01B90190010C01B1
:10177000CA01A0011124FF27591B99F0593F50F4C9
:10178000503E68F11A16F040A22F232F342F442721
:10179000585FF3CF469537952795A795F040539519
:1017A000C9F77EF41F16BA0B620B730B840BBAF0E9
:1017B0009150A1F0FF0FBB1F661F771F881FC2F754
:1017C0000EC0BA0F621F731F841F48F48795779568
:1017D0006795B795F7959E3F08F0B0CF9395880F22
:1017E00008F09927EE0F9795879508950E94AA0C07
:1017F00008F481E008950E940F0C0C94E50C0E94FF
:10180000DE0C58F00E94D70C40F029F45F3F29F01D
:101810000C94CE0C51110C94190D0C94D40C0E9404
:10182000F60C68F39923B1F3552391F3951B550BEF
:10183000BB27AA2762177307840738F09F5F5F4FA3
:10184000220F331F441FAA1FA9F335D00E2E3AF0E2
:10185000E0E832D091505040E695001CCAF72BD0FA
:10186000FE2F29D0660F771F881FBB1F261737074B
:101870004807AB07B0E809F0BB0B802DBF01FF277D
:1018800093585F4F3AF09E3F510578F00C94CE0C80
:101890000C94190D5F3FE4F3983ED4F38695779549
:1018A0006795B795F7959F5FC9F7880F911D969536
:1018B000879597F90895E1E0660F771F881FBB1F92
:1018C000621773078407BA0720F0621B730B840B3F
:1018D000BA0BEE1F88F7E0950895E89409C097FBCE
:1018E0003EF490958095709561957F4F8F4F9F4FF7
:1018F0009923A9F0F92F96E9BB279395F69587953B
:1019000077956795B795F111F8CFFAF4BB0F11F4FD
:1019100060FF1BC06F5F7F4F8F4F9F4F16C08823A4
:1019200011F096E911C0772321F09EE8872F762FDA
:1019300005C0662371F096E8862F70E060E02AF01B
:101940009A95660F771F881FDAF7880F9695879507
:1019500097F90895990F0008550FAA0BE0E8FEEFDC
:1019600016161706E807F907C0F012161306E40763
:10197000F50798F0621B730B840B950B39F40A265C
:1019800061F0232B242B252B21F408950A2609F43A
:10199000A140A6958FEF811D811D089597F99F673E
:1019A00080E870E060E008959FEF80EC08950024E7
:1019B0000A941616170618060906089500240A94B4
:1019C00012161306140605060895092E0394000C3A
:1019D00011F4882352F0BB0F40F4BF2B11F460FFC9
:1019E00004C06F5F7F4F8F4F9F4F089557FD9058F2
:1019F000440F551F59F05F3F71F04795880F97FBD3
:101A0000991F61F09F3F79F087950895121613068C
:101A10001406551FF2CF4695F1DF08C016161706BB
:101A20001806991FF1CF86957105610508940895F0
:101A3000E894BB2766277727CB0197F908950E9482
:101A4000AA0C08F48FEF08950E94370D0C94E50C52
:101A50000E94D70C38F00E94DE0C20F0952311F084
:101A60000C94CE0C0C94D40C11240C94190D0E94DF
:101A7000F60C70F3959FC1F3950F50E0551F629FD0
:101A8000F001729FBB27F00DB11D639FAA27F00DD7
:101A9000B11DAA1F649F6627B00DA11D661F829FFE
:101AA0002227B00DA11D621F739FB00DA11D621FE3
:101AB000839FA00D611D221F749F3327A00D611D00
:101AC000231F849F600D211D822F762F6A2F1124E2
:101AD0009F5750409AF0F1F088234AF0EE0FFF1F15
:101AE000BB1F661F771F881F91505040A9F79E3F6C
:101AF000510580F00C94CE0C0C94190D5F3FE4F36B
:101B0000983ED4F3869577956795B795F795E795C1
:101B10009F5FC1F7FE2B880F911D9695879597F9CA
:101B20000895EE0FFF1F0590F491E02D099481E0D8
:0C1B300090E0F8940C949C0DF894FFCF0A
:101B3C000000000024019100BB007101EC00CA0000
:101B4C00DE0000000000C3039603F303720387005A
:041B5C00820373038A
:00000001FF
