:100000000C945D000C9485000C9485000C94850084
:100010000C9485000C9485000C9485000C9485004C
:100020000C9485000C9485000C9485000C9485003C
:100030000C9485000C9485000C9485000C9485002C
:100040000C94A2050C9485000C9470050C944A0540
:100050000C9485000C9485000C9485000C9485000C
:100060000C94EC050C9485000000000800020100CF
:100070000003040700000000000000000000000072
:10008000250028002B0000000000240027002A0083
:10009000040404040404040402020202020203032E
:1000A0000303030301020408102040800102040836
:1000B00010200102040810201A0711241FBECFEFE0
:1000C000D8E0DEBFCDBF11E0A0E0B1E0E0E3F9E1B0
:1000D00002C005900D92A432B107D9F722E0A4E244
:1000E000B1E001C01D92AF3EB207E1F710E0CDE5EF
:1000F000D0E004C02197FE010E948B0CCC35D107C3
:10010000C9F70E9455070C94960C0C940000282FF8
:1001100030914402313208F04AC0809120028111AE
:10012000FCCF9091430242E04093200220931F02B3
:100130002FEF20931E0210921D0230931C02E3E267
:10014000F2E0ACEFB1E020E0321721F041914D93A5
:100150002F5FFACF1092FB012091FB01990F922B98
:100160009093FB019091FA01913061F41092FA01A1
:100170009091FB019093BB009091BC0093FDF8CF50
:1001800095EC01C095EE9093BC00909120029230C6
:10019000E1F390911E029F3F79F080911E02803220
:1001A00041F080911E02803331F084E005C081E08F
:1001B00003C082E001C083E0109222021092440248
:1001C0001092210208958091D80190E02091D901E8
:1001D000821B910908950895089590E0FC01EC5563
:1001E000FF4F2491FC01E057FF4F8491882399F041
:1001F00090E0880F991FFC01EA57FF4FA591B49139
:10020000FC01E458FF4F859194918FB7F894EC91DD
:10021000E22BEC938FBF0895CF92DF92EF92FF9283
:100220000F931F93CF93DF936C017A018B01C0E092
:10023000D0E0CE15DF0581F0D8016D918D01D6019A
:10024000ED91FC910190F081E02DC6010995892B7B
:1002500011F02196EECF7E01C701DF91CF911F9162
:100260000F91FF90EF90DF90CF900895FC01538D98
:10027000448D252F30E0842F90E0821B930B541780
:1002800010F0CF96089501970895FC01918D828D0D
:10029000981761F0828DDF01A80FB11D5D968C91DA
:1002A000928D9F5F9F73928F90E008958FEF9FEFE5
:1002B0000895FC01918D828D981731F0828DE80FA1
:1002C000F11D858D90E008958FEF9FEF0895FC015B
:1002D000918D228D892F90E0805C9F4F821B910928
:1002E0008F739927089585E492E00E94670121E0C9
:1002F000892B09F420E0822F0895FC01848DDF0111
:10030000A80FB11DA35ABF4F2C91848D90E0019688
:100310008F739927848FA689B7892C93A089B18977
:100320008C91837080648C93938D848D981306C018
:100330000288F389E02D80818F7D80830895EF927C
:10034000FF920F931F93CF93DF93EC0181E0888F8F
:100350009B8D8C8D981305C0E889F989808185FD76
:1003600026C0F62E0B8D10E00F5F1F4F0F73112765
:10037000E02E8C8DE8120CC00FB607FCFACFE8898E
:10038000F989808185FFF5CFCE010E947D01F1CFF3
:100390008B8DFE01E80FF11DE35AFF4FF0829FB7EE
:1003A000F8940B8FEA89FB89808180620AC09FB72D
:1003B000F894EE89FF896083E889F98980818370E8
:1003C000806480839FBF81E090E0DF91CF911F9197
:1003D0000F91FF90EF900895CF93DF93EC01888DFC
:1003E0008823C9F0EA89FB89808185FD05C0A88939
:1003F000B9898C9186FD0FC00FB607FCF5CF8081BF
:1004000085FFF2CFA889B9898C9185FFEDCFCE0108
:100410000E947D01E7CFDF91CF91089590E0FC012C
:10042000E859FF4F2491FC01EC55FF4F3491FC013A
:10043000E057FF4FE491EE2309F43CC0222339F149
:10044000233091F038F42130A9F0223001F584B541
:100450008F7D12C0273091F02830A1F02430B9F4FC
:10046000809180008F7D03C0809180008F77809382
:1004700080000DC084B58F7784BD09C08091B00025
:100480008F7703C08091B0008F7D8093B000F0E043
:10049000EE0FFF1FE458FF4FA591B4919FB7F8945A
:1004A000611104C08C913095382302C0EC913E2B31
:1004B0003C939FBF08951092D9011092D8011092D9
:1004C0002202109244021092200281E080931F02C7
:1004D0001092FA0161E082E10E940E0261E083E184
:1004E0000E940E02E9EBF0E080818E7F80838081A4
:1004F0008D7F808388E48093B80085E48093BC007E
:100500008BEE90E09093D7018093D6018CEE90E033
:100510009093D5018093D40108958E3008F08E50C9
:100520008770806480937C0080917A0080648093DF
:100530007A0080917A0086FDFCCF8091780020912E
:10054000790090E0922B08953FB7F894809168016C
:1005500090916901A0916A01B0916B0126B5A89BA9
:1005600005C02F3F19F00196A11DB11D3FBFBA2F45
:10057000A92F982F8827820F911DA11DB11DBC01A5
:10058000CD0142E0660F771F881F991F4A95D1F76A
:1005900008958F929F92AF92BF92CF92DF92EF9287
:1005A000FF926B017C010E94A4024B015C01C1140B
:1005B000D104E104F104F1F00E94A402DC01CB01BA
:1005C00088199909AA09BB09883E9340A105B1057C
:1005D00070F321E0C21AD108E108F10888EE880E14
:1005E00083E0981EA11CB11CC114D104E104F104E4
:1005F00019F7DDCFFF90EF90DF90CF90BF90AF90D5
:100600009F908F90089585ED8093BC008091BC00F1
:1006100084FDFCCF10922002089540914401262FC2
:1006200030E0240F311D21323105DCF4209120020D
:100630002430C9F4FC0180E090E0861758F4309132
:1006400044012191DC01AC5DBE4FA30FB11D2C9381
:100650000196F3CF80914401680F6093440180E0DC
:10066000089581E0089582E008950895E091D90108
:100670008091D801E81730F4F0E0E652FE4F808117
:1006800090E008958FEF9FEF08959091D9018091A8
:10069000D801981750F4E92FF0E0E652FE4F208180
:1006A00030E09F5F9093D90102C02FEF3FEFC90167
:1006B0000895CF92DF92EF92FF920F931F93CF9303
:1006C000DF937C01CB018A0120912102222389F052
:1006D000EB016B01C40ED51ECC15DD0569F06991E7
:1006E000D701ED91FC910190F081E02DC7010995B2
:1006F000F3CF642F0E940D03C801DF91CF911F91AA
:100700000F91FF90EF90DF90CF900895CF93DF93FC
:100710001F92CDB7DEB76983209121022223D1F049
:1007200020914402203240F021E030E0FC0133838C
:10073000228380E090E015C080912202E82FF0E053
:10074000ED5DFD4F998190838F5F809322028093AE
:10075000440205C061E0CE0101960E940D0381E0D4
:1007600090E00F90DF91CF910895CF93C82F81E053
:100770008093210280E4809343021092220210921F
:10078000440266EE82EE92E00E9486036C2F82EEB7
:1007900092E00E94860381E0CF910C948700089537
:1007A00080E090E00895CF93DF93D82FC0E0CD177D
:1007B000B1F061E08DE00E940E0264E670E080E03E
:1007C00090E00E94C90260E08DE00E940E0264E6A3
:1007D00070E080E090E00E94C902CF5FE8CFDF9137
:1007E000CF91089591E09093210290E79093430276
:1007F000109222021092440261E070E001C0660F84
:100800008A95EAF782EE92E00E94860381E00C94DA
:100810008700909120029111FCCF982F813208F02F
:1008200090E281E08093200280931F022FEF2093BB
:100830001E0210921D02290F20931C028093FB01BF
:100840008091FB0180688093FB018091FA018130E7
:1008500061F41092FA018091FB018093BB008091BA
:10086000BC0083FDF8CF85EC01C085EE8093BC0011
:10087000809120028130E1F380911D02891710F4EC
:1008800090911D02ECEFF1E0AAEDB1E080E0891754
:1008900021F021912D938F5FFACF1092D90180938F
:1008A000D801089581E08093210280E4809343027F
:1008B000109222021092440267EE82EE92E00E94B1
:1008C000860381E00E948700882311F08FEF08954E
:1008D00081E090E00E9409048091D80190E020918D
:1008E000D901821B9109019789F782EE92E00E945B
:1008F00045030895CF9385E492E00E946701892B18
:1009000009F441C085E492E00E944501853429F153
:100910006CF48334A9F0843471F748E450E063E761
:1009200071E085E492E00E940C01E5CF863411F17C
:10093000833509F761E08BE00E940E0261E01FC081
:10094000C0E08C2F0E94F2030E94520484600E9437
:10095000B503CF5FC830A9F7CECFC0E08C2F0E947F
:10096000F2030E9452048B7F0E94B503CF5FC83010
:10097000A9F7C1CF60E08BE00E940E0260E08DE03D
:100980000E940E02B8CFCF9108950E947301811189
:100990000C947A040895CF93DF9381E08093210231
:1009A00080E480934302109222021092440263EE8C
:1009B00082EE92E00E94860381E00E9487008823F5
:1009C00029F060E070E08FE793E45FC08091EE0271
:1009D0008130A1F048F0803861F08138A9F46BE0F3
:1009E00070E080E090E00EC065E570E080E090E0AF
:1009F00009C06BE270E080E090E004C066E170E066
:100A000080E090E00E94C90283E090E00E94090427
:100A10008091D80190E02091D901821B9109039720
:100A200081F682EE92E00E944503C82F82EE92E0AA
:100A30000E94450360E070E07C2FEB01C82BD92BAE
:100A400082EE92E00E9445039E0190E1A901440FCD
:100A5000551F37FF04C09A0161E3362701C09A0190
:100A60009150A1F78313ADCFBE0180E090E00E94CA
:100A7000670B27EB33EB4FE25BE30E941E0C26E68D
:100A800036E64BE352E40E94830ADF91CF9108954A
:100A90000E94910C1F920F920FB60F9211242F9368
:100AA0003F934F935F936F937F938F939F93AF93F6
:100AB000BF93EF93FF9385E492E00E947D01FF9145
:100AC000EF91BF91AF919F918F917F916F915F91C6
:100AD0004F913F912F910F900FBE0F901F9018953F
:100AE0001F920F920FB60F9211242F938F939F9303
:100AF000EF93FF93E0915502F09156028081E091CF
:100B00005B02F0915C0282FD12C0908180915E02D6
:100B10008F5F8F7320915F02821751F0E0915E0228
:100B2000F0E0EB5BFD4F958F80935E0201C080810A
:100B3000FF91EF919F918F912F910F900FBE0F908A
:100B40001F9018951F920F920FB60F9211242F939A
:100B50003F938F939F93AF93BF9380916C0190913C
:100B60006D01A0916E01B0916F013091670123E09A
:100B7000230F2D3720F40196A11DB11D05C026E8D5
:100B8000230F0296A11DB11D2093670180936C0174
:100B900090936D01A0936E01B0936F0180916801F5
:100BA00090916901A0916A01B0916B010196A11D1C
:100BB000B11D8093680190936901A0936A01B0937D
:100BC0006B01BF91AF919F918F913F912F910F90AA
:100BD0000FBE0F901F9018951F920F920FB60F9295
:100BE00011242F933F934F935F936F937F938F9332
:100BF0009F93AF93BF93EF93FF938091B900887F4A
:100C0000803609F49CC068F5883209F45BC090F422
:100C1000803109F454C038F4882309F4F6C08830D0
:100C200009F44DC0F6C0883109F44CC0803209F493
:100C30005DC0EFC0803409F468C048F4803309F423
:100C400055C0883309F0E5C080931E02D8C08035B6
:100C500009F44FC0883509F45DC0883409F0D9C063
:100C6000D6C0883909F4C7C0A8F4883709F467C02A
:100C700038F4883609F463C0803709F460C0C9C00D
:100C8000883809F4B8C0803909F45FC0803809F0A9
:100C9000C0C05BC0803B09F486C038F4803A09F4D8
:100CA00066C0883A09F47FC0B4C0803C09F4A7C08C
:100CB000883C09F4A4C0883B09F48AC0AAC080918A
:100CC000FB0110C090911D0280911C02981770F5D5
:100CD000E0911D0281E08E0F80931D02F0E0E45050
:100CE000FE4F80818093BB0085EC86C080931E02FE
:100CF0008EC0E0911D0281E08E0F80931D028091D5
:100D0000BB00F0E0E450FE4F808390911D02809183
:100D10001C026EC0E0911D0281E08E0F80931D02C7
:100D20008091BB00F0E0E450FE4F808380911F0271
:100D300081116DC081E08093FA0184EA61C083E093
:100D40008093200210926601CFCF8091660180329D
:100D500008F051C0E091660181E08E0F809366013A
:100D60008091BB00F0E0EA5BFE4F8083BDCF85EC55
:100D70008093BC001092200280916601803230F492
:100D8000E0916601F0E0EA5BFE4F1082609166013F
:100D900070E0E091D401F091D50186E491E00995ED
:100DA0001092660136C084E08093200210924501C3
:100DB00010924401E091D601F091D70109958091FC
:100DC0004401811105C081E0809344011092240107
:100DD000E091450181E08E0F80934501F0E0EC5DEC
:100DE000FE4F80818093BB0090914501809144012A
:100DF000981708F479CF85E88093BC000AC085EC89
:100E00008093BC001092200204C010921E020E9427
:100E10000303FF91EF91BF91AF919F918F917F91CC
:100E20006F915F914F913F912F910F900FBE0F9057
:100E30001F901895E5E4F2E01382128288EE93E0A9
:100E4000A0E0B0E084839583A683B78324E031E0FB
:100E50003183208325EC30E03587248724EC30E093
:100E60003787268720EC30E0318B208B21EC30E077
:100E7000338B228B22EC30E0358B248B26EC30E058
:100E8000378B268B118E128E138E148EE2EEF2E0CB
:100E90001382128284839583A683B78386E191E0CF
:100EA000918380831092EE020895789484B58260D5
:100EB00084BD84B5816084BD85B5826085BD85B5FE
:100EC000816085BD80916E00816080936E0010927C
:100ED00081008091810082608093810080918100F7
:100EE0008160809381008091800081608093800088
:100EF0008091B10084608093B1008091B0008160E6
:100F00008093B00080917A00846080937A00809111
:100F10007A00826080937A0080917A008160809369
:100F20007A0080917A00806880937A001092C100E4
:100F30008BE00E94ED008DE00E94ED0089E00E94B0
:100F4000ED0088E00E94ED0061E088E00E940E0262
:100F50000E945B0203E711E0C0E0D8E4FD2EEE241E
:100F6000E39480E4782E812C912C9FE7A92E93E4C2
:100F7000B92E8C2F0E94F2030E945B02F092B800FF
:100F8000E0922102709243021092220210924402D7
:100F900081E00E94870081110FC0D091EE020E9473
:100FA00052048E778D2B0E94B503D093EE020E94DF
:100FB00052048B7F0E94B50380E090E0AFE7B3E47A
:100FC000F80181929192A192B1928F0180A291A297
:100FD000A2A2B3A2CF5FC83061F680939301909331
:100FE0009401A0939501B09396018093B7019093DB
:100FF000B801A093B901B093BA01E0915502F09104
:10100000560282E08083E0915102F09152021082F8
:10101000E0915302F091540280E1808310925D02CE
:10102000E0915902F0915A0286E08083E0915702E4
:10103000F0915802808180618083E0915702F091A5
:101040005802808188608083E0915702F0915802B5
:10105000808180688083E0915702F09158028081FE
:101060008F7D808385E00E94D3032FB7F894809111
:101070006C0190916D01A0916E01B0916F012FBF35
:101080008093D0019093D101A093D201B093D3016A
:1010900077247394B0E46B2E8FB7F89420906C0192
:1010A00030906D0140906E0150906F018FBF809124
:1010B000D0019091D101A091D201B091D301520100
:1010C0004101881A990AAA0ABB0AD091CF01C1E04E
:1010D000CD0FC093CF018EE00E948D02ED2FF0E086
:1010E000EE0FFF1FE554FE4F91838083CA3010F04E
:1010F0001092CF01F8EE8F16F3E09F06A104B10421
:1011000008F4F9C12092D0013092D1014092D2016D
:101110005092D30181E00E94D30373E7E72E71E080
:10112000F72E512C852D0E94F2030E94CB044B0117
:101130005C01F70161937193819391937F017092A8
:10114000210260924302109222021092440265EE44
:1011500082EE92E00E94860381E00E948700811166
:1011600082C08091EE028130A1F048F0803861F0B9
:101170008138A9F46FE070E080E090E00EC06DE18E
:1011800070E080E090E009C069E070E080E090E00D
:1011900004C064E070E080E090E00E94C90283E057
:1011A00090E00E9409048091D80190E02091D9013B
:1011B000821B9109039709F056C082EE92E00E94CB
:1011C0004503C82F82EE92E00E944503DC2EC12C1D
:1011D000E601C82BD92B82EE92E00E9445039E01C6
:1011E00090E1A901440F551F37FF04C09A01F1E3B4
:1011F0003F2701C09A019150A1F7831334C022E028
:10120000C227BE0180E090E00E94670B2DE434EF1E
:1012100049EF5AE30E941E0C20E030E040EC50E41D
:101220000E94830AEB01182F092F20E030E0A9016A
:101230000E94F00A87FD39C020E030E048EC52E41B
:10124000BE01812F902F0E94190C18160CF456C164
:1012500020E030E04EE753E4C501B4010E94F00AFB
:10126000811113C00EC020E030E04EE753E4C50109
:10127000B4010E94F00A811113C0C0E0D0E01FE762
:1012800003E40E94CB044B015C0120E030E04FE717
:1012900053E4BE01812F902F0E94F00A811113C0E8
:1012A000C0E0D0E01FE703E441C0C0E0D0E010E0C0
:1012B00000E020E030E04EE753E4C501B4010E94B5
:1012C000F00A8823F1F220E030E04FE753E4C50153
:1012D000B4010E94F00A882319F320E030E0A9014C
:1012E000C501B4010E94190C181604F520E030E085
:1012F00040EA52E4C501B4010E94F00A87FF16C01B
:10130000A501940160E070E088EC91E40E94830AFA
:101310002AE939E949E15EEB0E941E0C9E01412F4A
:10132000502F0E94840AEB01182F092FCE01A12F04
:10133000B02FF70180A391A3A2A3B3A35394F8E025
:101340005F12F0CE6091BB017091BC01EDEBF1E05A
:1013500081919191680F791F21E0EF3CF207C1F76D
:1013600080E090E00E94670B20E030E040E250E433
:101370000E941E0C20E030E040E85AE30E941E0C60
:101380004B015C01209093013090940140909501B5
:101390005090960120E030E04FE753E4C201B101E4
:1013A0000E94F00A87FF15C0A2019101C501B40196
:1013B0000E94840A20E030E040E05FE30E941E0CBF
:1013C000609393017093940180939501909396019B
:1013D00008C08092930190929401A0929501B092DE
:1013E000960180E10E948D02BC01990F880B990B38
:1013F0000E94690B20E030E44CE955E40E941E0C89
:1014000020E030E040E85AE30E941E0C20E030E487
:101410004CE155E40E94830A20E030E049E353E4C4
:101420000E94F50A6093B7017093B8018093B901E7
:101430009093BA016091930170919401809195010C
:101440009091960120917201222379F12AE939E9DC
:1014500049E351E40E94190C181654F4809170016C
:10146000909171010196909371018093700104C075
:101470001092710110927001809170019091710130
:101480008D329140C4F161E089E00E940E0261E07A
:1014900088E00E940E0283E00E94D30360E088E0AF
:1014A0000E940E021092720126C023E333E343E34D
:1014B00051E40E94F00A87FF0AC080917001909168
:1014C00071010196909371018093700104C0109294
:1014D00071011092700180917001909171014F978C
:1014E00054F07092720160E089E00E940E02109246
:1014F0007101109270010E94C504CECDC0E0D0E011
:1015000018EC02E4D6CE5058BB27AA270E949B0AAB
:101510000C94DF0B0E94D10B38F00E94D80B20F006
:1015200039F49F3F19F426F40C94CE0B0EF4E09599
:10153000E7FB0C94C80BE92F0E94F00B58F3BA1785
:10154000620773078407950720F079F4A6F50C94D9
:10155000120C0EF4E0950B2EBA2FA02D0B01B90141
:1015600090010C01CA01A0011124FF27591B99F019
:10157000593F50F4503E68F11A16F040A22F232F25
:10158000342F4427585FF3CF469537952795A79575
:10159000F0405395C9F77EF41F16BA0B620B730B1C
:1015A000840BBAF09150A1F0FF0FBB1F661F771F8D
:1015B000881FC2F70EC0BA0F621F731F841F48F442
:1015C000879577956795B795F7959E3F08F0B0CFCB
:1015D0009395880F08F09927EE0F979587950895B2
:1015E0000E94A40B08F481E008950E94090B0C945A
:1015F000DF0B0E94D80B58F00E94D10B40F029F469
:101600005F3F29F00C94C80B51110C94130C0C94EF
:10161000CE0B0E94F00B68F39923B1F3552391F39D
:10162000951B550BBB27AA2762177307840738F051
:101630009F5F5F4F220F331F441FAA1FA9F335D0AE
:101640000E2E3AF0E0E832D091505040E695001C62
:10165000CAF72BD0FE2F29D0660F771F881FBB1F1C
:10166000261737074807AB07B0E809F0BB0B802DFA
:10167000BF01FF2793585F4F3AF09E3F510578F026
:101680000C94C80B0C94130C5F3FE4F3983ED4F316
:10169000869577956795B795F7959F5FC9F7880FFA
:1016A000911D9695879597F90895E1E0660F771F4C
:1016B000881FBB1F621773078407BA0720F0621BDD
:1016C000730B840BBA0BEE1F88F7E0950895E8942E
:1016D00009C097FB3EF490958095709561957F4F7A
:1016E0008F4F9F4F9923A9F0F92F96E9BB27939528
:1016F000F695879577956795B795F111F8CFFAF438
:10170000BB0F11F460FF1BC06F5F7F4F8F4F9F4F68
:1017100016C0882311F096E911C0772321F09EE8C6
:10172000872F762F05C0662371F096E8862F70E02C
:1017300060E02AF09A95660F771F881FDAF7880F06
:101740009695879597F90895990F0008550FAA0B5C
:10175000E0E8FEEF16161706E807F907C0F01216C4
:101760001306E407F50798F0621B730B840B950BC7
:1017700039F40A2661F0232B242B252B21F408951C
:101780000A2609F4A140A6958FEF811D811D0895B9
:1017900097F99F6780E870E060E008959FEF80EC24
:1017A000089500240A9416161706180609060895C7
:1017B00000240A9412161306140605060895092E2D
:1017C0000394000C11F4882352F0BB0F40F4BF2B9C
:1017D00011F460FF04C06F5F7F4F8F4F9F4F0895DC
:1017E00057FD9058440F551F59F05F3F71F04795D2
:1017F000880F97FB991F61F09F3F79F087950895B7
:10180000121613061406551FF2CF4695F1DF08C0D5
:10181000161617061806991FF1CF869571056105F2
:1018200008940895E894BB2766277727CB0197F99A
:1018300008950E94A40B08F48FEF08950E94310CC4
:101840000C94DF0B0E94D10B38F00E94D80B20F0D3
:10185000952311F00C94C80B0C94CE0B11240C940E
:10186000130C0E94F00B70F3959FC1F3950F50E09D
:10187000551F629FF001729FBB27F00DB11D639F42
:10188000AA27F00DB11DAA1F649F6627B00DA11DE8
:10189000661F829F2227B00DA11D621F739FB00D8E
:1018A000A11D621F839FA00D611D221F749F3327FE
:1018B000A00D611D231F849F600D211D822F762F97
:1018C0006A2F11249F5750409AF0F1F088234AF074
:1018D000EE0FFF1FBB1F661F771F881F91505040E0
:1018E000A9F79E3F510580F00C94C80B0C94130C83
:1018F0005F3FE4F3983ED4F3869577956795B79567
:10190000F795E7959F5FC1F7FE2B880F911D969580
:10191000879597F90895EE0FFF1F0590F491E02D3C
:10192000099481E090E0F8940C94960CF894FFCF21
:10193000000000009F010C013601EC016701450128
:1019400059010000000086035903D0033503E3006A
:041950004503360312
:00000001FF
