:100000000C9462000C948A000C948A000C948A0070
:100010000C948A000C948A000C948A000C948A0038
:100020000C948A000C948A000C948A000C948A0028
:100030000C948A000C948A000C948A000C948A0018
:100040000C94F5050C948A000C94C3050C949D0542
:100050000C948A000C948A000C948A000C948A00F8
:100060000C943F060C948A00000000002300260038
:10007000290000000008000201000003040700003E
:1000800000000000000000000000250028002B00F8
:1000900000000000240027002A00040404040404D3
:1000A0000404020202020202030303030303010227
:1000B00004081020408001020408102001020408F6
:1000C00010205E0711241FBECFEFD8E0DEBFCDBFEA
:1000D00011E0A0E0B1E0E8E5FAE102C005900D9280
:1000E000A432B107D9F722E0A4E2B1E001C01D9229
:1000F000A23EB207E1F710E0C2E6D0E004C02197CB
:10010000FE010E94240DC136D107C9F70E94A9073C
:100110000C942A0D0C940000982F20912F0281E05E
:10012000213208F043C080910B028111FCCF8091F5
:100130002E0232E030930B0290930A029FEF9093CD
:1001400009021092080220930702AEE0B2E0E7EE47
:10015000F1E090E0291331C01092E6019091E601A0
:10016000880F892B8093E6018091E501813049F564
:100170001092E5018091E6018093BB008091BC0064
:1001800083FDF8CF85EC8093BC0080910B02823018
:10019000E1F3809109028F3FB1F080910902803232
:1001A000A1F080910902803391F084E010920D0259
:1001B00010922F0210920C0208953D9131939F5F8F
:1001C000C9CF85EEE0CF80E0F1CF82E0EFCF83E0D2
:1001D000EDCF91E090930C0280932E0210920D02CD
:1001E00010922F02089590910B029111FCCF91E093
:1001F00090930B0240930A022FEF20930902109272
:100200000802260F209307029093E6019091E601E1
:10021000880F892B8093E6018091E5018130F9F404
:100220001092E5018091E6018093BB008091BC00B3
:1002300083FDF8CF85EC8093BC0080910B02813068
:10024000E1F380910802861710F460910802A7EE8E
:10025000B1E0E5ECF1E080E0861303C0089585EE9F
:10026000EACF9D9191938F5FF7CF8091C3019091D9
:10027000C401891B990B089508950895FF920F9367
:100280001F93CF93DF93F82E162F072FCAEDD2E0DE
:1002900088810E94E9008E819F81DC01ED91FC91B3
:1002A0000190F081E02D6F2D09958E819F81DC01F9
:1002B000ED91FC910190F081E02D602F09958E81E8
:1002C0009F81DC01ED91FC910190F081E02D612F87
:1002D000099581E00E948C0090E0DF91CF911F9101
:1002E0000F91FF90089590E0FC01E255FF4F24919B
:1002F00086569F4FFC018491882399F090E0880FE7
:10030000991FFC01E057FF4FA591B491FC01EA57FA
:10031000FF4F859194918FB7F894EC91E22BEC9379
:100320008FBF0895AF92BF92CF92DF92EF92FF926C
:100330000F931F93CF93DF936C017B018B01040F0D
:10034000151FEB015E01AE18BF08C017D10759F0A9
:100350006991D601ED91FC910190F081E02DC601EB
:100360000995892B79F7C501DF91CF911F910F91E5
:10037000FF90EF90DF90CF90BF90AF900895FC0179
:10038000538D448D252F30E0842F90E0821B930BFA
:10039000541710F0CF96089501970895FC01918DA0
:1003A000828D981761F0A28DAE0FBF2FB11D5D96A3
:1003B0008C91928D9F5F9F73928F90E008958FEF45
:1003C0009FEF0895FC01918D828D981731F0828DF9
:1003D000E80FF11D858D90E008958FEF9FEF089550
:1003E000FC01918D228D892F90E0805C9F4F821BB4
:1003F00091098F739927089580E392E00E94F0019C
:1004000021E0892B09F420E0822F0895FC01A48DBE
:10041000A80FB92FB11DA35ABF4F2C91848D90E026
:1004200001968F739927848FA689B7892C93A08909
:10043000B1898C91837080648C93938D848D981393
:1004400006C00288F389E02D80818F7D8083089526
:10045000EF92FF920F931F93CF93DF93EC0181E014
:10046000888F9B8D8C8D98131AC0E889F9898081BB
:1004700085FF15C09FB7F894EE89FF896083E889EE
:10048000F98980818370806480839FBF81E090E0E0
:10049000DF91CF911F910F91FF90EF900895F62E6D
:1004A0000B8D10E00F5F1F4F0F731127E02E8C8D07
:1004B0008E110CC00FB607FCFACFE889F98980814C
:1004C00085FFF5CFCE010E940602F1CFEB8DEC0F38
:1004D000FD2FF11DE35AFF4FF0829FB7F8940B8F69
:1004E000EA89FB8980818062CFCFCF93DF93EC01D3
:1004F000888D8823B9F0AA89BB89E889F9898C910C
:1005000085FD03C0808186FD0DC00FB607FCF7CFC7
:100510008C9185FFF2CF808185FFEDCFCE010E94C7
:100520000602E9CFDF91CF910895833081F028F45E
:10053000813099F08230A9F008958730A9F0883091
:10054000C9F08430B1F4809180008F7D03C0809128
:1005500080008F7780938000089584B58F7784BD65
:10056000089584B58F7DFBCF8091B0008F77809305
:10057000B00008958091B0008F7DF9CF1F93CF9385
:10058000DF93282F30E0F901EE58FF4F8491F901F5
:10059000E255FF4FD491F901E656FF4FC491CC23A9
:1005A000A9F0162F81110E949502EC2FF0E0EE0FBA
:1005B000FF1FEA57FF4FA591B4918FB7F894EC91C4
:1005C000111108C0D095DE23DC938FBFDF91CF914E
:1005D0001F910895DE2BF8CF1092C4011092C30131
:1005E00010920D0210922F0210920B0281E0809364
:1005F0000A021092E50161E082E10E94BE0261E020
:1006000083E10E94BE02E9EBF0E080818E7F80836F
:1006100080818D7F808388E48093B80085E4809317
:10062000BC008CE391E09093C2018093C1018DE303
:1006300091E09093C0018093BF0108953FB7F89473
:100640008091680190916901A0916A01B0916B015C
:1006500026B5A89B05C02F3F19F00196A11DB11D1D
:100660003FBFBA2FA92F982F8827BC01CD01620F59
:10067000711D811D911D42E0660F771F881F991F14
:100680004A95D1F708958F929F92AF92BF92CF92E1
:10069000DF92EF92FF924B015C010E941E036B01FF
:1006A0007C010E941E036C197D098E099F09683E1A
:1006B000734081059105A8F321E0821A9108A108F1
:1006C000B10888EEC80E83E0D81EE11CF11C81142D
:1006D0009104A104B10429F7FF90EF90DF90CF902F
:1006E000BF90AF909F908F90089585ED8093BC0050
:1006F0008091BC0084FDFCCF10920B0208952091E4
:100700004401260F3327331F21323105ECF42091A9
:100710000B02FC0190E080E0243069F082E0089553
:10072000A09144012191AC014C5D5E4FA40FB52F07
:10073000B11D2C930196861798F380914401680FA0
:100740006093440180E0089581E008950895E09168
:10075000C4018091C301E81730F4F0E0EB53FE4F81
:10076000808190E008958FEF9FEF08959091C401EC
:100770008091C3012FEF3FEF981748F4E92FF0E085
:10078000EB53FE4F208130E09F5F9093C401C9017D
:100790000895CF92DF92EF92FF920F931F93CF9322
:1007A000DF937C01CB018A0120910C02222389F086
:1007B000EB016B01C40ED51ECC15DD0569F0699106
:1007C000D701ED91FC910190F081E02DC7010995D1
:1007D000F3CF642F0E947F03C801DF91CF911F9157
:1007E0000F91FF90EF90DF90CF900895CF93DF931C
:1007F0001F92CDB7DEB7698320910C022223F9F056
:1008000020912F02203258F021E030E0FC013383A8
:10081000228390E080E00F90DF91CF910895809146
:100820000D02E82FF0E0E25FFD4F998190838F5F2A
:1008300080930D0280932F0281E090E0ECCF61E085
:10084000CE0101960E947F03F7CFCF93C82F80E49B
:100850000E94E90066EE8DEC92E00E94F6036C2F98
:100860008DEC92E00E94F60381E0CF910C948C0015
:1008700090E080E00895CF93DF93D82FC0E061E04F
:100880008DE00E94BE0264E670E080E090E00E948D
:10089000430360E08DE00E94BE0264E670E080E009
:1008A00090E00E944303CF5FDC13E9CFDF91CF914B
:1008B0000895CF93C82F80E70E94E90061E070E0BF
:1008C00001C0660FCA95EAF78DEC92E00E94F6032C
:1008D00081E0CF910C948C00CF93DF9380E40E9451
:1008E000E90063EE8DEC92E00E94F60381E00E9445
:1008F0008C00882339F060E070E08FE793E4DF91AB
:10090000CF9108958091D902813009F44FC008F445
:1009100041C0803809F445C0813809F44CC041E039
:1009200063E080E40E94F3001092C4018093C3014D
:10093000833009F78DEC92E00E94B603D82F40E097
:10094000C42F8DEC92E00E94B603C82BD92B8DECFE
:1009500092E00E94B6039E0190E1A901220F331F8D
:1009600057FF02C041E334279150B9F78313C3CF37
:10097000BE0190E080E00E94000C27EB33EB4FE2D9
:100980005BE30E94B70C26E636E64BE352E40E9496
:10099000E60AB5CF65E570E080E090E00E94430391
:1009A000BECF6BE270E080E090E0F8CF66E170E0EF
:1009B00080E090E0F3CF6BE070E080E090E0EECF7D
:1009C00080E40E94E90067EE8DEC92E00E94F6035D
:1009D00081E00E948C00882311F08FEF089541E0A0
:1009E00061E080E40E94F3001092C4018093C3018F
:1009F000813099F78DEC92E00E94B6030895CF9371
:100A000080E392E00E94F001892B09F441C080E369
:100A100092E00E94CE01853441F16CF48334C1F040
:100A2000843471F748E450E063E771E080E392E0DA
:100A30000E949201E5CF863429F1833509F761E000
:100A400083E00E94BE0261E08DE00E94BE02D8CF2A
:100A5000C0E08C2F0E9459040E94E00484600E9430
:100A60002504CF5FC830A9F7CBCFC0E08C2F0E9400
:100A700059040E94E0048B7F0E942504CF5FC83098
:100A8000A9F7BECF60E083E00E94BE0260E0DCCF49
:100A9000CF9108950E94FC0181110C94FF040895E8
:100AA0000F931F93CF93DF93C82F8B018091DA02AE
:100AB0000E94E9008091E0029091E102DC01ED9159
:100AC000FC910190F081E02D6C2F099581E00E944E
:100AD0008C0090E0009761F541E062E08091DA02DD
:100AE0000E94F3001092C4018093C301D0E0C0E0E3
:100AF0008091E0029091E102DC01ED91FC91008493
:100B0000F185E02D0995009781F0DC2FCC278091AD
:100B1000E0029091E102DC01ED91FC910284F38509
:100B2000E02D0995C82BD92BE3CFF801D183C083E1
:100B3000DF91CF911F910F9108951F920F920FB6E1
:100B40000F9211242F933F934F935F936F937F9353
:100B50008F939F93AF93BF93EF93FF9380E392E0C4
:100B60000E940602FF91EF91BF91AF919F918F91EB
:100B70007F916F915F914F913F912F910F900FBE99
:100B80000F901F9018951F920F920FB60F9211247D
:100B90002F938F939F93EF93FF93E0914002F091F7
:100BA00041028081E0914602F091470282FD1BC024
:100BB0009081809149028F5F8F7320914A02821742
:100BC00041F0E0914902F0E0E05DFD4F958F8093A8
:100BD0004902FF91EF919F918F912F910F900FBE3E
:100BE0000F901F9018958081F4CF1F920F920FB62F
:100BF0000F9211242F933F938F939F93AF93BF93A3
:100C000080916C0190916D01A0916E01B0916F0186
:100C10003091670123E0230F2D3758F50196A11D70
:100C2000B11D2093670180936C0190936D01A09397
:100C30006E01B0936F018091680190916901A0915C
:100C40006A01B0916B010196A11DB11D80936801ED
:100C500090936901A0936A01B0936B01BF91AF912A
:100C60009F918F913F912F910F900FBE0F901F90EA
:100C7000189526E8230F0296A11DB11DD2CF1F9211
:100C80000F920FB60F9211242F933F934F935F93C0
:100C90006F937F938F939F93AF93BF93EF93FF9344
:100CA0008091B900887F803609F44AC0F0F5883217
:100CB00009F4A7C018F5803109F49BC0B8F4882363
:100CC00009F4F9C0883009F494C0FF91EF91BF9105
:100CD000AF919F918F917F916F915F914F913F91D4
:100CE0002F910F900FBE0F901F901895883109F427
:100CF00088C0803251F78093090214C0803409F40F
:100D00009DC040F48033B9F38833F9F6809309022B
:100D100085ECB0C0803509F485C0883509F496C0EB
:100D2000883499F60E947503D0CF883909F48CC0B5
:100D300038F5883729F050F4883611F0803729F6D5
:100D400083E080930B021092660157C0883809F443
:100D50007BC0803919F0803809F0B7CF80916601E7
:100D6000803208F071C0E091660181E08E0F8093BF
:100D700066018091BB00F0E0EA5BFE4F80833DC0DE
:100D8000803B39F0E0F4803A09F479C0883A09F000
:100D90009CCF84E080930B02109245011092440195
:100DA000E091C101F091C201099580914401811146
:100DB0000FC081E0809344011092240109C0803C5F
:100DC00009F4A6CF883C09F4A3CF883B09F07DCF76
:100DD000E091450181E08E0F80934501F0E0EC5DEC
:100DE000FE4F80818093BB0090914501809144012A
:100DF00029C08091E6018093BB0085EC8093BC0004
:100E000064CF9091080280910702981758F5E091FD
:100E1000080281E08E0F80930802F0E0E951FE4F56
:100E20008081E9CFE091080281E08E0F8093080273
:100E30008091BB00F0E0E951FE4F80839091080261
:100E4000809107029817C8F285E8D8CFE091080290
:100E500081E08E0F809308028091BB00F0E0E951A1
:100E6000FE4F808380910A0281115CCF81E08093E4
:100E7000E50184EA8093BC0010920B0226CF85EC3A
:100E80008093BC0010920B0280916601803230F496
:100E9000E0916601F0E0EA5BFE4F1082609166012E
:100EA00070E0E091BF01F091C00186E491E0099506
:100EB000109266010ACF1092090234CFE0E3F2E00B
:100EC0001382128288EE93E0A0E0B0E084839583E1
:100ED000A683B78324E031E03183208325EC30E022
:100EE0003587248724EC30E03787268720EC30E0F4
:100EF000318B208B21EC30E0338B228B22EC30E0E5
:100F0000358B248B26EC30E0378B268B118E128E9E
:100F1000138E148EEDECF2E013821282848395839B
:100F2000A683B78386E191E091838083EAEDF2E0C6
:100F300080E490E09183808383E390E095838483D1
:100F400087E29FE493838283178216821092D902EC
:100F50000895CF93DF9300D000D000D0CDB7DEB797
:100F6000789484B5826084BD84B5816084BD85B584
:100F7000826085BD85B5816085BD80916E00816090
:100F800080936E0010928100809181008260809336
:100F90008100809181008160809381008091800038
:100FA0008160809380008091B10084608093B10063
:100FB0008091B00081608093B00080917A0084605D
:100FC00080937A0080917A00826080937A00809189
:100FD0007A00816080937A0080917A0080688093A3
:100FE0007A001092C10083E00E9473018DE00E949C
:100FF000730188E00E94730189E00E94730161E03F
:1010000089E00E94BE020E94EC028DEC92E0909377
:10101000E1028093E0026091DC027091DD0280E0E9
:101020000E943E01892B39F46091DE027091DF024B
:1010300085E00E943E0103E711E0B12CE8E49E2E1A
:10104000C12CD12CFFE7EF2EF3E4FF2E8B2D0E9455
:1010500059040E94EC029092B80080E40E94E900DA
:1010600081E00E948C0081110FC0A090D9020E94E3
:10107000E0048E778A290E942504A092D9020E945A
:10108000E0048B7F0E942504F801C192D192E19285
:10109000F1928F01C0A2D1A2E2A2F3A2B394F8E030
:1010A000BF12D4CFC0929301D0929401E0929501E7
:1010B000F0929601C092B701D092B801E092B901C6
:1010C000F092BA0183E00E943B04E0914002F0916B
:1010D000410282E08083E0913C02F0913D02108267
:1010E000E0913E02F0913F0280E18083109248023D
:1010F000E0914402F091450286E08083E091420253
:10110000F0914302808180618083E0914202F091FE
:101110004302808188608083E0914202F091430223
:10112000808180688083E0914202F0914302808157
:101130008F7D80832FB7F89480916C0190916D0121
:10114000A0916E01B0916F012FBF8093BB0190936E
:10115000BC01A093BD01B093BE0109E1412C512C0B
:101160007FE7672E73E4772E2FB7F89480916C0198
:1011700090916D01A0916E01B0916F012FBF4091D0
:10118000BB015091BC016091BD017091BE016C0129
:101190007D01C41AD50AE60AF70AB701A601483E3E
:1011A00053406105710508F474C18093BB019093AD
:1011B000BC01A093BD01B093BE0183E791E09C8385
:1011C0008B8310E0812F0E9459040E946C044B0114
:1011D0005C01EB81FC8181929192A192B192FC839E
:1011E000EB8380E40E94E90065EE8DEC92E00E94C2
:1011F000F60381E00E948C0081118BC18091D9029D
:10120000813009F424C108F411C1803809F41AC1ED
:10121000813809F412C141E063E080E40E94F300E8
:101220001092C4018093C301833009F072C18DEC28
:1012300092E00E94B6038E831D828DEC92E00E94A4
:10124000B603ED80FE80E82AF92A8DEC92E00E9438
:10125000B603970190E1A901220F331F57FF02C087
:10126000F1E33F279150B9F7831353C122E0E226FF
:10127000B70190E080E00E94000C2DE434EF49EFCC
:101280005AE30E94B70C20E030E040EC50E40E94AA
:10129000E60A6B017C0120E030E0A9010E94530BBB
:1012A00087FD49C120E030E048EC52E4C701B601B7
:1012B0000E94B20C18160CF482C120E030E04EE718
:1012C00053E4C501B4010E94530B811104C00E9474
:1012D0006C044B015C0120E030E04FE753E4C701B0
:1012E000B6010E94530B811134C1C12CD12C2FE7C0
:1012F000E22E23E4F22EEB81FC81C0A2D1A2E2A275
:10130000F3A21F5F183009F05DCFBE016F5F7F4F02
:1013100082E00E945005892B09F09EC069817A8184
:1013200090E080E00E94000C20E030E040EA5FE3C3
:101330000E94B70C0E94CA0B1B01072E000C880BE1
:10134000990B0E94020C20E030E04AE754E40E942E
:10135000580B60939301709394018093950190933F
:101360009601BE016F5F7F4F83E00E945005892B7D
:1013700009F07BC089819A81089FB001099F700D97
:101380001124072E000C880B990B0E94020C20E000
:1013900030E04AE754E40E94580B6093B701709321
:1013A000B8018093B9019093BA01E8E7F0E0849125
:1013B000E4EBF0E0F490E0EAF0E01491112309F49A
:1013C0005DC081110E949502E12FF0E0EE0FFF1F3A
:1013D000E859FF4FA591B4918C91F82209F44EC0C1
:1013E0008091720181115DC040EE24164EE23406F8
:1013F0000CF08AC0809170019091710101969093D8
:1014000071018093700180917001909171014F97EB
:101410000CF471C081E08093720160E088E00E946A
:10142000BE02109271011092700161C06DE170E016
:1014300080E090E00E944303EECE6FE070E080E039
:1014400090E0F8CF69E070E080E090E0F3CF64E0F6
:1014500070E080E090E0EECF4092930150929401D2
:1014600060929501709296017CCF4092B7015092A4
:10147000B8016092B9017092BA0197CF8091720160
:10148000811107C081E08093720160E088E00E94D2
:10149000BE020E94FC01882309F466CE0E94FF046C
:1014A00063CEF9EA2F16FFE23F064CF180917001FE
:1014B00090917101019690937101809370018091D8
:1014C0007001909171018D3291401CF361E088E0D0
:1014D0000E94BE0261E089E00E94BE0283E00E9499
:1014E0003B0460E089E00E94BE021092720180918C
:1014F00072018111CECF81E00E943B04CACF1092CD
:10150000710110927001DBCF109271011092700185
:101510007ACF20E030E04EE753E4C501B4010E94E9
:10152000530BC12CD12C3FE7E32E33E4F32E882359
:1015300009F4CDCEDACEC12CD12C760120E030E0FA
:101540004EE753E4C501B4010E94530B882309F40C
:10155000BECE20E030E04FE753E4C501B4010E9465
:10156000530B882309F4C1CE20E030E0A901C50166
:10157000B4010E94B20C18160CF0BDCE20E030E091
:1015800040EA52E4C501B4010E94530B87FFB3CE79
:10159000A501940160E070E088EC91E40E94E60A05
:1015A0002AE939E949E15EEB0E94B70C9B01AC01E5
:1015B000C701B6010E94E70A6B017C019CCEC12CD9
:1015C000D12C88ECE82E82E4F82EB8CF5058BB27F7
:1015D000AA270E94FE0A0C94780C0E946A0C38F02C
:1015E0000E94710C20F039F49F3F19F426F40C94FA
:1015F000670C0EF4E095E7FB0C94610CE92F0E9458
:10160000890C58F3BA17620773078407950720F00F
:1016100079F4A6F50C94AB0C0EF4E0950B2EBA2FD2
:10162000A02D0B01B90190010C01CA01A0011124E8
:10163000FF27591B99F0593F50F4503E68F11A1694
:10164000F040A22F232F342F4427585FF3CF469525
:1016500037952795A795F0405395C9F77EF41F1647
:10166000BA0B620B730B840BBAF09150A1F0FF0F11
:10167000BB1F661F771F881FC2F70EC0BA0F621FFD
:10168000731F841F48F4879577956795B795F795ED
:101690009E3F08F0B0CF9395880F08F09927EE0F82
:1016A0009795879508950E943D0C08F481E0089570
:1016B0000E946C0B0C94780C0E94710C58F00E94E4
:1016C0006A0C40F029F45F3F29F00C94610C511131
:1016D0000C94AC0C0C94670C0E94890C68F3992351
:1016E000B1F3552391F3951B550BBB27AA2762171E
:1016F0007307840738F09F5F5F4F220F331F441F2B
:10170000AA1FA9F335D00E2E3AF0E0E832D091505E
:101710005040E695001CCAF72BD0FE2F29D0660F4B
:10172000771F881FBB1F261737074807AB07B0E88E
:1017300009F0BB0B802DBF01FF2793585F4F3AF094
:101740009E3F510578F00C94610C0C94AC0C5F3FFB
:10175000E4F3983ED4F3869577956795B795F7951A
:101760009F5FC9F7880F911D9695879597F9089502
:10177000E1E0660F771F881FBB1F6217730784079E
:10178000BA0720F0621B730B840BBA0BEE1F88F7AD
:10179000E09508950E94D10B6894B1110C94AC0CA3
:1017A00008950E94910C88F09F5798F0B92F9927BF
:1017B000B751B0F0E1F0660F771F881F991F1AF03C
:1017C000BA95C9F714C0B13091F00E94AB0CB1E0EA
:1017D00008950C94AB0C672F782F8827B85F39F0E9
:1017E000B93FCCF3869577956795B395D9F73EF4D5
:1017F00090958095709561957F4F8F4F9F4F08957D
:10180000E89409C097FB3EF490958095709561959A
:101810007F4F8F4F9F4F9923A9F0F92F96E9BB2750
:101820009395F695879577956795B795F111F8CFCC
:10183000FAF4BB0F11F460FF1BC06F5F7F4F8F4F37
:101840009F4F16C0882311F096E911C0772321F02D
:101850009EE8872F762F05C0662371F096E8862FC5
:1018600070E060E02AF09A95660F771F881FDAF71C
:10187000880F9695879597F90895990F0008550F49
:10188000AA0BE0E8FEEF16161706E807F907C0F006
:1018900012161306E407F50798F0621B730B840B0E
:1018A000950B39F40A2661F0232B242B252B21F4E8
:1018B00008950A2609F4A140A6958FEF811D811D88
:1018C000089597F99F6780E870E060E008959FEFC2
:1018D00080EC089500240A941616170618060906C7
:1018E000089500240A941216130614060506089596
:1018F000092E0394000C11F4882352F0BB0F40F41E
:10190000BF2B11F460FF04C06F5F7F4F8F4F9F4F5D
:10191000089557FD9058440F551F59F05F3F71F0DF
:101920004795880F97FB991F61F09F3F79F0879546
:101930000895121613061406551FF2CF4695F1DFCF
:1019400008C0161617061806991FF1CF869571055F
:10195000610508940895E894BB2766277727CB0193
:1019600097F908950E943D0C08F48FEF08950E94A6
:10197000CA0C0C94780C0E946A0C38F00E94710C0E
:1019800020F0952311F00C94610C0C94670C112439
:101990000C94AC0C0E94890C70F3959FC1F3950FC9
:1019A00050E0551F629FF001729FBB27F00DB11DE3
:1019B000639FAA27F00DB11DAA1F649F6627B00D73
:1019C000A11D661F829F2227B00DA11D621F739F5C
:1019D000B00DA11D621F839FA00D611D221F749F6A
:1019E0003327A00D611D231F849F600D211D822FB1
:1019F000762F6A2F11249F5750409AF0F1F08823D8
:101A00004AF0EE0FFF1FBB1F661F771F881F915004
:101A10005040A9F79E3F510580F00C94610C0C9446
:101A2000AC0C5F3FE4F3983ED4F3869577956795C9
:101A3000B795F795E7959F5FC1F7FE2B880F911D2E
:101A40009695879597F90895EE0FFF1F0590F491ED
:081A5000E02D0994F894FFCF8A
:101A58000000000028029201BF017502F001CE01CA
:101A6800E20100000000F603C9033804A6033501AB
:041A7800B603A70307
:00000001FF
